:101414008035E4FFFEFDFC900353E0F8A3E0F9A35C
:10142400E0FAA3E0FBC312102D6024900353E0FC08
:10143400A3E0FDA3E0FEA3E024FFFFEE34FFFEEDF6
:1014440034FFFDEC34FFFC90035312103E80C322A2
:0D191E00007F067E9D7D3BDDFEDEFCDFFAD6
:01192B002299
:0600560000007F01DFFE47
:01005C002281
:04182700AD07AC0657
:10182B00E4FBFAC3EB9DEA9C5018900000120056A3
:10183B00A3E582B4E8F7E583B403F20BBB00010A1E
:02184B0080E13A
:01184D002278
:100CD2007374617200656E64000000000000000021
:100CE2000000000000000000000000000000000002
:100CF20000000000000000000000000000000000F2
:100D020000000000000000000000000000000000E1
:100D120000000000000000000000000000000000D1
:100D220000000000000000000000000000000000C1
:100D320000000000000000000000000000000000B1
:100D420000000000000000000000000000000000A1
:100D52000000000000000000000000000000000091
:100D62000000000000000000000000000000000081
:100D72000000000000000000000000000000000071
:100D82000000000000000000000000000000000061
:100D92000000000000000000000000000000000051
:100DA2000000000000000000000000000000000041
:100DB2000000000000000000000000000000000031
:100DC2000000000000000000000000000000000021
:100DD2000000000000000000000000000000000011
:100DE2000000000000000000000000000000000001
:100DF20000000000000000000000000000000000F1
:100E020000000000000000000000000000000000E0
:100E120000000000000000000000000000000000D0
:100E220000000000000000000000000000000000C0
:100E320000000000000000000000000000000000B0
:100E420000000000000000000000000000000000A0
:100E52000000000000000000000000000000000090
:100E62000000000000000000000000000000000080
:100E72000000000000000000000000000000000070
:100E82000000000000000000000000000000000060
:100E92000000000000000000000000000000000050
:100EA2000000000000000000000000000000000040
:100EB2000000000000000000000000000000000030
:100EC2000000000000000000000000000000000020
:090ED20000000000000000000017
:0A13CA00C2ED7FE87E037D007C0089
:1013D4008035E4FFFEFDFC900000E0F8A3E0F9A3F3
:1013E400E0FAA3E0FBC312102D6024900000E0FC9F
:1013F400A3E0FDA3E0FEA3E024FFFFEE34FFFEED37
:1014040034FFFDEC34FFFC90000012103E80C32238
:10179B00900225EBF0A3EAF0A3E9F0A3EDF09002A1
:1017AB0028E0FF14F0EF6019900225E0FBA3E4752D
:1017BB00F001121017A9F0FA120FD1FF12000380DB
:0217CB00DD221D
:10165200900357EBF0A3EAF0A3E9F0A3EDF07FEEDD
:10166200801E90035AE0FF14F0EF6019900357E0D8
:10167200FBA3E475F001121017A9F0FA120FD1FFC3
:0A16820012000380DD7FFF02000369
:10187500900381EFF07FEE120003900381E0FF12E9
:0718850000037FFF020003D6
:1017CD00C2B3C2B4C2C8C2C9C2C1C2F8C2EFC2FB61
:1017DD00C2A1C2A2C2A5C2A6C2C0C2CDC296C295A6
:1017ED00C2EBC2EAC293C292C291C2CBC2CAC2902C
:0117FD0022C9
:10094600D2B37F647E0012182730B2077F2C7E0157
:1009560012182730B2077F587E02121827C2B37FBB
:10096600BC7E02121827D2B47F647E00121827308C
:10097600B5077F2C7E0112182730B5077F587E02F7
:10098600121827C2B47FBC7E02121827D2C87F6411
:100996007E0012182730EE077F2C7E0112182730B2
:1009A600EE077F587E02121827C2C87FBC7E02124D
:1009B6001827D2C97F647E0012182730B6077F2C0D
:1009C6007E0112182730B6077F587E02121827C2FA
:1009D600C97FBC7E02121827D2C17F647E0012181E
:1009E6002730B7077F2C7E0112182730B7077F58AC
:1009F6007E02121827C2C17FBC7E02121827D2F8C7
:100A06007F647E0012182730F9077F2C7E011218AA
:100A16002730F9077F587E02121827C2F87FBC7E5E
:100A260002121827D2EF7F647E0012182730FA07C9
:100A36007F2C7E0112182730FA077F587E02121883
:100A460027C2EF7FBC7E02121827D2FB7F647E008E
:100A560012182730A0077F2C7E0112182730A00716
:100A66007F587E02121827C2FB7FBC7E021218270F
:100A7600D2A17F647E0012182730C2077F2C7E0128
:100A860012182730C2077F587E02121827C2A17F8C
:100A9600BC7E02121827D2A27F647E00121827306D
:100AA600A3077F2C7E0112182730A3077F587E02EA
:100AB600121827C2A27FBC7E02121827D2A57F6415
:100AC6007E0012182730A4077F2C7E0112182730CB
:100AD600A4077F587E02121827C2A57FBC7E021289
:100AE6001827D2A67F647E0012182730A7077F2C0E
:100AF6007E0112182730A7077F587E02121827C2D8
:100B0600A67FBC7E02121827D2C07F647E00121810
:100B16002730EC077F2C7E0112182730EC077F5810
:100B26007E02121827C2C07FBC7E02121827D2CDC1
:100B36007F647E0012182730CC077F2C7E011218A6
:100B46002730CC077F587E02121827C2CD7FBC7E85
:100B560002121827D2967F647E0012182730970754
:100B66007F2C7E011218273097077F587E021218B5
:100B760027C2967FBC7E02121827D2957F647E001C
:100B860012182730C4077F2C7E0112182730C4079D
:100B96007F587E02121827C2957FBC7E0212182744
:100BA600D2EB7F647E001218273094077F2C7E01DB
:100BB6001218273094077F587E02121827C2EB7F3F
:100BC600BC7E02121827D2EA7F647E0012182730F4
:100BD600E9077F2C7E0112182730E9077F587E022D
:100BE600121827C2EA7FBC7E02121827D2937F64AE
:100BF6007E0012182730E8077F2C7E011218273056
:100C0600E8077F587E02121827C2937FBC7E021225
:100C16001827D2927F647E001218273087077F2C10
:100C26007E011218273087077F587E02121827C2C6
:100C3600927FBC7E02121827D2917F647E00121822
:100C4600273086077F2C7E011218273086077F58AB
:100C56007E02121827C2917FBC7E02121827D2CBC1
:100C66007F647E001218273085077F2C7E011218BC
:100C7600273085077F587E02121827C2CB7FBC7E9D
:100C860002121827D2CA7F647E0012182730840702
:100C96007F2C7E011218273084077F587E02121897
:100CA60027C2CA7FBC7E02121827D2907F647E00BC
:100CB6001218273083077F2C7E01121827308307EE
:0C0CC6007F587E02121827C2900217CD42
:0812DD007B017A0179067C0017
:1012E500900225EBF0A3EAF0A3E9F0A3ECF0A3ED5F
:0112F500F008
:1012F600E4A3F0FDFCD3900229E09D900228E09C37
:10130600402590022AE0FF900225E0FBA3E0FAA325
:10131600E0F98D828C83120FEAFEEF6E90022AF0BE
:0C1326000DBD00010C80CE90022AE0FFFB
:011332002298
:1000B60078017C007D017BFF7A0C79DB7E017F0075
:1000C600120FABE4900101F078067C017D017BFF05
:1000D6007A0D79DB7E01FF120FABE4900206F0A2E7
:1000E600B23390020DF0A2B5E433A3F0A2EEE433EE
:1000F600A3F0A2B6E433A3F0A2B7E433A3F0A2F9C7
:10010600E433A3F0A2FAE433A3F0A2A0E433A3F00D
:10011600A2C2E433A3F0A2A3E433A3F0A2A4E4337F
:10012600A3F0A2A7E433A3F0A2ECE433A3F0A2CC9D
:10013600E433A3F0A297E433A3F0A2C4E433A3F01C
:10014600A294E433A3F0A2E9E433A3F0A2E8E433F3
:10015600A3F0A287E433A3F0A286E433A3F0A2853A
:10016600E433A3F0A284E433A3F0A283E433A3F040
:10017600900330E024F8FF900206F07E0078067CBB
:10018600017D017B017A02792F120FABA282B3E4C3
:1001960033900207F0A2FCB3E433A3F0A2FDB3E46C
:1001A60033A3F0A2FEB3E433A3F0A2FFB3E433A378
:1001B600F0A2C3B3E433A3F0900208E025E0FF9079
:1001C6000207E04FFF900209E025E025E04FFFA37C
:1001D600E033333354F84FFFA3E0C454F04FFFA38A
:1001E600E0C43354E04FFF900105F0900107E0FEB4
:1001F6006F6003020945900206E064056003020988
:1002060004900106E090034EF0A3EEF0900108E0A2
:10021600900350F0900109E0900351F090010AE03C
:10022600900352F07D041212DD900000EFF090036F
:1002360052E06F600302094590034EE0248070038C
:1002460002066524F66003020945900351E0641135
:100256006003020945900350E014B41800400302FD
:10026600061E90027675F003A4C58325F0C5837338
:100276000202BE0202E202030602032A02034E0241
:1002860003720203960203BA0203DE0204020204A8
:100296002602044A02046E0204920204B60204DA3A
:1002A6000204FE02052202054602056A02058E02C6
:1002B60005B10205D40205F7D2B37F647E00121899
:1002C6002730B2077F2C7E0112182730B2077F58DD
:1002D6007E02121827C2B3A2B2020618D2B47F64F5
:1002E6007E0012182730B5077F2C7E0112182730A2
:1002F600B5077F587E02121827C2B4A2B5020618A7
:10030600D2C87F647E0012182730EE077F2C7E014C
:1003160012182730EE077F587E02121827C2C8A28D
:10032600EE020618D2C97F647E0012182730B6077F
:100336007F2C7E0112182730B6077F587E021218CE
:1003460027C2C9A2B6020618D2C17F647E0012185F
:100356002730B7077F2C7E0112182730B7077F5842
:100366007E02121827C2C1A2B7020618D2F87F640D
:100376007E0012182730F9077F2C7E0112182730CD
:10038600F9077F587E02121827C2F8A2F90206184A
:10039600D2EF7F647E0012182730FA077F2C7E0189
:1003A60012182730FA077F587E02121827C2EFA2CA
:1003B600FA020618D2FB7F647E0012182730A007C7
:1003C6007F2C7E0112182730A0077F587E02121854
:1003D60027C2FBA2B5020618D2A17F647E001218BE
:1003E6002730C2077F2C7E0112182730C2077F589C
:1003F6007E02121827C2A1A2C2020618D2A27F64E8
:100406007E0012182730A3077F2C7E011218273092
:10041600A3077F587E02121827C2A2A2A3020618BB
:10042600D2A57F647E0012182730A4077F2C7E0198
:1004360012182730A4077F587E02121827C2A5A2D9
:10044600A4020618D2A67F647E0012182730A707DA
:100456007F2C7E0112182730A7077F587E021218BC
:1004660027C2A6A2A7020618D2C07F647E00121871
:100476002730EC077F2C7E0112182730EC077F58B7
:100486007E02121827C2C0A2EC020618D2CD7F64E3
:100496007E0012182730CC077F2C7E0112182730D9
:1004A600CC077F587E02121827C2CDA2CC020618AE
:1004B600D2967F647E001218273097077F2C7E0124
:1004C6001218273097077F587E02121827C296A265
:1004D60097020618D2957F647E0012182730C4074B
:1004E6007F2C7E0112182730C4077F587E0212180F
:1004F60027C295A2C4020618D2EB7F647E001218AA
:10050600273094077F2C7E011218273094077F58D6
:100516007E02121827C2EBA294020618D2EA7F6462
:100526007E0012182730E9077F2C7E01121827302B
:10053600E9077F587E02121827C2EAA2E9020618C6
:10054600D2937F647E0012182730E8077F2C7E0145
:1005560012182730E8077F587E02121827C293A286
:10056600E8020618D2927F647E00121827308707A9
:100576007F2C7E011218273087077F587E021218BB
:1005860027C292A287020618D2917F647E001218B3
:10059600273086077F2C7E011218273086077F5862
:1005A6007E02121827C291A2868067D2CB7F647E14
:1005B600001218273085077F2C7E011218273085F8
:1005C600077F587E02121827C2CBA2858044D2CA62
:1005D6007F647E001218273084077F2C7E01121854
:1005E600273084077F587E02121827C2CAA2848049
:1005F60021D2907F647E001218273083077F2C7EDD
:10060600011218273083077F587E02121827C290DE
:10061600A283E433900101F01217CD78017C007DAE
:10062600017BFF7A0C79D27E007F04120FAB900318
:100636004EE0900005F090034FE0900006F0900326
:1006460050E0900007F0900101E06401700990000D
:10065600087411F00208CBE4900008F00208CB9071
:100666000351E064336003020945900350E06003E0
:100676000207BC90020EE025E0FF90020DE04FFF5E
:1006860090020FE025E025E04FFFA3E0333333541B
:10069600F84FFFA3E0C454F04FFFA3E0C43354E087
:1006A6004FFFA3E0C4333354C04FFFA3E0C433333A
:1006B6003354804F900102F0900216E025E0FF903F
:1006C6000215E04FFF900217E025E025E04FFFA35B
:1006D600E033333354F84FFFA3E0C454F04FFFA385
:1006E600E0C43354E04FFFA3E0C4333354C04FFF9C
:1006F600A3E0C433333354804F900103F090021EBD
:10070600E025E0FF90021DE04FFF90021FE025E08C
:1007160025E04FFFA3E033333354F84FFFA3E0C483
:1007260054F04FFFA3E0C43354E04FFFA3E0C433BB
:100736003354C04FFFA3E0C433333354804F90018A
:1007460004F078017C007D017BFF7A0C79D27E0073
:100756007F04120FAB90034EE0900005F090034F1C
:10076600E0900006F0900102E0900007F09001038F
:10077600E0900008F0900104E0900009F07B017A17
:100786000079057D057C001212E5900000EFF090DF
:10079600000AF0780B7C007D017BFF7A0C79D77E0E
:1007A600007F03120FABE490000EF07B017A007914
:1007B600017D0D020901900350E014B418004003B6
:1007C60002088B9007D775F003A4C58325F0C5836F
:1007D6007302081F02082302082702082B02082FAB
:1007E60002083302083B02083F0208430208470298
:1007F600084B02084F02085302085702085B02081A
:100806006302086702086B02086F02087302087722
:1008160002087B02087F020883A2B28062A2B5802A
:100826005EA2EE805AA2B68056A2B78052A2F9E422
:1008360033900101F0A2FA8046A2A08042A2C280B3
:100846003EA2A3803AA2A48036A2A78032A2EC8060
:100856002EA2CC802AA297E433900101F0A2C48094
:100866001EA294801AA2E98016A2E88012A28780AE
:100876000EA286800AA2858006A2848002A283E454
:1008860033900101F078017C007D017BFF7A0C79C1
:10089600D27E007F04120FAB90034EE0900005F06D
:1008A60090034FE0900006F0900350E0900007F0B0
:1008B600900101E0640170089000087411F0800551
:1008C600E4900008F07B017A0079057D047C001233
:1008D60012E5900000EFF0900009F0780A7C007DA8
:1008E600017BFF7A0C79D77E007F03120FABE49071
:1008F600000DF07B017A0079017D0C02179B9002B6
:1009060006E064037039900106E090034EF0900112
:1009160007E090034FF0900108E0900352F07D024B
:100926001212DD900000EFF0900352E0B507109030
:0F093600034EE0246F600504700580001209462F
:01094500228F
:10184E0075926FE4F591759666F59575B218F5B1CA
:10185E0075B403F5B375CA2FF5C975CC8CF5CB7578
:07186E00E209F5E10217CDCC
:101333001200261218CED2ACD2AF12184E1213CC12
:101343001213CA90032BE0640170F87FE87E03FD5B
:10135300FC1213D4D2ED1213CC1200B61213CC121A
:1013630013CA7E007F0D7D007B017A02792B121058
:0C1373007BE4900330F090032BF080C767
:10003E0041032C0041032F004103300041032B00EC
:101454008035E4FFFEFDFC90035BE0F8A3E0F9A314
:10146400E0FAA3E0FBC312102D602490035BE0FCC0
:10147400A3E0FDA3E0FEA3E024FFFFEE34FFFEEDB6
:1014840034FFFDEC34FFFC90035B12103E80C3225A
:10002600759850438E01438E0475D78F75D6FD4360
:030036008E102207
:080003008F993099FDC299228A
:10176800900377EBF0A3EAF0A3E9F0900377E0FBAE
:10177800A3E0FAA3E0F9120FD16017900377A3E46E
:1017880075F001121017A9F0FA120FD1FF12000319
:0317980080D922D3
:030023000210A721
:0B10A700C0E0C083C082C0D075D0083C
:1010B200309904C299C200209803021157C298AF16
:1010C20099900330E0FE242BF582E43402F583EF9D
:1010D200F0EED3940D748094804005900330E4F0D8
:1010E20090022BE064737065A3E06474705FA3E008
:1010F20064617059A3E064727053900330E0D3943A
:101102000474809480404690032FE01460161460AB
:101112002014602924037037EF6465703290032F26
:1011220004F0802BEF646E702690032F7402F0801F
:101132001EEFB4641A90032F7403F08012EFB46FA1
:101142000E90032FE4F090032B04F08002D28C90D7
:051152000330E004F091
:09115700D0D0D082D083D0E03268
:04001E00E4F5A22241
:101494008035E4FFFEFDFC90035FE0F8A3E0F9A3D0
:1014A400E0FAA3E0FBC312102D602490035FE0FC7C
:1014B400A3E0FDA3E0FEA3E024FFFFEE34FFFEED76
:1014C40034FFFDEC34FFFC90035F12103E80C32216
:10137F0090037A74FFF0A374FDF0A374F9F0E49076
:10138F000382F0900382E0FFFD3395E0FCC3ED9400
:10139F0007EC64809480502290037AE0FBA3E0FA7C
:1013AF00A3E0F9EF3395E08F82F583120FEAFF1276
:0A13BF000003900382E004F080C9EF
:0113C9002201
:1016140090037AE4F0A3F0A374F1F0E4900383F070
:10162400900383E0FFC3940774809480501F900359
:101634007AE0FBA3E0FAA3E0F98F82758300120F2E
:0D164400EAFF120003900383E004F080D35E
:011651002276
:1014D4008035E4FFFEFDFC900363E0F8A3E0F9A38C
:1014E400E0FAA3E0FBC312102D6024900363E0FC38
:1014F400A3E0FDA3E0FEA3E024FFFFEE34FFFEED36
:1015040034FFFDEC34FFFC90036312103E80C322D1
:10188C00E4F594F5937592FFF591F5967595FF75C2
:06189C00B2FF75B1FF224E
:101514008035E4FFFEFDFC900367E0F8A3E0F9A347
:10152400E0FAA3E0FBC312102D6024900367E0FCF3
:10153400A3E0FDA3E0FEA3E024FFFFEE34FFFEEDF5
:1015440034FFFDEC34FFFC90036712103E80C3228D
:1018CE00538E7FE4F589758AA0758C15D2A9C28DC9
:0318DE00C28C2297
:03000B000218A236
:1018A200C0E0C083C082C28DC28C900330E4F0D00D
:0618B20082D083D0E03279
:03001B000200667A
:10006600C0E0C083C082C0D090037EE004F070067A
:1000760090037DE004F0C390037EE094F490037D4A
:10008600E094014006E4F0A3F0B280D0D0D082D054
:0400960083D0E03201
:1018E100E4F589758B66758DFCD28ED2ABD2AF22B1
:0300630002168CF6
:10168C00C0E0C083C082C0D053EFFE90037EE00464
:10169C00F0700690037DE004F0C390037EE0942C80
:1016AC0090037DE094014006E4F0A3F0B280D0D02A
:0716BC00D082D083D0E032A0
:0F18F10075D76675D6FC758E1075AF04D2AF2211
:03009B000216C387
:1016C300C0E0C083C082C0D053EFFD90037EE0042E
:1016D300F0700690037DE004F0C390037EE094BCB9
:1016E30090037DE094024006E4F0A3F0B280D0D0F2
:0716F300D082D083D0E03269
:0F19000075D56675D4FC75D10875AF20D2AF22AE
:0300A3000216FA48
:1016FA00C0E0C083C082C0D053EFFB90037EE004F9
:10170A00F0700690037DE004F0C390037EE094E855
:10171A0090037DE094034006E4F0A3F0B280D0D0B9
:07172A00D082D083D0E03231
:0F190F0075D36675D2FC75D18075AF40D2AF220B
:101554008035E4FFFEFDFC90036BE0F8A3E0F9A303
:10156400E0FAA3E0FBC312102D602490036BE0FCAF
:10157400A3E0FDA3E0FEA3E024FFFFEE34FFFEEDB5
:1015840034FFFDEC34FFFC90036B12103E80C32249
:0D000E00E4F59275910175DE2F75BC80221E
:1018B80043BC400000E5BC30E5FB53BCDFAFBDEFE7
:0518C800FEADBEEDFFC6
:0118CD0022F8
:07004E00C18142037F0000A5
:101594008035E4FFFEFDFC90036FE0F8A3E0F9A3BF
:1015A400E0FAA3E0FBC312102D602490036FE0FC6B
:1015B400A3E0FDA3E0FEA3E024FFFFEE34FFFEED75
:1015C40034FFFDEC34FFFC90036F12103E80C32205
:1017FE0075BA8090FFF2E4F090FFF07410F0A3E45D
:10180E00F090FF00F0A3F0A3F0A304F0A37480F017
:09181E00E4F5BA75FEC0D2AF2258
:0300B30002126CCA
:0B126C00C0E0C083C082C0D075D00875
:10127700E5F130E75853F17F30011D900380E0041A
:10128700F0700690037FE004F0C390037FE0648072
:1012970094904023C201801F900380E024FFF090C8
:1012A700037FE034FFF0D3A3E0940190037FE06471
:1012B7008094805002D201C0BA43BA8090037FE085
:0D12C700FFA3E090FF02CFF0A3EFF0D0BA3C
:0912D400D0D0D082D083D0E032EA
:1015D4008035E4FFFEFDFC900373E0F8A3E0F9A37B
:1015E400E0FAA3E0FBC312102D6024900373E0FC27
:1015F400A3E0FDA3E0FEA3E024FFFFEE34FFFEED35
:1016040034FFFDEC34FFFC90037312103E80C322C0
:10173100E4900345F0A312104A0000000090034A10
:1017410012104A0000000090034112104A000000EC
:1017510000E4F5D875D909F5E9F5F975DA21F5EA65
:07176100F5FAD2DED2AF223F
:03003B000211ECC3
:1011EC00C0E0C0F0C083C082C0D075D00830DF082A
:1011FC00C2DF900345E004F030D85AC2D890034ABD
:10120C00E0FCA3E0FDA3E0FEA3E0FF900346121078
:10121C003E90034DE5EAF090034CE5FAF09003455F
:10122C00E090034BF090034AE4F0900346E0F8A3FF
:10123C00E0F9A3E0FAA3E0FBA3E0FCA3E0FDA3E04C
:10124C00FEA3E0C39BFFEE9AFEED99FDEC98FC909B
:10125C00034112103ED0D0D082D083D0F0D0E032F7
:030000000211608A
:0C116000787FE4F6D8FD7581200211A70D
:100EDB00E709F608DFFA8046E709F208DFFA803EF9
:100EEB0088828C83E709F0A3DFFA8032E309F608E6
:100EFB00DFFA8078E309F208DFFA807088828C834E
:100F0B00E309F0A3DFFA806489828A83E0A3F60801
:100F1B00DFFA805889828A83E0A3F208DFFA804CDB
:100F2B0080D280FA80C680D4806980F280338010B2
:100F3B0080A680EA809A80A880DA80E280CA80331B
:100F4B0089828A83ECFAE493A3C8C582C8CCC58393
:100F5B00CCF0A3C8C582C8CCC583CCDFE9DEE78063
:100F6B000D89828A83E493A3F608DFF9ECFAA9F0E2
:100F7B00EDFB2289828A83ECFAE0A3C8C582C8CC38
:100F8B00C583CCF0A3C8C582C8CCC583CCDFEADE51
:100F9B00E880DB89828A83E493A3F208DFF980CCB3
:100FAB0088F0EF60010E4E60C388F0ED2402B404AC
:100FBB000050B9F582EB2402B4040050AF23234553
:060FCB008223900F2B733E
:100FD100BB010689828A83E0225002E722BBFE021E
:090FE100E32289828A83E4932251
:100FEA00BB010CE58229F582E5833AF583E02250BC
:100FFA0006E92582F8E622BBFE06E92582F8E22206
:0D100A00E58229F582E5833AF583E493221F
:10101700A3F8E0C5F025F0F0E5821582700215838C
:06102700E0C838F0E822E9
:10102D00EB9FF5F0EA9E42F0E99D42F0E89C45F019
:01103D002290
:0C103E00ECF0A3EDF0A3EEF0A3EFF02225
:10104A00A8828583F0D083D08212106112106112B7
:10105A001061121061E473E493A3C583C5F0C583DC
:10106A00C8C582C8F0A3C583C5F0C583C8C582C8F0
:01107A002253
:10107B00EF4E6012EF60010EEDBB010B89828A838C
:10108B00F0A3DFFCDEFA2289F05007F709DFFCA999
:0C109B00F022BBFEFCF309DFFCA9F022F0
:10116C00021333E493A3F8E493A34003F68001F253
:10117C0008DFF48029E493A3F85407240CC8C33384
:10118C00C4540F4420C8834004F456800146F6DF53
:10119C00E4800B010204081020408090003EE47EA5
:1011AC00019360BCA3FF543F30E509541FFEE49348
:1011BC00A360010ECF54C025E060A840B8E493A30F
:1011CC00FAE493A3F8E493A3C8C582C8CAC583CA3A
:1011DC00F0A3C8C582C8CAC583CADFE9DEE780BEF2
:0100550000AA
:00000001FF
