:101621008035E4FFFEFDFC900353E0F8A3E0F9A34D
:10163100E0FAA3E0FBC31212176024900353E0FC0D
:10164100A3E0FDA3E0FEA3E024FFFFEE34FFFEEDE7
:1016510034FFFDEC34FFFC90035312122880C322A7
:0D1B2B00007F067E9D7D3BDDFEDEFCDFFAC7
:011B3800228A
:0600560000007F01DFFE47
:01005C002281
:041A3400AD07AC0648
:101A3800E4FBFAC3EB9DEA9C501890000012005694
:101A4800A3E582B4DAF7E583B402F20BBB00010A1E
:021A580080E12B
:011A5A002269
:100EBC007374617200656E64000000000000000035
:100ECC000000000000000000000000000000000016
:100EDC000000000000000000000000000000000006
:100EEC0000000000000000000000000000000000F6
:100EFC0000000000000000000000000000000000E6
:100F0C0000000000000000000000000000000000D5
:100F1C0000000000000000000000000000000000C5
:100F2C0000000000000000000000000000000000B5
:100F3C0000000000000000000000000000000000A5
:100F4C000000000000000000000000000000000095
:100F5C000000000000000000000000000000000085
:100F6C000000000000000000000000000000000075
:100F7C000000000000000000000000000000000065
:100F8C000000000000000000000000000000000055
:100F9C000000000000000000000000000000000045
:100FAC000000000000000000000000000000000035
:100FBC000000000000000000000000000000000025
:100FCC000000000000000000000000000000000015
:100FDC000000000000000000000000000000000005
:100FEC0000000000000000000000000000000000F5
:100FFC0000000000000000000000000000000000E5
:10100C0000000000000000000000000000000000D4
:10101C0000000000000000000000000000000000C4
:10102C0000000000000000000000000000000000B4
:10103C0000000000000000000000000000000000A4
:10104C000000000000000000000000000000000094
:10105C000000000000000000000000000000000084
:10106C000000000000000000000000000000000074
:10107C000000000000000000000000000000000064
:10108C000000000000000000000000000000000054
:10109C000000000000000000000000000000000044
:1010AC000000000000000000000000000000000034
:0910BC000000000000000000002B
:0A15D700C2ED7FE87E037D007C007A
:1015E1008035E4FFFEFDFC900000E0F8A3E0F9A3E4
:1015F100E0FAA3E0FBC31212176024900000E0FCA4
:10160100A3E0FDA3E0FEA3E024FFFFEE34FFFEED27
:1016110034FFFDEC34FFFC90000012122880C3223D
:1019A800900225EBF0A3EAF0A3E9F0A3EDF0900292
:1019B80028E0FF14F0EF6019900225E0FBA3E4751E
:1019C800F001121201A9F0FA1211BBFF12000380F4
:0219D800DD220E
:10185F00900357EBF0A3EAF0A3E9F0A3EDF07FEECE
:10186F00801E90035AE0FF14F0EF6019900357E0C9
:10187F00FBA3E475F001121201A9F0FA1211BBFFDC
:0A188F0012000380DD7FFF0200035A
:101A8200900381EFF07FEE120003900381E0FF12DA
:071A920000037FFF020003C7
:1019DA00C2B3C2B4C2C8C2C9C2C1C2F8C2EFC2FB52
:1019EA00C2A1C2A2C2A5C2A6C2C0C2CDC296C29597
:1019FA00C2EBC2EAC293C292C291C2CBC2CAC2901D
:011A0A0022B9
:100B3000D2B37F647E00121A3430B2077F2C7E015C
:100B4000121A3430B2077F587E02121A34C2B37FB1
:100B5000BC7E02121A34D2B47F647E00121A343082
:100B6000B5077F2C7E01121A3430B5077F587E02FC
:100B7000121A34C2B47FBC7E02121A34D2C87F6407
:100B80007E00121A3430EE077F2C7E01121A3430A8
:100B9000EE077F587E02121A34C2C87FBC7E021252
:100BA0001A34D2C97F647E00121A3430B6077F2C03
:100BB0007E01121A3430B6077F587E02121A34C2F0
:100BC000C97FBC7E02121A34D2C17F647E00121A21
:100BD0003430B7077F2C7E01121A3430B7077F58A4
:100BE0007E02121A34C2C17FBC7E02121A34D2F8BD
:100BF0007F647E00121A3430F9077F2C7E01121AAE
:100C00003430F9077F587E02121A34C2F87FBC7E56
:100C100002121A34D2EF7F647E00121A3430FA07BF
:100C20007F2C7E01121A3430FA077F587E02121A86
:100C300034C2EF7FBC7E02121A34D2FB7F647E0086
:100C4000121A3430A0077F2C7E01121A3430A0070C
:100C50007F587E02121A34C2FB7FBC7E02121A3405
:100C6000D2A17F647E00121A3430C2077F2C7E012D
:100C7000121A3430C2077F587E02121A34C2A17F82
:100C8000BC7E02121A34D2A27F647E00121A343063
:100C9000A3077F2C7E01121A3430A3077F587E02EF
:100CA000121A34C2A27FBC7E02121A34D2A57F640B
:100CB0007E00121A3430A4077F2C7E01121A3430C1
:100CC000A4077F587E02121A34C2A57FBC7E02128E
:100CD0001A34D2A67F647E00121A3430A7077F2C04
:100CE0007E01121A3430A7077F587E02121A34C2CE
:100CF000A67FBC7E02121A34D2C07F647E00121A14
:100D00003430EC077F2C7E01121A3430EC077F5808
:100D10007E02121A34C2C07FBC7E02121A34D2CDB7
:100D20007F647E00121A3430CC077F2C7E01121AA9
:100D30003430CC077F587E02121A34C2CD7FBC7E7D
:100D400002121A34D2967F647E00121A343097074A
:100D50007F2C7E01121A343097077F587E02121AB8
:100D600034C2967FBC7E02121A34D2957F647E0014
:100D7000121A3430C4077F2C7E01121A3430C40793
:100D80007F587E02121A34C2957FBC7E02121A343A
:100D9000D2EB7F647E00121A343094077F2C7E01E0
:100DA000121A343094077F587E02121A34C2EB7F35
:100DB000BC7E02121A34D2EA7F647E00121A3430EA
:100DC000E9077F2C7E01121A3430E9077F587E0232
:100DD000121A34C2EA7FBC7E02121A34D2937F64A4
:100DE0007E00121A3430E8077F2C7E01121A34304C
:100DF000E8077F587E02121A34C2937FBC7E02122B
:100E00001A34D2927F647E00121A343087077F2C06
:100E10007E01121A343087077F587E02121A34C2BC
:100E2000927FBC7E02121A34D2917F647E00121A25
:100E3000343086077F2C7E01121A343086077F58A3
:100E40007E02121A34C2917FBC7E02121A34D2CBB7
:100E50007F647E00121A343085077F2C7E01121ABF
:100E6000343085077F587E02121A34C2CB7FBC7E95
:100E700002121A34D2CA7F647E00121A34308407F8
:100E80007F2C7E01121A343084077F587E02121A9A
:100E900034C2CA7FBC7E02121A34D2907F647E00B4
:100EA000121A343083077F2C7E01121A34308307E4
:0C0EB0007F587E02121A34C2900219DA38
:10145600F090034FE0900006F0900102E090000744
:10146600F0900103E0900008F0900104E09000097C
:0B147600F07D057B017A0079057C0009
:10148100900225EBF0A3EAF0A3E9F0A3ECF0A3EDC1
:01149100F06A
:10149200E4A3F0FDFCD3900229E09D900228E09C99
:1014A200402590022AE0FF900225E0FBA3E0FAA388
:1014B200E0F98D828C831211D4FEEF6E90022AF035
:0C14C2000DBD00010C80CE90022AE0FF5E
:0114CE0022FB
:1000B60078017C007D017BFF7A0E79C57E017F0089
:1000C600121195E4900101F078067C017D017BFF19
:1000D6007A0F79C57E01FF121195E4900206F0A20F
:1000E600B23390020DF0A2B5E433A3F0A2EEE433EE
:1000F600A3F0A2B6E433A3F0A2B7E433A3F0A2F9C7
:10010600E433A3F0A2FAE433A3F0A2A0E433A3F00D
:10011600A2C2E433A3F0A2A3E433A3F0A2A4E4337F
:10012600A3F0A2A7E433A3F0A2ECE433A3F0A2CC9D
:10013600E433A3F0A297E433A3F0A2C4E433A3F01C
:10014600A294E433A3F0A2E9E433A3F0A2E8E433F3
:10015600A3F0A287E433A3F0A286E433A3F0A2853A
:10016600E433A3F0A284E433A3F0A283E433A3F040
:10017600900330E024F8FF900206F07E0078067CBB
:10018600017D017B017A02792F121195A282B3E4D7
:1001960033900207F0A2FCB3E433A3F0A2FDB3E46C
:1001A60033A3F0A2FEB3E433A3F0A2FFB3E433A378
:1001B600F0A2C3B3E433A3F0900208E025E0FF9079
:1001C6000207E04FFF900209E025E025E04FFFA37C
:1001D600E033333354F84FFFA3E0C454F04FFFA38A
:1001E600E0C43354E04FFF900105F0900107E0FEB4
:1001F6006F6003020B2F900206E06405600302089D
:10020600AD900106E090034EF0A3EEF0900108E0F9
:10021600900350F0900109E0900351F090010AE03C
:10022600900352F07B017A0179067D047C0012145A
:1002360081900000EFF0900352E06F6003020B2FF5
:1002460090034EE02480700302066D24F6600302DC
:100256000B2F900351E064116003020B2F900350A3
:10026600E014B41800400302062690027E75F003DF
:10027600A4C58325F0C583730202C60202EA0203FF
:100286000E02033202035602037A02039E0203C2DF
:100296000203E602040A02042E0204520204760253
:1002A600049A0204BE0204E202050602052A0205B9
:1002B6004E0205720205960205B90205DC0205FF2B
:1002C600D2B37F647E00121A3430B2077F2C7E01CF
:1002D600121A3430B2077F587E02121A34C2B3A201
:1002E600B2020620D2B47F647E00121A3430B507FB
:1002F6007F2C7E01121A3430B5077F587E02121AFF
:1003060034C2B4A2B5020620D2C87F647E00121A97
:100316003430EE077F2C7E01121A3430EE077F58F8
:100326007E02121A34C2C8A2EE020620D2C97F6427
:100336007E00121A3430B6077F2C7E01121A343032
:10034600B6077F587E02121A34C2C9A2B602062028
:10035600D2C17F647E00121A3430B7077F2C7E012B
:10036600121A3430B7077F587E02121A34C2C1A25D
:10037600B7020620D2F87F647E00121A3430F907DD
:100386007F2C7E01121A3430F9077F587E02121A2A
:1003960034C2F8A2F9020620D2EF7F647E00121A58
:1003A6003430FA077F2C7E01121A3430FA077F5850
:1003B6007E02121A34C2EFA2FA020620D2FB7F6432
:1003C6007E00121A3430A0077F2C7E01121A3430B8
:1003D600A0077F587E02121A34C2FBA2B50206207D
:1003E600D2A17F647E00121A3430C2077F2C7E01B0
:1003F600121A3430C2077F587E02121A34C2A1A2E2
:10040600C2020620D2A27F647E00121A3430A307ED
:100416007F2C7E01121A3430A3077F587E02121AEF
:1004260034C2A2A2A3020620D2A57F647E00121ABD
:100436003430A4077F2C7E01121A3430A4077F586B
:100446007E02121A34C2A5A2A4020620D2A67F6496
:100456007E00121A3430A7077F2C7E01121A343020
:10046600A7077F587E02121A34C2A6A2A702062048
:10047600D2C07F647E00121A3430EC077F2C7E01D6
:10048600121A3430EC077F587E02121A34C2C0A208
:10049600EC020620D2CD7F647E00121A3430CC07DF
:1004A6007F2C7E01121A3430CC077F587E02121A36
:1004B60034C2CDA2CC020620D2967F647E00121AE8
:1004C600343097077F2C7E01121A343097077F58F5
:1004D6007E02121A34C296A297020620D2957F6433
:1004E6007E00121A3430C4077F2C7E01121A343073
:1004F600C4077F587E02121A34C295A2C40206208F
:10050600D2EB7F647E00121A343094077F2C7E0172
:10051600121A343094077F587E02121A34C2EBA2A4
:1005260094020620D2EA7F647E00121A3430E9076C
:100536007F2C7E01121A3430E9077F587E02121A88
:1005460034C2EAA2E9020620D2937F647E00121A20
:100556003430E8077F2C7E01121A3430E8077F58C2
:100566007E02121A34C293A2E8020620D2927F6457
:100576007E00121A343087077F2C7E01121A34301F
:1005860087077F587E02121A34C292A2870206207B
:10059600D2917F647E00121A343086077F2C7E014A
:1005A600121A343086077F587E02121A34C291A27C
:1005B600868067D2CB7F647E00121A343085077F2F
:1005C6002C7E01121A343085077F587E02121A34A7
:1005D600C2CBA2858044D2CA7F647E00121A343010
:1005E60084077F2C7E01121A343084077F587E02DE
:1005F600121A34C2CAA2848021D2907F647E00126D
:100606001A343083077F2C7E01121A343083077F19
:10061600587E02121A34C290A283E433900101F08C
:100626001219DA78017C007D017BFF7A0E79BC7E97
:10063600007F0412119590034EE0900005F09003A0
:100646004FE0900006F0900350E0900007F0900114
:1006560001E0640170099000087411F002087CE45E
:10066600900008F002087C900351E06433600302B6
:100676000B2F900350E0600302076D90020EE025F9
:10068600E0FF90020DE04FFF90020FE025E025E02D
:100696004FFFA3E033333354F84FFFA3E0C454F0C5
:1006A6004FFFA3E0C43354E04FFFA3E0C4333354F9
:1006B600C04FFFA3E0C433333354804F900102F0A0
:1006C600900216E025E0FF900215E04FFF9002171A
:1006D600E025E025E04FFFA3E033333354F84FFF26
:1006E600A3E0C454F04FFFA3E0C43354E04FFFA38C
:1006F600E0C4333354C04FFFA3E0C43333335480D4
:100706004F900103F090021EE025E0FF90021DE0ED
:100716004FFF90021FE025E025E04FFFA3E03333B3
:100726003354F84FFFA3E0C454F04FFFA3E0C433A3
:1007360054E04FFFA3E0C4333354C04FFFA3E0C4DB
:1007460033333354804F900104F078017C007D01EF
:100756007BFF7A0E79BC7E007F0412119590034EC2
:10076600E09000050209E7900350E014B418004039
:100776000302083C90078875F003A4C58325F0C5DD
:1007860083730207D00207D40207D80207DC0207E8
:10079600E00207E40207EC0207F00207F40207F89A
:1007A6000207FC02080002080402080802080C02FC
:1007B600081402081802081C02082002082402086D
:1007C6002802082C020830020834A2B28062A2B5C0
:1007D600805EA2EE805AA2B68056A2B78052A2F9D7
:1007E600E433900101F0A2FA8046A2A08042A2C2A0
:1007F600803EA2A3803AA2A48036A2A78032A2ECB1
:10080600802EA2CC802AA297E433900101F0A2C4E4
:10081600801EA294801AA2E98016A2E88012A287FE
:10082600800EA286800AA2858006A2848002A28308
:10083600E433900101F078017C007D017BFF7A0EA4
:1008460079BC7E007F0412119590034EE09000055E
:10085600F090034FE0900006F0900350E090000700
:10086600F0900101E0640170089000087411F080B6
:1008760005E4900008F07D04121479900000EFF072
:10088600900009F0780A7C007D017BFF7A0E79C121
:100896007E007F03121195E490000DF07B017A0033
:1008A60079017D0C020B2C900206E06403600302C2
:1008B6000B2F900106E090034EF0900107E09003A5
:1008C6004FF0900108E0900352F07B017A0179061F
:1008D6007D027C00121481900000EFF0900352E03C
:1008E6006F6003020B2F90034EE0246F7003020A21
:1008F60016046003020B2F120B3090020EE025E067
:10090600FF90020DE04FFF90020FE025E025E04F3B
:10091600FFA3E033333354F84FFFA3E0C454F04F42
:10092600FFA3E0C43354E04FFFA3E0C4333354C005
:100936004FFFA3E0C433333354804F900102F0904D
:100946000216E025E0FF900215E04FFF900217E047
:1009560025E025E04FFFA3E033333354F84FFFA3E0
:10096600E0C454F04FFFA3E0C43354E04FFFA3E0CC
:10097600C4333354C04FFFA3E0C433333354804FE2
:10098600900103F090021EE025E0FF90021DE04F6B
:10099600FF90021FE025E025E04FFFA3E03333334D
:1009A60054F84FFFA3E0C454F04FFFA3E0C4335400
:1009B600E04FFFA3E0C4333354C04FFFA3E0C4337A
:1009C600333354804F900104F078017C007D017B25
:1009D600FF7A0E79BC7E007F041211959000057493
:1009E60080121456900000EFF090000AF0780B7C0D
:1009F600007D017BFF7A0E79C17E007F031211957F
:100A0600E490000EF07B017A0079017D0D020B2C3B
:100A1600120B3090020EE025E0FF90020DE04FFF32
:100A260090020FE025E025E04FFFA3E03333335477
:100A3600F84FFFA3E0C454F04FFFA3E0C43354E0E3
:100A46004FFFA3E0C4333354C04FFFA3E0C4333396
:100A56003354804F900102F0900216E025E0FF909B
:100A66000215E04FFF900217E025E025E04FFFA3B7
:100A7600E033333354F84FFFA3E0C454F04FFFA3E1
:100A8600E0C43354E04FFFA3E0C4333354C04FFFF8
:100A9600A3E0C433333354804F900103F090021E19
:100AA600E025E0FF90021DE04FFF90021FE025E0E9
:100AB60025E04FFFA3E033333354F84FFFA3E0C4E0
:100AC60054F04FFFA3E0C43354E04FFFA3E0C43318
:100AD6003354C04FFFA3E0C433333354804F9001E7
:100AE60004F078017C007D017BFF7A0E79BC7E00E4
:100AF6007F04121195900005748012145690000020
:100B0600EFF090000AF0780B7C007D017BFF7A0EF7
:100B160079C17E007F03121195E490000EF07B01EF
:090B26007A0079017D0D1219A875
:010B2F0022A3
:101A5B0075926FE4F591759666F59575B218F5B1BB
:101A6B0075B403F5B375CA2FF5C975CC8CF5CB7569
:071A7B00E209F5E10219DAAE
:10154000120026121ADBD2ACD2AF121A5B1215D9D6
:101550001215D790032BE0640170F87FE87E03FD3D
:10156000FC1215E1D2ED1215D91200B61215D912DE
:1015700015D77E007F0D7D007B017A02792B121238
:0C15800065E4900330F090032BF080C76E
:10003E0041032C0041032F004103300041032B00EC
:101661008035E4FFFEFDFC90035BE0F8A3E0F9A305
:10167100E0FAA3E0FBC3121217602490035BE0FCC5
:10168100A3E0FDA3E0FEA3E024FFFFEE34FFFEEDA7
:1016910034FFFDEC34FFFC90035B12122880C3225F
:10002600759850438E01438E0475D78F75D6FD4360
:030036008E102207
:080003008F993099FDC299228A
:10197500900377EBF0A3EAF0A3E9F0900377E0FB9F
:10198500A3E0FAA3E0F91211BB6017900377A3E473
:1019950075F001121201A9F0FA1211BBFF12000332
:0319A50080D922C4
:0300230002129135
:0B129100C0E0C083C082C0D075D00850
:10129C00309904C299C200209803021341C298AF3E
:1012AC0099900330E0FE242BF582E43402F583EFB1
:1012BC00F0EED3940D748094804005900330E4F0EC
:1012CC0090022BE064737065A3E06474705FA3E01C
:1012DC0064617059A3E064727053900330E0D3944E
:1012EC000474809480404690032FE01460161460C0
:1012FC002014602924037037EF6465703290032F3B
:10130C0004F0802BEF646E702690032F7402F08033
:10131C001EEFB4641A90032F7403F08012EFB46FB5
:10132C000E90032FE4F090032B04F08002D28C90EB
:05133C000330E004F0A5
:09134100D0D0D082D083D0E0327C
:04001E00E4F5A22241
:1016A1008035E4FFFEFDFC90035FE0F8A3E0F9A3C1
:1016B100E0FAA3E0FBC3121217602490035FE0FC81
:1016C100A3E0FDA3E0FEA3E024FFFFEE34FFFEED67
:1016D10034FFFDEC34FFFC90035F12122880C3221B
:10158C0090037A74FFF0A374FDF0A374F9F0E49067
:10159C000382F0900382E0FFFD3395E0FCC3ED94F1
:1015AC0007EC64809480502290037AE0FBA3E0FA6D
:1015BC00A3E0F9EF3395E08F82F5831211D4FF127B
:0A15CC000003900382E004F080C9E0
:0115D60022F2
:1018210090037AE4F0A3F0A374F1F0E4900383F061
:10183100900383E0FFC3940774809480501F90034A
:101841007AE0FBA3E0FAA3E0F98F8275830012111D
:0D185100D4FF120003900383E004F080D365
:01185E002267
:1016E1008035E4FFFEFDFC900363E0F8A3E0F9A37D
:1016F100E0FAA3E0FBC31212176024900363E0FC3D
:10170100A3E0FDA3E0FEA3E024FFFFEE34FFFEED26
:1017110034FFFDEC34FFFC90036312122880C322D6
:101A9900E4F594F5937592FFF591F5967595FF75B3
:061AA900B2FF75B1FF223F
:101721008035E4FFFEFDFC900367E0F8A3E0F9A338
:10173100E0FAA3E0FBC31212176024900367E0FCF8
:10174100A3E0FDA3E0FEA3E024FFFFEE34FFFEEDE6
:1017510034FFFDEC34FFFC90036712122880C32292
:101ADB00538E7FE4F589758AA0758C15D2A9C28DBA
:031AEB00C28C2288
:03000B00021AAF27
:101AAF00C0E0C083C082C28DC28C900330E4F0D0FE
:061ABF0082D083D0E0326A
:03001B000200667A
:10006600C0E0C083C082C0D090037EE004F070067A
:1000760090037DE004F0C390037EE094F490037D4A
:10008600E094014006E4F0A3F0B280D0D0D082D054
:0400960083D0E03201
:101AEE00E4F589758B66758DFCD28ED2ABD2AF22A2
:03006300021899E7
:10189900C0E0C083C082C0D053EFFE90037EE00455
:1018A900F0700690037DE004F0C390037EE0942C71
:1018B90090037DE094014006E4F0A3F0B280D0D01B
:0718C900D082D083D0E03291
:0F1AFE0075D76675D6FC758E1075AF04D2AF2202
:03009B000218D078
:1018D000C0E0C083C082C0D053EFFD90037EE0041F
:1018E000F0700690037DE004F0C390037EE094BCAA
:1018F00090037DE094024006E4F0A3F0B280D0D0E3
:07190000D082D083D0E03259
:0F1B0D0075D56675D4FC75D10875AF20D2AF229F
:0300A30002190738
:10190700C0E0C083C082C0D053EFFB90037EE004E9
:10191700F0700690037DE004F0C390037EE094E846
:1019270090037DE094034006E4F0A3F0B280D0D0AA
:07193700D082D083D0E03222
:0F1B1C0075D36675D2FC75D18075AF40D2AF22FC
:101761008035E4FFFEFDFC90036BE0F8A3E0F9A3F4
:10177100E0FAA3E0FBC3121217602490036BE0FCB4
:10178100A3E0FDA3E0FEA3E024FFFFEE34FFFEEDA6
:1017910034FFFDEC34FFFC90036B12122880C3224E
:0D000E00E4F59275910175DE2F75BC80221E
:101AC50043BC400000E5BC30E5FB53BCDFAFBDEFD8
:051AD500FEADBEEDFFB7
:011ADA0022E9
:07004E00C18142037F0000A5
:1017A1008035E4FFFEFDFC90036FE0F8A3E0F9A3B0
:1017B100E0FAA3E0FBC3121217602490036FE0FC70
:1017C100A3E0FDA3E0FEA3E024FFFFEE34FFFEED66
:1017D10034FFFDEC34FFFC90036F12122880C3220A
:101A0B0075BA8090FFF2E4F090FFF07410F0A3E44D
:101A1B00F090FF00F0A3F0A3F0A304F0A37480F008
:091A2B00E4F5BA75FEC0D2AF2249
:0300B3000214CF65
:0B14CF00C0E0C083C082C0D075D00810
:1014DA00E5F130E75853F17F30011D900380E004B5
:1014EA00F0700690037FE004F0C390037FE064800D
:1014FA0094904023C201801F900380E024FFF09063
:10150A00037FE034FFF0D3A3E0940190037FE0640B
:10151A008094805002D201C0BA43BA8090037FE01F
:0D152A00FFA3E090FF02CFF0A3EFF0D0BAD6
:09153700D0D0D082D083D0E03284
:1017E1008035E4FFFEFDFC900373E0F8A3E0F9A36C
:1017F100E0FAA3E0FBC31212176024900373E0FC2C
:10180100A3E0FDA3E0FEA3E024FFFFEE34FFFEED25
:1018110034FFFDEC34FFFC90037312122880C322C5
:10193E00E4900345F0A31212340000000090034A15
:10194E001212340000000090034112123400000005
:10195E0000E4F5D875D909F5E9F5F975DA21F5EA56
:07196E00F5FAD2DED2AF2230
:03003B000213D6D7
:1013D600C0E0C0F0C083C082C0D075D00830DF083E
:1013E600C2DF900345E004F030D85AC2D890034AD1
:1013F600E0FCA3E0FDA3E0FEA3E0FF90034612128B
:101406002890034DE5EAF090034CE5FAF090034589
:10141600E090034BF090034AE4F0900346E0F8A313
:10142600E0F9A3E0FAA3E0FBA3E0FCA3E0FDA3E060
:10143600FEA3E0C39BFFEE9AFEED99FDEC98FC90AF
:101446000341121228D0D0D082D083D0F0D0E0321F
:0300000002134A9E
:0C134A00787FE4F6D8FD75812002139135
:1010C500E709F608DFFA8046E709F208DFFA803E0D
:1010D50088828C83E709F0A3DFFA8032E309F608FA
:1010E500DFFA8078E309F208DFFA807088828C8362
:1010F500E309F0A3DFFA806489828A83E0A3F60816
:10110500DFFA805889828A83E0A3F208DFFA804CEF
:1011150080D280FA80C680D4806980F280338010C6
:1011250080A680EA809A80A880DA80E280CA80332F
:1011350089828A83ECFAE493A3C8C582C8CCC583A7
:10114500CCF0A3C8C582C8CCC583CCDFE9DEE78077
:101155000D89828A83E493A3F608DFF9ECFAA9F0F6
:10116500EDFB2289828A83ECFAE0A3C8C582C8CC4C
:10117500C583CCF0A3C8C582C8CCC583CCDFEADE65
:10118500E880DB89828A83E493A3F208DFF980CCC7
:1011950088F0EF60010E4E60C388F0ED2402B404C0
:1011A5000050B9F582EB2402B4040050AF23234567
:0611B50082239011157366
:1011BB00BB010689828A83E0225002E722BBFE0232
:0911CB00E32289828A83E4932265
:1011D400BB010CE58229F582E5833AF583E02250D0
:1011E40006E92582F8E622BBFE06E92582F8E2221A
:0D11F400E58229F582E5833AF583E4932234
:10120100A3F8E0C5F025F0F0E582158270021583A0
:06121100E0C838F0E822FD
:10121700EB9FF5F0EA9E42F0E99D42F0E89C45F02D
:0112270022A4
:0C122800ECF0A3EDF0A3EEF0A3EFF02239
:10123400A8828583F0D083D08212124B12124B12F3
:10124400124B12124BE473E493A3C583C5F0C58318
:10125400C8C582C8F0A3C583C5F0C583C8C582C804
:011264002267
:10126500EF4E6012EF60010EEDBB010B89828A83A0
:10127500F0A3DFFCDEFA2289F05007F709DFFCA9AD
:0C128500F022BBFEFCF309DFFCA9F02204
:10135600021540E493A3F8E493A34003F68001F258
:1013660008DFF48029E493A3F85407240CC8C33398
:10137600C4540F4420C8834004F456800146F6DF67
:10138600E4800B010204081020408090003EE47EB9
:10139600019360BCA3FF543F30E509541FFEE4935C
:1013A600A360010ECF54C025E060A840B8E493A323
:1013B600FAE493A3F8E493A3C8C582C8CAC583CA4E
:1013C600F0A3C8C582C8CAC583CADFE9DEE780BE06
:0100550000AA
:00000001FF
