:101749008035E4FFFEFDFC900357E0F8A3E0F9A320
:10175900E0FAA3E0FBC31210D06024900357E0FC29
:10176900A3E0FDA3E0FEA3E024FFFFEE34FFFEEDBE
:1017790034FFFDEC34FFFC9003571210E180C322C3
:0D1C2300007F067E9D7D3BDDFEDEFCDFFACE
:011C30002291
:0600560000007F01DFFE47
:01005C002281
:041B2900AD07AC0652
:101B2D00E4FBFAC3EB9DEA9C50189000001200569E
:101B3D00A3E582B4DAF7E583B402F20BBB00010A28
:021B4D0080E135
:011B4F002273
:10114A007374617200656E640000000000000000A4
:10115A000000000000000000000000000000000085
:10116A000000000000000000000000000000000075
:10117A000000000000000000000000000000000065
:10118A000000000000000000000000000000000055
:10119A000000000000000000000000000000000045
:1011AA000000000000000000000000000000000035
:1011BA000000000000000000000000000000000025
:1011CA000000000000000000000000000000000015
:1011DA000000000000000000000000000000000005
:1011EA0000000000000000000000000000000000F5
:1011FA0000000000000000000000000000000000E5
:10120A0000000000000000000000000000000000D4
:10121A0000000000000000000000000000000000C4
:10122A0000000000000000000000000000000000B4
:10123A0000000000000000000000000000000000A4
:10124A000000000000000000000000000000000094
:10125A000000000000000000000000000000000084
:10126A000000000000000000000000000000000074
:10127A000000000000000000000000000000000064
:10128A000000000000000000000000000000000054
:10129A000000000000000000000000000000000044
:1012AA000000000000000000000000000000000034
:1012BA000000000000000000000000000000000024
:1012CA000000000000000000000000000000000014
:1012DA000000000000000000000000000000000004
:1012EA0000000000000000000000000000000000F4
:1012FA0000000000000000000000000000000000E4
:10130A0000000000000000000000000000000000D3
:10131A0000000000000000000000000000000000C3
:10132A0000000000000000000000000000000000B3
:10133A0000000000000000000000000000000000A3
:09134A000000000000000000009A
:0A16FF00C2ED7FE87E037D007C0051
:101709008035E4FFFEFDFC900004E0F8A3E0F9A3B6
:10171900E0FAA3E0FBC31210D06024900004E0FCBF
:10172900A3E0FDA3E0FEA3E024FFFFEE34FFFEEDFE
:1017390034FFFDEC34FFFC9000041210E180C32259
:101A9D00900229EBF0A3EAF0A3E9F0A3EDF0900298
:101AAD002CE0FF14F0EF6019900229E0FBA3E47520
:101ABD00F001120FECA9F0FA120FA6FF120003802D
:021ACD00DD2218
:1019870090035BEBF0A3EAF0A3E9F0A3EDF07FEEA1
:10199700801E90035EE0FF14F0EF601990035BE098
:1019A700FBA3E475F001120FECA9F0FA120FA6FFE2
:0A19B70012000380DD7FFF02000331
:101B7700900385EFF07FEE120003900385E0FF12DC
:071B870000037FFF020003D1
:101ACF00C290C2CAC2CBC291C292C293C2EAC2EB47
:101ADF00C295C296C2CDC2C0C2A6C2A5C2A2C2A1A1
:101AEF00C2FBC2EFC2F8C2C1C2C9C2C8C2B4C2B33C
:011AFF0022C4
:100AF800D2907F647E00121B293083077F2C7E01F1
:100B0800121B293083077F587E02121B29C2907F4F
:100B1800F47E01121B29D2CA7F647E00121B293081
:100B280084077F2C7E01121B293084077F587E02A0
:100B3800121B29C2CA7FF47E01121B29B280D2CBB4
:100B48007F647E00121B293085077F2C7E01121BD3
:100B5800293085077F587E02121B29C2CB7FF47E7D
:100B680001121B29B280D2917F647E00121B2930AA
:100B780086077F2C7E01121B293086077F587E024C
:100B8800121B29C2917FF47E01121B29B280D292D6
:100B98007F647E00121B293087077F2C7E01121B81
:100BA800293087077F587E02121B29C2927FF47E64
:100BB80001121B29B280D2937F647E00121B293058
:100BC800E8077F2C7E01121B2930E8077F587E0238
:100BD800121B29C2937FF47E01121B29B280D2EA2C
:100BE8007F647E00121B2930E9077F2C7E01121BCF
:100BF8002930E9077F587E02121B29C2EA7FF47E5A
:100C080001121B29B280D2EB7F647E00121B2930AF
:100C180094077F2C7E01121B293094077F587E028F
:100C2800121B29C2EB7FF47E01121B29B280D295D8
:100C38007F647E00121B2930C4077F2C7E01121BA3
:100C48002930C4077F587E02121B29C2957FF47E83
:100C580001121B29B280D2967F647E00121B2930B4
:100C680097077F2C7E01121B293097077F587E0239
:100C7800121B29C2967FF47E01121B29B280D2CDA5
:100C88007F647E00121B2930CC077F2C7E01121B4B
:100C98002930CC077F587E02121B29C2CD7FF47EF3
:100CA80001121B29B280D2C07F647E00121B29303A
:100CB800EC077F2C7E01121B2930EC077F587E023F
:100CC800121B29C2C07FF47E01121B29B280D2A652
:100CD8007F647E00121B2930A7077F2C7E01121B20
:100CE8002930A7077F587E02121B29C2A67FF47EEF
:100CF80001121B29B280D2A57F647E00121B293005
:100D0800A4077F2C7E01121B2930A4077F587E027E
:100D1800121B29C2A57FF47E01121B29B280D2A220
:100D28007F647E00121B2930A3077F2C7E01121BD3
:100D38002930A3077F587E02121B29C2A27FF47EA6
:100D480001121B29B280D2A17F647E00121B2930B8
:100D5800C2077F2C7E01121B2930C2077F587E02F2
:100D6800121B29C2A17FF47E01121B29B280D2FB7B
:100D78007F647E00121B2930A0077F2C7E01121B86
:100D88002930A0077F587E02121B29C2FB7FF47E00
:100D980001121B29B280D2EF7F647E00121B29301A
:100DA800FA077F2C7E01121B2930FA077F587E0232
:100DB800121B29C2EF7FF47E01121B29B280D2F8E0
:100DC8007F647E00121B2930F9077F2C7E01121BDD
:100DD8002930F9077F587E02121B29C2F87FF47E5A
:100DE80001121B29B280D2C17F647E00121B2930F8
:100DF800B7077F2C7E01121B2930B7077F587E0268
:100E0800121B29C2C17FF47E01121B29B280D2C9EC
:100E18007F647E00121B2930B6077F2C7E01121BCF
:100E28002930B6077F587E02121B29C2C97FF47E7B
:100E380001121B29B280D2C87F647E00121B2930A0
:100E4800EE077F2C7E01121B2930EE077F587E02A9
:100E5800121B29C2C87FF47E01121B29B280D2B4AA
:100E68007F647E00121B2930B5077F2C7E01121B80
:100E78002930B5077F587E02121B29C2B47FF47E41
:100E880001121B29B280D2B37F647E00121B293065
:100E9800B2077F2C7E01121B2930B2077F587E02D1
:080EA800121B29C2B3021ACF8C
:1015CA00F0900353E090000AF0900106E090000BBF
:1015DA00F0900107E090000CF0900108E090000DF7
:0B15EA00F07D057B017A0079097C0090
:1015F500900229EBF0A3EAF0A3E9F0A3ECF0A3ED48
:01160500F0F4
:10160600E4A3F0FDFCD390022DE09D90022CE09C1B
:10161600402590022EE0FF900229E0FBA3E0FAA30A
:10162600E0F98D828C83120FBFFEEF6E90022EF0D2
:0C1636000DBD00010C80CE90022EE0FFE4
:011642002285
:1000B60078057C007D017BFF7A1179537E017F00F4
:1000C600120F80E4900105F0780A7C017D017BFF28
:1000D6007A1279537E01FF120F80E490020AF0A291
:1000E6008333900211F0A284E433A3F0A285E433B3
:1000F600A3F0A286E433A3F0A287E433A3F0A2E838
:10010600E433A3F0A2E9E433A3F0A294E433A3F02A
:10011600A2C4E433A3F0A297E433A3F0A2CCE43361
:10012600A3F0A2ECE433A3F0A2A7E433A3F0A2A4C5
:10013600E433A3F0A2A3E433A3F0A2C2E433A3F012
:10014600A2A0E433A3F0A2FAE433A3F0A2F9E433C5
:10015600A3F0A2B7E433A3F0A2B6E433A3F0A2EE71
:10016600E433A3F0A2B5E433A3F0A2B2E433A3F0E0
:10017600900334E024F8FF90020AF07E00780A7CAF
:10018600017D017B017A027933120F80A282B3E4EA
:100196003390020BF0A2FCB3E433A3F0A2FDB3E468
:1001A60033A3F0A2FEB3E433A3F0A2FFB3E433A378
:1001B600F0A2C3B3E433A3F090020CE025E0FF9075
:1001C600020BE04FFF90020DE025E025E04FFFA374
:1001D600E033333354F84FFFA3E0C454F04FFFA38A
:1001E600E0C43354E04FFF900109F090010BE0FEAC
:1001F6006F6003020AF790020AE0640560030208D2
:100206009190010AE0900352F0A3EEF090010CE009
:10021600900354F090010DE0900355F090010EE02C
:10022600900356F07B017A01790A7D047C00121551
:10023600F5900004EFF0900356E06F6003020AF7B2
:10024600900352E02480700302066D24F6600302D8
:100256000AF7900355E064116003020AF79003540D
:10026600E014B41800400302062690027E75F003DF
:10027600A4C58325F0C583730202C60202EA0203FF
:100286000E02033202035602037A02039E0203C2DF
:100296000203E602040A02042E0204520204760253
:1002A600049A0204BE0204E202050602052A0205B9
:1002B6004E0205720205960205B90205DC0205FF2B
:1002C600D2907F647E00121B293083077F2C7E012B
:1002D600121B293083077F587E02121B29C290A267
:1002E60083020620D2CA7F647E00121B293084074F
:1002F6007F2C7E01121B293084077F587E02121B39
:1003060029C2CAA284020620D2CB7F647E00121BB9
:10031600293085077F2C7E01121B293085077F58DF
:100326007E02121B29C2CBA285020620D2917F64CF
:100336007E00121B293086077F2C7E01121B293076
:1003460086077F587E02121B29C291A286020620CA
:10035600D2927F647E00121B293087077F2C7E0194
:10036600121B293087077F587E02121B29C292A2D0
:1003760087020620D2937F647E00121B2930E8078D
:100386007F2C7E01121B2930E8077F587E02121B44
:1003960029C293A2E8020620D2EA7F647E00121BDD
:1003A6002930E9077F2C7E01121B2930E9077F5887
:1003B6007E02121B29C2EAA2E9020620D2EB7F6462
:1003C6007E00121B293094077F2C7E01121B2930D8
:1003D60094077F587E02121B29C2EBA284020620D4
:1003E600D2957F647E00121B2930C4077F2C7E01C4
:1003F600121B2930C4077F587E02121B29C295A200
:10040600C4020620D2967F647E00121B293097070D
:100416007F2C7E01121B293097077F587E02121B04
:1004260029C296A297020620D2CD7F647E00121BB7
:100436002930CC077F2C7E01121B2930CC077F5830
:100446007E02121B29C2CDA2CC020620D2C07F6436
:100456007E00121B2930EC077F2C7E01121B2930EF
:10046600EC077F587E02121B29C2C0A2EC020620AE
:10047600D2A67F647E00121B2930A7077F2C7E013F
:10048600121B2930A7077F587E02121B29C2A6A27B
:10049600A7020620D2A57F647E00121B2930A4077E
:1004A6007F2C7E01121B2930A4077F587E02121B67
:1004B60029C2A5A2A4020620D2A27F647E00121B36
:1004C6002930A3077F2C7E01121B2930A3077F58F2
:1004D6007E02121B29C2A2A2A3020620D2A17F6419
:1004E6007E00121B2930C2077F2C7E01121B293089
:1004F600C2077F587E02121B29C2A1A2C202062091
:10050600D2FB7F647E00121B2930A0077F2C7E0160
:10051600121B2930A0077F587E02121B29C2FBA29C
:10052600A0020620D2EF7F647E00121B2930FA0754
:100536007F2C7E01121B2930FA077F587E02121B80
:1005460029C2EFA2FA020620D2F87F647E00121BAF
:100556002930F9077F2C7E01121B2930F9077F58B5
:100566007E02121B29C2F8A2F9020620D2C17F64BC
:100576007E00121B2930B7077F2C7E01121B293003
:10058600B7077F587E02121B29C2C1A2B7020620F6
:10059600D2C97F647E00121B2930B6077F2C7E01EC
:1005A600121B2930B6077F587E02121B29C2C9A228
:1005B600B68067D2C87F647E00121B2930EE077FA3
:1005C6002C7E01121B2930EE077F587E02121B2952
:1005D600C2C8A2EE8044D2B47F647E00121B2930CA
:1005E600B5077F2C7E01121B2930B5077F587E0286
:1005F600121B29C2B4A2B58021D2B37F647E001239
:100606001B2930B2077F2C7E01121B2930B2077FCF
:10061600587E02121B29C2B3A2B2E433900105F040
:10062600121ACF78057C007D017BFF7A11794A7E0C
:10063600007F04120F80900352E0900009F09003AF
:1006460053E090000AF0900354E090000BF0900104
:1006560005E06401700990000C7411F002087CE456
:1006660090000CF002087C900355E06433600302AE
:100676000AF7900354E0600302076D900212E0252A
:10068600E0FF900211E04FFF900213E025E025E025
:100696004FFFA3E033333354F84FFFA3E0C454F0C5
:1006A6004FFFA3E0C43354E04FFFA3E0C4333354F9
:1006B600C04FFFA3E0C433333354804F900106F09C
:1006C60090021AE025E0FF900219E04FFF90021B0E
:1006D600E025E025E04FFFA3E033333354F84FFF26
:1006E600A3E0C454F04FFFA3E0C43354E04FFFA38C
:1006F600E0C4333354C04FFFA3E0C43333335480D4
:100706004F900107F0900222E025E0FF900221E0E1
:100716004FFF900223E025E025E04FFFA3E03333AF
:100726003354F84FFFA3E0C454F04FFFA3E0C433A3
:1007360054E04FFFA3E0C4333354C04FFFA3E0C4DB
:1007460033333354804F900108F078057C007D01E7
:100756007BFF7A11794A7E007F04120F8090035244
:10076600E09000090209CB900354E014B41800404D
:100776000302083C90078875F003A4C58325F0C5DD
:1007860083730207D00207D40207D80207DC0207E8
:10079600E00207E40207EC0207F00207F40207F89A
:1007A6000207FC02080002080402080802080C02FC
:1007B600081402081802081C02082002082402086D
:1007C6002802082C020830020834A2838062A28420
:1007D600805EA285805AA2868056A2878052A2E8B1
:1007E600E433900105F0A2E98046A2948042A2C4B7
:1007F600803EA297803AA2CC8036A2EC8032A2A795
:10080600802EA2A4802AA2A3E433900105F0A2C2FE
:10081600801EA2A0801AA2FA8016A2F98012A2B7A0
:10082600800EA2B6800AA2EE8006A2B58002A2B20F
:10083600E433900105F078057C007D017BFF7A1199
:10084600794A7E007F04120F80900352E0900009DF
:10085600F0900353E090000AF0900354E090000BF0
:10086600F0900105E06401700890000C7411F080AE
:1008760005E490000CF07D041215ED900004EFF0F5
:1008860090000DF0780E7C00020AD890020AE0640F
:10089600036003020AF790010AE0900352F0900108
:1008A6000BE0900353F090010CE0900356F07B01AF
:1008B6007A01790A7D027C001215F5900004EFF0AA
:1008C600900356E06F6003020AF7900352E0246F2C
:1008D60070030209DE046003020AF7120AF89002A6
:1008E60012E025E0FF900211E04FFF900213E02591
:1008F600E025E04FFFA3E033333354F84FFFA3E086
:10090600C454F04FFFA3E0C43354E04FFFA3E0C448
:10091600333354C04FFFA3E0C433333354804F9076
:100926000106F090021AE025E0FF900219E04FFF61
:1009360090021BE025E025E04FFFA3E0333333545C
:10094600F84FFFA3E0C454F04FFFA3E0C43354E0D4
:100956004FFFA3E0C4333354C04FFFA3E0C4333387
:100966003354804F900107F0900222E025E0FF907B
:100976000221E04FFF900223E025E025E04FFFA390
:10098600E033333354F84FFFA3E0C454F04FFFA3D2
:10099600E0C43354E04FFFA3E0C4333354C04FFFE9
:1009A600A3E0C433333354804F900108F078057CBC
:1009B600007D017BFF7A11794A7E007F04120F8049
:1009C60090000974801215CA900004EFF090000E92
:1009D600F0780F7C00020AD8120AF8900212E0257D
:1009E600E0FF900211E04FFF900213E025E025E0C2
:1009F6004FFFA3E033333354F84FFFA3E0C454F062
:100A06004FFFA3E0C43354E04FFFA3E0C433335495
:100A1600C04FFFA3E0C433333354804F900106F038
:100A260090021AE025E0FF900219E04FFF90021BAA
:100A3600E025E025E04FFFA3E033333354F84FFFC2
:100A4600A3E0C454F04FFFA3E0C43354E04FFFA328
:100A5600E0C4333354C04FFFA3E0C4333333548070
:100A66004F900107F0900222E025E0FF900221E07E
:100A76004FFF900223E025E025E04FFFA3E033334C
:100A86003354F84FFFA3E0C454F04FFFA3E0C43340
:100A960054E04FFFA3E0C4333354C04FFFA3E0C478
:100AA60033333354804F900108F078057C007D0184
:100AB6007BFF7A11794A7E007F04120F809000092D
:100AC60074801215CA900004EFF090000EF0780FB3
:100AD6007C007D017BFF7A11794F7E007F03120F28
:100AE60080E4900011F07B017A0079057D0C121AE2
:010AF6009D62
:010AF70022DC
:101B500075926FE4F591759666F59575B218F5B1C5
:101B600075B403F5B375CA2FF5C975CC8CF5CB7573
:071B7000E209F5E1021ACFC2
:10140C009000001210ED00000000120026121BD0FC
:10141C00D2ACD2AF121B501217011216FF90032F31
:10142C00E06401702F7FE87E03FDFC121709D2EDFA
:10143C001217011200B61217011216FF7E007F0D53
:10144C007D007B017A02792F12111EE4900334F097
:10145C0090032FF0900000E0FCA3E0FDA3E0FEA3BE
:10146C00E02401FFE43EFEE43DFDE43CFC90000082
:10147C001210E1E47BE87A03F9F8900000E0FCA399
:10148C00E0FDA3E0FEA3E0FF12103EAC00AD01AE08
:10149C0002AF03E4FBFAF9F8C31210D0700AC28051
:1014AC007F32FE121B29D2807F057E00121B29027F
:0214BC001429F1
:10003E0041033000410333004103340041032F00DC
:101789008035E4FFFEFDFC90035FE0F8A3E0F9A3D8
:10179900E0FAA3E0FBC31210D0602490035FE0FCE1
:1017A900A3E0FDA3E0FEA3E024FFFFEE34FFFEED7E
:1017B90034FFFDEC34FFFC90035F1210E180C3227B
:10002600759850438E01438E0475D78F75D6FD4360
:030036008E102207
:080003008F993099FDC299228A
:1000660090037BEBF0A3EAF0A3E9F090037BE0FBBF
:10007600A3E0FAA3E0F9120FA6601790037BA3E4AE
:1000860075F001120FECA9F0FA120FA6FF12000389
:0300960080D922EC
:0300230002135372
:0B135300C0E0C083C082C0D075D0088D
:10135E00309904C299C200209803021403C298AFB8
:10136E0099900334E0FE242FF582E43402F583EFE6
:10137E00F0EED3940D748094804005900334E4F025
:10138E0090022FE064737065A3E06474705FA3E055
:10139E0064617059A3E064727053900334E0D39487
:1013AE0004748094804046900333E01460161460F9
:1013BE002014602924037037EF6465703290033374
:1013CE0004F0802BEF646E70269003337402F0806D
:1013DE001EEFB4641A9003337403F08012EFB46FEF
:1013EE000E900333E4F090032F04F08002D28C9021
:0513FE000334E004F0DF
:09140300D0D0D082D083D0E032B9
:04005D00E4F5A22202
:1017C9008035E4FFFEFDFC900363E0F8A3E0F9A394
:1017D900E0FAA3E0FBC31210D06024900363E0FC9D
:1017E900A3E0FDA3E0FEA3E024FFFFEE34FFFEED3E
:1017F90034FFFDEC34FFFC9003631210E180C32237
:1016B40090037E74FFF0A374FDF0A374F9F0E4903A
:1016C4000386F0900386E0FFFD3395E0FCC3ED94C0
:1016D40007EC64809480502290037EE0FBA3E0FA40
:1016E400A3E0F9EF3395E08F82F583120FBFFF1269
:0A16F4000003900386E004F080C9B3
:0116FE0022C9
:1019490090037EE4F0A3F0A374F1F0E4900387F030
:10195900900387E0FFC3940774809480501F90031D
:101969007EE0FBA3E0FAA3E0F98F82758300120FF2
:0D197900BFFF120003900387E004F080D34D
:01198600223E
:101809008035E4FFFEFDFC900367E0F8A3E0F9A34F
:10181900E0FAA3E0FBC31210D06024900367E0FC58
:10182900A3E0FDA3E0FEA3E024FFFFEE34FFFEEDFD
:1018390034FFFDEC34FFFC9003671210E180C322F2
:101B8E00E4F594F5937592FFF591F5967595FF75BD
:061B9E00B2FF75B1FF2249
:101849008035E4FFFEFDFC90036BE0F8A3E0F9A30B
:10185900E0FAA3E0FBC31210D0602490036BE0FC14
:10186900A3E0FDA3E0FEA3E024FFFFEE34FFFEEDBD
:1018790034FFFDEC34FFFC90036B1210E180C322AE
:101BD000538E7FE4F589758AA0758C15D2A9C28DC4
:031BE000C28C2292
:03000B00021BA431
:101BA400C0E0C083C082C28DC28C900334E4F0D004
:061BB40082D083D0E03274
:03001B0002001EC2
:05001E00C28FC28E320A
:101BE300538EBFE4F589758BE5758DBED2ABC28F7D
:031BF300C28E227D
:030063000219C1BE
:1019C100C0E0C083C082C0D053EFFE900382E00428
:1019D100F07006900381E004F0C3900382E0942C40
:1019E100900381E094014006E4F0A3F0B280D0D0EE
:0719F100D082D083D0E03268
:0F1BF60075D76675D6FC758E1075AF04D2AF2209
:03009B000219F84F
:1019F800C0E0C083C082C0D053EFFD900382E004F2
:101A0800F07006900381E004F0C3900382E094BC78
:101A1800900381E094024006E4F0A3F0B280D0D0B5
:071A2800D082D083D0E03230
:0F1C050075D56675D4FC75D10875AF20D2AF22A6
:0300A300021A2F0F
:101A2F00C0E0C083C082C0D053EFFB900382E004BC
:101A3F00F07006900381E004F0C3900382E094E815
:101A4F00900381E094034006E4F0A3F0B280D0D07D
:071A5F00D082D083D0E032F9
:0F1C140075D36675D2FC75D18075AF40D2AF2203
:101889008035E4FFFEFDFC90036FE0F8A3E0F9A3C7
:10189900E0FAA3E0FBC31210D0602490036FE0FCD0
:1018A900A3E0FDA3E0FEA3E024FFFFEE34FFFEED7D
:1018B90034FFFDEC34FFFC90036F1210E180C3226A
:0D000E00E4F59275910175DE2F75BC80221E
:101BBA0043BC400000E5BC30E5FB53BCDFAFBDEFE2
:051BCA00FEADBEEDFFC1
:011BCF0022F3
:07004E00C1814203830000A1
:1018C9008035E4FFFEFDFC900373E0F8A3E0F9A383
:1018D900E0FAA3E0FBC31210D06024900373E0FC8C
:1018E900A3E0FDA3E0FEA3E024FFFFEE34FFFEED3D
:1018F90034FFFDEC34FFFC9003731210E180C32226
:101B000075BA8090FFF2E4F090FFF07410F0A3E457
:101B1000F090FF00F0A3F0A3F0A304F0A37480F012
:091B2000E4F5BA75FEC0D2AF2253
:0300B300021643EF
:0B164300C0E0C083C082C0D075D0089A
:10164E00E5F130E75853F17F30011D900384E0043B
:10165E00F07006900383E004F0C3900383E064808F
:10166E0094904023C201801F900384E024FFF090E9
:10167E000383E034FFF0D3A3E09401900383E0648E
:10168E008094805002D201C0BA43BA80900383E0A6
:0D169E00FFA3E090FF02CFF0A3EFF0D0BA61
:0916AB00D0D0D082D083D0E0320F
:101909008035E4FFFEFDFC900377E0F8A3E0F9A33E
:10191900E0FAA3E0FBC31210D06024900377E0FC47
:10192900A3E0FDA3E0FEA3E024FFFFEE34FFFEEDFC
:1019390034FFFDEC34FFFC9003771210E180C322E1
:101A6600E4900349F0A31210ED0000000090034E2D
:101A76001210ED000000009003451210ED0000006A
:101A860000E4F5D875D909F5E9F5F975DA21F5EA2D
:071A9600F5FAD2DED2AF2207
:03003B0002154A61
:10154A00C0E0C0F0C083C082C0D075D00830DF08C8
:10155A00C2DF900349E004F030D85AC2D890034E53
:10156A00E0FCA3E0FDA3E0FEA3E0FF90034A121013
:10157A00E1900351E5EAF0900350E5FAF09003494F
:10158A00E090034FF090034EE4F090034AE0F8A392
:10159A00E0F9A3E0FAA3E0FBA3E0FCA3E0FDA3E0EB
:1015AA00FEA3E0C39BFFEE9AFEED99FDEC98FC903A
:1015BA0003451210E1D0D0D082D083D0F0D0E032EF
:030000000214BE29
:0C14BE00787FE4F6D8FD7581200215054A
:100EB000E709F608DFFA8046E709F208DFFA803E24
:100EC00088828C83E709F0A3DFFA8032E309F60811
:100ED000DFFA8078E309F208DFFA807088828C8379
:100EE000E309F0A3DFFA806489828A83E0A3F6082D
:100EF000DFFA805889828A83E0A3F208DFFA804C07
:100F000080D280FA80C680D4806980F280338010DD
:100F100080A680EA809A80A880DA80E280CA803346
:100F200089828A83ECFAE493A3C8C582C8CCC583BE
:100F3000CCF0A3C8C582C8CCC583CCDFE9DEE7808E
:100F40000D89828A83E493A3F608DFF9ECFAA9F00D
:100F5000EDFB2289828A83ECFAE0A3C8C582C8CC63
:100F6000C583CCF0A3C8C582C8CCC583CCDFEADE7C
:100F7000E880DB89828A83E493A3F208DFF980CCDE
:100F800088F0EF60010E4E60C388F0ED2402B404D7
:100F90000050B9F582EB2402B4040050AF2323457E
:060FA0008223900F007394
:100FA600BB010689828A83E0225002E722BBFE0249
:090FB600E32289828A83E493227C
:100FBF00BB010CE58229F582E5833AF583E02250E7
:100FCF0006E92582F8E622BBFE06E92582F8E22231
:0D0FDF00E58229F582E5833AF583E493224B
:100FEC00A3F8E0C5F025F0F0E582158270021583B8
:060FFC00E0C838F0E82215
:1010020075F008758200EF2FFFEE33FECD33CDCCA5
:1010120033CCC58233C5829BED9AEC99E582984028
:101022000CF582EE9BFEED9AFDEC99FC0FD5F0D605
:10103200E4CEFBE4CDFAE4CCF9A88222B800C1B92F
:101042000059BA002DEC8BF084CFCECDFCE5F0CB6D
:10105200F97818EF2FFFEE33FEED33FDEC33FCEBA6
:1010620033FB10D703994004EB99FB0FD8E5E4F961
:10107200FA227818EF2FFFEE33FEED33FDEC33FC4E
:10108200C933C910D7059BE99A4007EC9BFCE99A42
:10109200F90FD8E0E4C9FAE4CCFB2275F010EF2F87
:1010A200FFEE33FEED33FDCC33CCC833C810D70787
:1010B2009BEC9AE899400AED9BFDEC9AFCE899F8C2
:0E10C2000FD5F0DAE4CDFBE4CCFAE4C8F92255
:1010D000EB9FF5F0EA9E42F0E99D42F0E89C45F076
:0110E00022ED
:0C10E100ECF0A3EDF0A3EEF0A3EFF02282
:1010ED00A8828583F0D083D08212110412110412CC
:1010FD001104121104E473E493A3C583C5F0C583F1
:10110D00C8C582C8F0A3C583C5F0C583C8C582C84C
:01111D0022AF
:10111E00EF4E6012EF60010EEDBB010B89828A83E8
:10112E00F0A3DFFCDEFA2289F05007F709DFFCA9F5
:0C113E00F022BBFEFCF309DFFCA9F0224C
:1014CA0002140CE493A3F8E493A34003F68001F218
:1014DA0008DFF48029E493A3F85407240CC8C33323
:1014EA00C4540F4420C8834004F456800146F6DFF2
:1014FA00E4800B010204081020408090003EE47E44
:10150A00019360BCA3FF543F30E509541FFEE493E6
:10151A00A360010ECF54C025E060A840B8E493A3AD
:10152A00FAE493A3F8E493A3C8C582C8CAC583CAD8
:10153A00F0A3C8C582C8CAC583CADFE9DEE780BE90
:0100550000AA
:00000001FF
