:1016AB008035E4FFFEFDFC900359E0F8A3E0F9A3BD
:1016BB00E0FAA3E0FBC3120FF36024900359E0FCA4
:1016CB00A3E0FDA3E0FEA3E024FFFFEE34FFFEED5D
:1016DB0034FFFDEC34FFFC90035912100480C3223D
:0D1B8500007F067E9D7D3BDDFEDEFCDFFA6D
:011B92002230
:0600560000007F01DFFE47
:01005C002281
:041A8B00AD07AC06F1
:101A8F00E4FBFAC3EB9DEA9C50189000001200563D
:101A9F00A3E582B430F7E583B406F20BBB00010A6D
:021AAF0080E1D4
:011AB1002212
:10106D007374617200656E64000000000000000082
:10107D000000000000000000000000000000000063
:10108D000000000000000000000000000000000053
:10109D000000000000000000000000000000000043
:1010AD000000000000000000000000000000000033
:1010BD000000000000000000000000000000000023
:1010CD000000000000000000000000000000000013
:1010DD000000000000000000000000000000000003
:1010ED0000000000000000000000000000000000F3
:1010FD0000000000000000000000000000000000E3
:10110D0000000000000000000000000000000000D2
:10111D0000000000000000000000000000000000C2
:10112D0000000000000000000000000000000000B2
:10113D0000000000000000000000000000000000A2
:10114D000000000000000000000000000000000092
:10115D000000000000000000000000000000000082
:10116D000000000000000000000000000000000072
:10117D000000000000000000000000000000000062
:10118D000000000000000000000000000000000052
:10119D000000000000000000000000000000000042
:1011AD000000000000000000000000000000000032
:1011BD000000000000000000000000000000000022
:1011CD000000000000000000000000000000000012
:1011DD000000000000000000000000000000000002
:1011ED0000000000000000000000000000000000F2
:1011FD0000000000000000000000000000000000E2
:10120D0000000000000000000000000000000000D1
:10121D0000000000000000000000000000000000C1
:10122D0000000000000000000000000000000000B1
:10123D0000000000000000000000000000000000A1
:10124D000000000000000000000000000000000091
:10125D000000000000000000000000000000000081
:09126D0000000000000000000078
:0A166100C2ED7FE87E037D007C00EF
:10166B008035E4FFFEFDFC900006E0F8A3E0F9A353
:10167B00E0FAA3E0FBC3120FF36024900006E0FC3A
:10168B00A3E0FDA3E0FEA3E024FFFFEE34FFFEED9D
:10169B0034FFFDEC34FFFC90000612100480C322D3
:1019FF0090022BEBF0A3EAF0A3E9F0A3EDF0900235
:101A0F002EE0FF14F0EF601990022BE0FBA3E475BA
:101A1F00F001120F0FA9F0FA120EC9FF1200038086
:021A2F00DD22B6
:1018E90090035DEBF0A3EAF0A3E9F0A3EDF07FEE3E
:1018F900801E900360E0FF14F0EF601990035DE033
:10190900FBA3E475F001120F0FA9F0FA120EC9FF3B
:0A19190012000380DD7FFF020003CF
:101AD900900387EFF07FEE120003900387E0FF1277
:071AE90000037FFF02000370
:101A3100C2B3C2B4C2C8C2C9C2C1C2F8C2EFC2FBFA
:101A4100C2A1C2A2C2A5C2A6C2C0C2CDC296C2953F
:101A5100C2EBC2EAC293C292C291C2CBC2CAC290C5
:011A61002262
:100B0B00D2B37FF47E01121A8B20B2077FC27E0113
:100B1B00121A8BC2B37FF47E01121A8BD2B47FF4FC
:100B2B007E01121A8B20B5077FC27E01121A8BC26F
:100B3B00B47FF47E01121A8BB280D2C87FF47E018F
:100B4B00121A8B20EE077FC27E01121A8BC2C87F4E
:100B5B00F47E01121A8BB280D2C97FF47E01121A75
:100B6B008B20B6077FC27E01121A8BC2C97FF47E1F
:100B7B0001121A8BB280D2C17FF47E01121A8B2024
:100B8B00B7077FC27E01121A8BC2C17FF47E01129E
:100B9B001A8BB280D2F87FF47E01121A8B20F907E0
:100BAB007FC27E01121A8BC2F87FF47E01121A8B60
:100BBB00B280D2EF7FF47E01121A8B20FA077FC22C
:100BCB007E01121A8BC2EF7FF47E01121A8BB28058
:100BDB00D2FB7FF47E01121A8B20A0077FC27E010D
:100BEB00121A8BC2FB7FF47E01121A8BB280D2A138
:100BFB007FF47E01121A8B20C2077FC27E01121A6C
:100C0B008BC2A17FF47E01121A8BB280D2A27FF429
:100C1B007E01121A8B20A3077FC27E01121A8BC290
:100C2B00A27FF47E01121A8BB280D2A57FF47E01D3
:100C3B00121A8B20A4077FC27E01121A8BC2A57FCA
:100C4B00F47E01121A8BB280D2A67FF47E01121AA7
:100C5B008B20A7077FC27E01121A8BC2A67FF47E60
:100C6B0001121A8BB280D2C07FF47E01121A8B2034
:100C7B00EC077FC27E01121A8BC2C07FF47E011279
:100C8B001A8BB280D2CD7FF47E01121A8B20CC0747
:100C9B007FC27E01121A8BC2CD7FF47E01121A8B9A
:100CAB00B280D2967FF47E01121A8B2097077FC2F7
:100CBB007E01121A8BC2967FF47E01121A8BB280C0
:100CCB00D2957FF47E01121A8B20C4077FC27E015E
:100CDB00121A8BC2957FF47E01121A8BB280D2EB63
:100CEB007FF47E01121A8B2094077FC27E01121AA9
:100CFB008BC2EB7FF47E01121A8BB280D2EA7FF4A7
:100D0B007E01121A8B20E9077FC27E01121A8BC259
:100D1B00EA7FF47E01121A8BB280D2937FF47E01AC
:100D2B00121A8B20E8077FC27E01121A8BC2937FA7
:100D3B00F47E01121A8BB280D2927FF47E01121ACA
:100D4B008B2087077FC27E01121A8BC2927FF47EA3
:100D5B0001121A8BB280D2917FF47E01121A8B2072
:100D6B0086077FC27E01121A8BC2917FF47E01121D
:100D7B001A8BB280D2CB7FF47E01121A8B2085079F
:100D8B007FC27E01121A8BC2CB7FF47E01121A8BAB
:100D9B00B280D2CA7FF47E01121A8B2084077FC2E5
:100DAB007E01121A8BC2CA7FF47E01121A8BB2809B
:100DBB00D2907FF47E01121A8B2083077FC27E01B3
:080DCB00121A8BC290021A31CA
:10152C00F0900355E090000CF0900108E090000D55
:10153C00F0900109E090000EF090010AE090000F8D
:0B154C00F07D057B017A00790B7C002C
:1015570090022BEBF0A3EAF0A3E9F0A3ECF0A3EDE4
:01156700F093
:10156800E4A3F0FDFCD390022FE09D90022EE09CB6
:101578004025900230E0FF90022BE0FBA3E0FAA3A5
:10158800E0F98D828C83120EE2FEEF6E900230F04D
:0C1598000DBD00010C80CE900230E0FF81
:0115A4002224
:1000B60078077C007D017BFF7A1079767E017F00D0
:1000C600120EA3E4900107F0780C7C017D017BFF02
:1000D6007A1179767E01FF120EA3E490020CF0A24B
:1000E600B233900213F0A2B5E433A3F0A2EEE433E8
:1000F600A3F0A2B6E433A3F0A2B7E433A3F0A2F9C7
:10010600E433A3F0A2FAE433A3F0A2A0E433A3F00D
:10011600A2C2E433A3F0A2A3E433A3F0A2A4E4337F
:10012600A3F0A2A7E433A3F0A2ECE433A3F0A2CC9D
:10013600E433A3F0A297E433A3F0A2C4E433A3F01C
:10014600A294E433A3F0A2E9E433A3F0A2E8E433F3
:10015600A3F0A287E433A3F0A286E433A3F0A2853A
:10016600E433A3F0A284E433A3F0A283E433A3F040
:10017600900336E024F8FF90020CF07E00780C7CA9
:10018600017D017B017A027935120EA3A282B3E4C6
:100196003390020DF0A2FCB3E433A3F0A2FDB3E466
:1001A60033A3F0A2FEB3E433A3F0A2FFB3E433A378
:1001B600F0A2C3B3E433A3F090020EE025E0FF9073
:1001C600020DE04FFF90020FE025E025E04FFFA370
:1001D600E033333354F84FFFA3E0C454F04FFFA38A
:1001E600E0C43354E04FFF90010BF090010DE0FEA8
:1001F6006F6003020B0A90020CE0640560030207BD
:100206009F90010CE0900354F0A3EEF090010EE0F5
:10021600900356F090010FE0900357F0900110E024
:10022600900358F07B017A01790C7D047C0012154D
:1002360057900006EFF0900358E06F6003020B0A38
:10024600900354E02480700302057B24F6600302C9
:100256000B0A900357E064116003020B0A900356E1
:10026600E014B41800400302053490027E75F003D2
:10027600A4C58325F0C583730202C60202E002020A
:10028600FA02031402032E02034802036202037CED
:100296000203960203B00203CA0203E40203FE024B
:1002A600041802043202044C0204660204800204AA
:1002B6009A0204B30204CC0204E50204FE02051706
:1002C600D2B37FF47E01121A8B20B2077FC27E0161
:1002D600121A8BC2B3A2B202052ED2B47FF47E01EB
:1002E600121A8B20B5077FC27E01121A8BC2B4A2E6
:1002F600B502052ED2C87FF47E01121A8B20EE07B6
:100306007FC27E01121A8BC2C8A2EE02052ED2C986
:100316007FF47E01121A8B20B6077FC27E01121A65
:100326008BC2C9A2B602052ED2C17FF47E01121A73
:100336008B20B7077FC27E01121A8BC2C1A2B702F9
:10034600052ED2F87FF47E01121A8B20F9077FC2A0
:100356007E01121A8BC2F8A2F902052ED2EF7FF4A3
:100366007E01121A8B20FA077FC27E01121A8BC2F7
:10037600EFA2FA02052ED2FB7FF47E01121A8B2021
:10038600A0077FC27E01121A8BC2FBA2A002052E15
:10039600D2A17FF47E01121A8B20C2077FC27E0192
:1003A600121A8BC2A1A2C202052ED2A27FF47E012E
:1003B600121A8B20A3077FC27E01121A8BC2A2A239
:1003C600A302052ED2A57FF47E01121A8B20A40764
:1003D6007FC27E01121A8BC2A5A2A402052ED2A646
:1003E6007FF47E01121A8B20A7077FC27E01121AA4
:1003F6008BC2A6A2A702052ED2C07FF47E01121AD6
:100406008B20EC077FC27E01121A8BC2C0A2EC02BF
:10041600052ED2CD7FF47E01121A8B20CC077FC227
:100426007E01121A8BC2CDA2CC02052ED2967FF483
:100436007E01121A8B2097077FC27E01121A8BC289
:1004460096A29702052ED2957FF47E01121A8B2072
:10045600C4077FC27E01121A8BC295A2C402052E62
:10046600D2EB7FF47E01121A8B2094077FC27E01A5
:10047600121A8BC2EBA29402052ED2EA7FF47E01F9
:10048600121A8B20E9077FC27E01121A8BC2EAA2DA
:10049600E902052ED2937FF47E01121A8B20E8071B
:1004A6007FC27E01121A8BC293A2E8807BD2927F12
:1004B600F47E01121A8B2087077FC27E01121A8BE7
:1004C600C292A2878062D2917FF47E01121A8B209B
:1004D60086077FC27E01121A8BC291A2868049D2FC
:1004E600CB7FF47E01121A8B2085077FC27E011214
:1004F6001A8BC2CBA2858030D2CA7FF47E01121A33
:100506008B2084077FC27E01121A8BC2CAA2848006
:1005160017D2907FF47E01121A8B2083077FC27E4A
:1005260001121A8BC290A283E433900107F0121ACB
:100536003178077C007D017BFF7A10796D7E007F24
:1005460004120EA3900354E090000BF0900355E0C4
:1005560090000CF0900356E090000DF0900107E03B
:100566006401700990000E7411F002078AE490008D
:100576000EF002078A900357E064336003020B0A09
:10058600900356E0600302067B900214E025E0FF2C
:10059600900213E04FFF900215E025E025E04FFFA3
:1005A600A3E033333354F84FFFA3E0C454F04FFFB6
:1005B600A3E0C43354E04FFFA3E0C4333354C04F29
:1005C600FFA3E0C433333354804F900108F0900208
:1005D6001CE025E0FF90021BE04FFF90021DE02586
:1005E600E025E04FFFA3E033333354F84FFFA3E099
:1005F600C454F04FFFA3E0C43354E04FFFA3E0C45C
:10060600333354C04FFFA3E0C433333354804F9089
:100616000109F0900224E025E0FF900223E04FFF5D
:10062600900225E025E025E04FFFA3E03333335465
:10063600F84FFFA3E0C454F04FFFA3E0C43354E0E7
:100646004FFFA3E0C4333354C04FFFA3E0C433339A
:100656003354804F90010AF078077C007D017BFFC0
:100666007A10796D7E007F04120EA3900354E090F9
:10067600000B0208E7900356E014B418004003028A
:10068600074A90069675F003A4C58325F0C58373C3
:100696000206DE0206E20206E60206EA0206EE02AC
:1006A60006F20206FA0206FE020702020706020721
:1006B6000A02070E02071202071602071A0207228B
:1006C60002072602072A02072E020732020736020F
:1006D600073A02073E020742A2B28062A2B5805ED6
:1006E600A2EE805AA2B68056A2B78052A2F9E4338F
:1006F600900107F0A2FA8046A2A08042A2C2803EE4
:10070600A2A3803AA2A48036A2A78032A2EC802EB1
:10071600A2CC802AA297E433900107F0A2C4801EDF
:10072600A294801AA2E98016A2E88012A287800EFF
:10073600A286800AA2858006A2848002A283E43370
:10074600900107F078077C007D017BFF7A10796DB8
:100756007E007F04120EA3900354E090000BF090ED
:100766000355E090000CF0900356E090000DF090D9
:100776000107E06401700890000E7411F08005E432
:1007860090000EF07D0412154F900006EFF09000D9
:100796000FF078107C000209F490020CE06403600C
:1007A60003020B0A90010CE0900354F090010DE057
:1007B600900355F090010EE0900358F07B017A010A
:1007C600790C7D027C00121557900006EFF090031D
:1007D60058E06F6003020B0A900354E0246F700325
:1007E6000208FA24A07003020A13147003020A8A8C
:1007F60024626003020B0A120B0B900214E025E040
:10080600FF900213E04FFF900215E025E025E04F30
:10081600FFA3E033333354F84FFFA3E0C454F04F43
:10082600FFA3E0C43354E04FFFA3E0C4333354C006
:100836004FFFA3E0C433333354804F900108F09048
:10084600021CE025E0FF90021BE04FFF90021DE036
:1008560025E025E04FFFA3E033333354F84FFFA3E1
:10086600E0C454F04FFFA3E0C43354E04FFFA3E0CD
:10087600C4333354C04FFFA3E0C433333354804FE3
:10088600900109F0900224E025E0FF900223E04F5A
:10089600FF900225E025E025E04FFFA3E033333348
:1008A60054F84FFFA3E0C454F04FFFA3E0C4335401
:1008B600E04FFFA3E0C4333354C04FFFA3E0C4337B
:1008C600333354804F90010AF078077C007D017B1A
:1008D600FF7A10796D7E007F04120EA390000B74D0
:1008E6008012152C900006EFF0900010F078117C25
:1008F600000209F4120B0B900214E025E0FF9002AF
:1009060013E04FFF900215E025E025E04FFFA3E03E
:1009160033333354F84FFFA3E0C454F04FFFA3E042
:10092600C43354E04FFFA3E0C4333354C04FFFA396
:10093600E0C433333354804F900108F090021CE03A
:1009460025E0FF90021BE04FFF90021DE025E02509
:10095600E04FFFA3E033333354F84FFFA3E0C45412
:10096600F04FFFA3E0C43354E04FFFA3E0C433339A
:1009760054C04FFFA3E0C433333354804F90010972
:10098600F0900224E025E0FF900223E04FFF900262
:1009960025E025E025E04FFFA3E033333354F84F3D
:1009A600FFA3E0C454F04FFFA3E0C43354E04FFF6D
:1009B600A3E0C4333354C04FFFA3E0C433333354EE
:1009C600804F90010AF078077C007D017BFF7A104A
:1009D600796D7E007F04120EA390000B74801215B1
:1009E6002C900006EFF0900010F078117C007D014D
:1009F6007BFF7A1079727E007F03120EA3E49000CB
:100A060013F07B017A0079077D0C020B077E017FCC
:100A1600007D007B017A00790712104178077C007F
:100A26007D017BFF7A10796D7E007F04120EA39004
:100A36000354E090000BF090010BE090000CF0E402
:100A4600A3F0A3F0A304F0FB7A00790B7D057C00EC
:100A5600121557900006EFF0900010F078117C0008
:100A66007D017BFF7A1079727E007F03120EA3E46C
:100A7600900014F07F32FE121A8B7B017A00790700
:100A86007D0D807D7E017F007D007B017A007907E8
:100A960012104178077C007D017BFF7A10796D7E0C
:100AA600007F04120EA3900354E090000BF0900117
:100AB6000BE090000CF0A37453F0A304F0A374436E
:100AC600F0A37402F07B017A00790B7D067C00129C
:100AD6001557900006EFF0900011F078127C007D1B
:100AE600017BFF7A1079727E007F03120EA3E490D9
:100AF6000015F07F32FE121A8B7B017A0079077D92
:040B06000E1219FFB3
:010B0A0022C8
:101AB20075926FE4F591759666F59575B218F5B164
:101AC20075B403F5B375CA2FF5C975CC8CF5CB7512
:071AD200E209F5E1021A31FF
:1012760090000012101000000000E4900004F0A39B
:10128600F0120026121B32D2ACD2AF121AB2E49080
:101296000004F0A3F0C2807F327E00121A8BD28047
:1012A6007F327E00121A8B900005E004F0700690E3
:1012B6000004E004F0C3900005E09405900004E00B
:1012C6006480948040CF121663121661900331E059
:1012D6006401702F7FE87E03FDFC12166BD2ED12BF
:1012E60016631200B61216631216617E007F0D7D1C
:1012F600007B017A027931121041E4900336F090B6
:101306000331F0900000E0FCA3E0FDA3E0FEA3E0C3
:101316002401FFE43EFEE43DFDE43CFC90000012A7
:101326001004E47BE87A03F9F8900000E0FCA3E0FF
:10133600FDA3E0FEA3E0FF120F61AC00AD01AE021B
:10134600AF03E4FBFAF9F8C3120FF3700AC2807F09
:1013560032FE121A8BD2807F057E00121A8B021281
:01136600D2B4
:10003E0041033200410335004103360041033100D4
:1016EB008035E4FFFEFDFC900361E0F8A3E0F9A375
:1016FB00E0FAA3E0FBC3120FF36024900361E0FC5C
:10170B00A3E0FDA3E0FEA3E024FFFFEE34FFFEED1C
:10171B0034FFFDEC34FFFC90036112100480C322F4
:10002600759850438E01438E0475D78F75D6FD4360
:030036008E102207
:080003008F993099FDC299228A
:1000660090037DEBF0A3EAF0A3E9F090037DE0FBBB
:10007600A3E0FAA3E0F9120EC9601790037DA3E48A
:1000860075F001120F0FA9F0FA120EC9FF12000344
:0300960080D922EC
:030023000213675E
:0B136700C0E0C083C082C0D075D00879
:10137200309904C299C200209803021417C298AF90
:1013820099900336E0FE2431F582E43402F583EFCE
:10139200F0EED3940D748094804005900336E4F00F
:1013A200900231E064737065A3E06474705FA3E03F
:1013B20064617059A3E064727053900336E0D39471
:1013C20004748094804046900335E01460161460E3
:1013D2002014602924037037EF646570329003355E
:1013E20004F0802BEF646E70269003357402F08057
:1013F2001EEFB4641A9003357403F08012EFB46FD9
:101402000E900335E4F090033104F08002D28C9008
:051412000336E004F0C8
:09141700D0D0D082D083D0E032A5
:04005D00E4F5A22202
:10172B008035E4FFFEFDFC900365E0F8A3E0F9A330
:10173B00E0FAA3E0FBC3120FF36024900365E0FC17
:10174B00A3E0FDA3E0FEA3E024FFFFEE34FFFEEDDC
:10175B0034FFFDEC34FFFC90036512100480C322B0
:1016160090038074FFF0A374FDF0A374F9F0E490D6
:101626000388F0900388E0FFFD3395E0FCC3ED945A
:1016360007EC648094805022900380E0FBA3E0FADC
:10164600A3E0F9EF3395E08F82F583120EE2FF12E5
:0A1656000003900388E004F080C94F
:011660002267
:1018AB00900380E4F0A3F0A374F1F0E4900389F0CB
:1018BB00900389E0FFC3940774809480501F9003BA
:1018CB0080E0FBA3E0FAA3E0F98F82758300120E90
:0D18DB00E2FF120003900389E004F080D3C7
:0118E80022DD
:10176B008035E4FFFEFDFC900369E0F8A3E0F9A3EC
:10177B00E0FAA3E0FBC3120FF36024900369E0FCD3
:10178B00A3E0FDA3E0FEA3E024FFFFEE34FFFEED9C
:10179B0034FFFDEC34FFFC90036912100480C3226C
:101AF000E4F594F5937592FFF591F5967595FF755C
:061B0000B2FF75B1FF22E7
:1017AB008035E4FFFEFDFC90036DE0F8A3E0F9A3A8
:1017BB00E0FAA3E0FBC3120FF3602490036DE0FC8F
:1017CB00A3E0FDA3E0FEA3E024FFFFEE34FFFEED5C
:1017DB0034FFFDEC34FFFC90036D12100480C32228
:101B3200538E7FE4F589758AA0758C15D2A9C28D62
:031B4200C28C2230
:03000B00021B06CF
:101B0600C0E0C083C082C28DC28C900336E4F0D0A0
:061B160082D083D0E03212
:03001B0002001EC2
:05001E00C28FC28E320A
:101B4500538EBFE4F589758BE5758DBED2ABC28F1B
:031B5500C28E221B
:030063000219235C
:10192300C0E0C083C082C0D053EFFE900384E004C4
:10193300F07006900383E004F0C3900384E0942CDA
:10194300900383E094014006E4F0A3F0B280D0D08A
:07195300D082D083D0E03206
:0F1B580075D76675D6FC758E1075AF04D2AF22A7
:03009B0002195AED
:10195A00C0E0C083C082C0D053EFFD900384E0048E
:10196A00F07006900383E004F0C3900384E094BC13
:10197A00900383E094024006E4F0A3F0B280D0D052
:07198A00D082D083D0E032CF
:0F1B670075D56675D4FC75D10875AF20D2AF2245
:0300A300021991AE
:10199100C0E0C083C082C0D053EFFB900384E00459
:1019A100F07006900383E004F0C3900384E094E8B0
:1019B100900383E094034006E4F0A3F0B280D0D01A
:0719C100D082D083D0E03298
:0F1B760075D36675D2FC75D18075AF40D2AF22A2
:1017EB008035E4FFFEFDFC900371E0F8A3E0F9A364
:1017FB00E0FAA3E0FBC3120FF36024900371E0FC4B
:10180B00A3E0FDA3E0FEA3E024FFFFEE34FFFEED1B
:10181B0034FFFDEC34FFFC90037112100480C322E3
:0D000E00E4F59275910175DE2F75BC80221E
:101B1C0043BC400000E5BC30E5FB53BCDFAFBDEF80
:051B2C00FEADBEEDFF5F
:011B31002291
:07004E00C18142038500009F
:10182B008035E4FFFEFDFC900375E0F8A3E0F9A31F
:10183B00E0FAA3E0FBC3120FF36024900375E0FC06
:10184B00A3E0FDA3E0FEA3E024FFFFEE34FFFEEDDB
:10185B0034FFFDEC34FFFC90037512100480C3229F
:101A620075BA8090FFF2E4F090FFF07410F0A3E4F6
:101A7200F090FF00F0A3F0A3F0A304F0A37480F0B1
:091A8200E4F5BA75FEC0D2AF22F2
:0300B3000215A58E
:0B15A500C0E0C083C082C0D075D00839
:1015B000E5F130E75853F17F30011D900386E004D8
:1015C000F07006900385E004F0C3900385E064802A
:1015D00094904023C201801F900386E024FFF09086
:1015E0000385E034FFF0D3A3E09401900385E06429
:1015F0008094805002D201C0BA43BA80900385E043
:0D160000FFA3E090FF02CFF0A3EFF0D0BAFF
:09160D00D0D0D082D083D0E032AD
:10186B008035E4FFFEFDFC900379E0F8A3E0F9A3DB
:10187B00E0FAA3E0FBC3120FF36024900379E0FCC2
:10188B00A3E0FDA3E0FEA3E024FFFFEE34FFFEED9B
:10189B0034FFFDEC34FFFC90037912100480C3225B
:1019C800E490034BF0A312101000000000900350A5
:1019D80012101000000000900347121010000000C1
:1019E80000E4F5D875D909F5E9F5F975DA21F5EACC
:0719F800F5FAD2DED2AF22A6
:03003B000214AC00
:1014AC00C0E0C0F0C083C082C0D075D00830DF0867
:1014BC00C2DF90034BE004F030D85AC2D8900350EE
:1014CC00E0FCA3E0FDA3E0FEA3E0FF90034C1210B0
:1014DC0004900353E5EAF0900352E5FAF090034BC5
:1014EC00E0900351F0900350E4F090034CE0F8A32B
:1014FC00E0F9A3E0FAA3E0FBA3E0FCA3E0FDA3E08A
:10150C00FEA3E0C39BFFEE9AFEED99FDEC98FC90D8
:10151C000347121004D0D0D082D083D0F0D0E03268
:03000000021420C7
:0C142000787FE4F6D8FD75812002146787
:100DD300E709F608DFFA8046E709F208DFFA803E02
:100DE30088828C83E709F0A3DFFA8032E309F608EF
:100DF300DFFA8078E309F208DFFA807088828C8357
:100E0300E309F0A3DFFA806489828A83E0A3F6080A
:100E1300DFFA805889828A83E0A3F208DFFA804CE4
:100E230080D280FA80C680D4806980F280338010BB
:100E330080A680EA809A80A880DA80E280CA803324
:100E430089828A83ECFAE493A3C8C582C8CCC5839C
:100E5300CCF0A3C8C582C8CCC583CCDFE9DEE7806C
:100E63000D89828A83E493A3F608DFF9ECFAA9F0EB
:100E7300EDFB2289828A83ECFAE0A3C8C582C8CC41
:100E8300C583CCF0A3C8C582C8CCC583CCDFEADE5A
:100E9300E880DB89828A83E493A3F208DFF980CCBC
:100EA30088F0EF60010E4E60C388F0ED2402B404B5
:100EB3000050B9F582EB2402B4040050AF2323455C
:060EC3008223900E237350
:100EC900BB010689828A83E0225002E722BBFE0227
:090ED900E32289828A83E493225A
:100EE200BB010CE58229F582E5833AF583E02250C5
:100EF20006E92582F8E622BBFE06E92582F8E2220F
:0D0F0200E58229F582E5833AF583E4932228
:100F0F00A3F8E0C5F025F0F0E58215827002158395
:060F1F00E0C838F0E822F2
:100F250075F008758200EF2FFFEE33FECD33CDCC83
:100F350033CCC58233C5829BED9AEC99E582984006
:100F45000CF582EE9BFEED9AFDEC99FC0FD5F0D6E3
:100F5500E4CEFBE4CDFAE4CCF9A88222B800C1B90D
:100F65000059BA002DEC8BF084CFCECDFCE5F0CB4B
:100F7500F97818EF2FFFEE33FEED33FDEC33FCEB84
:100F850033FB10D703994004EB99FB0FD8E5E4F93F
:100F9500FA227818EF2FFFEE33FEED33FDEC33FC2C
:100FA500C933C910D7059BE99A4007EC9BFCE99A20
:100FB500F90FD8E0E4C9FAE4CCFB2275F010EF2F65
:100FC500FFEE33FEED33FDCC33CCC833C810D70765
:100FD5009BEC9AE899400AED9BFDEC9AFCE899F8A0
:0E0FE5000FD5F0DAE4CDFBE4CCFAE4C8F92233
:100FF300EB9FF5F0EA9E42F0E99D42F0E89C45F054
:0110030022CA
:0C100400ECF0A3EDF0A3EEF0A3EFF0225F
:10101000A8828583F0D083D0821210271210271265
:101020001027121027E473E493A3C583C5F0C5838A
:10103000C8C582C8F0A3C583C5F0C583C8C582C82A
:01104000228D
:10104100EF4E6012EF60010EEDBB010B89828A83C6
:10105100F0A3DFFCDEFA2289F05007F709DFFCA9D3
:0C106100F022BBFEFCF309DFFCA9F0222A
:10142C00021276E493A3F8E493A34003F68001F24E
:10143C0008DFF48029E493A3F85407240CC8C333C1
:10144C00C4540F4420C8834004F456800146F6DF90
:10145C00E4800B010204081020408090003EE47EE2
:10146C00019360BCA3FF543F30E509541FFEE49385
:10147C00A360010ECF54C025E060A840B8E493A34C
:10148C00FAE493A3F8E493A3C8C582C8CAC583CA77
:10149C00F0A3C8C582C8CAC583CADFE9DEE780BE2F
:0100550000AA
:00000001FF
