:100AC2008035E4FFFEFDFC900334E0F8A3E0F9A3D7
:100AD200E0FAA3E0FBC312067D6024900334E0FC3D
:100AE200A3E0FDA3E0FEA3E024FFFFEE34FFFEED52
:100AF20034FFFDEC34FFFC90033412068E80C322D7
:0D0F5D00007F067E9D7D3BDDFEDEFCDFFAA1
:010F6A002264
:0600560000007F01DFFE47
:01005C002281
:040EA400AD07AC06E4
:100EA800E4FBFAC3EB9DEA9C501890000012005630
:100EB800A3E582B4E8F7E583B403F20BBB00010AAB
:020EC80080E1C7
:010ECA002205
:1002F5000D0A2D2D312D2D0D0A000D0A2D2D322D16
:100305002D0D0A000D0A2D2D332D2D0D0A007374A8
:10031500617200656E6400706F776572206F6E2084
:100325002121210D0A00000000000000000000004E
:1003350000000000000000000000000000000000B8
:1003450000000000000000000000000000000000A8
:100355000000000000000000000000000000000098
:100365000000000000000000000000000000000088
:100375000000000000000000000000000000000078
:100385000000000000000000000000000000000068
:100395000000000000000000000000000000000058
:1003A5000000000000000000000000000000000048
:1003B5000000000000000000000000000000000038
:1003C5000000000000000000000000000000000028
:1003D5000000000000000000000000000000000018
:1003E5000000000000000000000000000000000008
:1003F50000000000000000000000000000000000F8
:1004050000000000000000000000000000000000E7
:1004150000000000000000000000000000000000D7
:1004250000000000000000000000000000000000C7
:1004350000000000000000000000000000000000B7
:1004450000000000000000000000000000000000A7
:100455000000000000000000000000000000000097
:100465000000000000000000000000000000000087
:100475000000000000000000000000000000000077
:100485000000000000000000000000000000000067
:100495000000000000000000000000000000000057
:1004A5000000000000000000000000000000000047
:1004B5000000000000000000000000000000000037
:1004C5000000000000000000000000000000000027
:1004D5000000000000000000000000000000000017
:1004E5000000000000000000000000000000000007
:1004F50000000000000000000000000000000000F7
:1005050000000000000000000000000000000000E6
:1005150000000000000000000000000000000000D6
:06052500000000000000D0
:0A0A7800C2ED7FE87E037D007C00E4
:100A82008035E4FFFEFDFC900000E0F8A3E0F9A34E
:100A9200E0FAA3E0FBC312067D6024900000E0FCB4
:100AA200A3E0FDA3E0FEA3E024FFFFEE34FFFEED92
:100AB20034FFFDEC34FFFC90000012068E80C3224E
:100E4900900206EBF0A3EAF0A3E9F0A3EDF090021B
:100E590009E0FF14F0EF6019900206E0FBA3E475C6
:100E6900F001120667A9F0FA120621FF12000380A9
:020E7900DD2278
:100D0000900338EBF0A3EAF0A3E9F0A3EDF07FEE57
:100D1000801E90033BE0FF14F0EF6019900338E071
:100D2000FBA3E475F001120667A9F0FA120621FF91
:0A0D300012000380DD7FFF020003C4
:0609D9007B017D047C009F
:1009DF00900206EBF0A3EAF0A3E9F0A3ECF0A3ED8D
:0109EF00F017
:1009F000E4A3F0FDFCD390020AE09D900209E09C84
:100A0000402590020BE0FF900206E0FBA3E0FAA372
:100A1000E0F98D828C8312063AFEEF6E90020BF0A5
:0C0A20000DBD00010C80CE90020BE0FF29
:010A2C0022A7
:1000B60078017C007D017BFF7A03792B7E017F002E
:1000C6001205FBE4900101F078057C017D017BFFC0
:1000D6007A04792B7E01FF1205FBE4900205F0906D
:1000E6000311E024F8FF900205F07E0078057C01FC
:1000F6007D017B017A0279101205FBA282B3E433FB
:10010600F9A2FCB3E433FFA2FDB3E433FEA2FEB3CF
:10011600E433FDA2FFB3E433FCA2C3B3E433FBEF45
:1001260025E0AA0149FFEE25E025E04FFFAE05EEEA
:1001360033333354F84FFFAE04EEC454F04FFFAEE2
:1001460003EEC43354E04FFF900106E0FE6F6003F8
:100156000202F4900205E0640560030202F49001D5
:1001660005E090032FF0A3EEF0900107E090033135
:10017600F0900108E0900332F0900109E09003331B
:10018600F07A0179051209D9900000EFF090033357
:10019600E06F60030202F490032FE024766003020E
:1001A60002F4900332E0641160030202F49003311A
:1001B600E024FE700302024014700302026024026F
:1001C6006003020281D2B3D2B4D2C8D2C9D2C1D29C
:1001D600F8D2EFD2FBD2A1D2A2D2A5D2A6D2C0D259
:1001E600CDD296D295D2EBD2EAD293D292D291D2F6
:1001F600CBD2CAD2907F147E00120EA4C2B3C2B470
:10020600C2C8C2C9C2C1C2F8C2EFC2FBC2A1C2A261
:10021600C2A5C2A6C2C0C2CDC296C295C2EBC2EAF0
:10022600C293C292C291C2CBC2CAC290900101745B
:1002360001F07BFF7A0279F5803ED2B47F147E000E
:10024600120EA4C2B47F147E00120EA49001017493
:1002560001F07BFF7A0279FF801ED2C87F147E00F0
:10026600120EA4C2C87F147E00120EA4900101745F
:1002760001F07BFF7A037909120E1678017C007D66
:10028600017BFF7A0379137E007F041205FB90033E
:100296002FE0900005F0900330E0900006F0900308
:1002A60031E0900007F0900101E0640170089000D1
:1002B600087411F08005E4900008F07A00790512C0
:1002C60009D9900000EFF0900009F0780A7C007DD3
:1002D600017BFF7A0379187E007F031205FBE49009
:0E02E600000DF07B017A0079017D0C120E49AB
:0102F40022E7
:1007B000120026120F0DD2ACD2AF75926FE4F591F4
:1007C000759666F59575B218F5B175B403F5B37500
:1007D000CA2FF5C975CC8CF5CB75E209F5E1C2B32A
:1007E000C2B4C2C8C2C9C2C1C2F8C2EFC2FBC2A170
:1007F000C2A2C2A5C2A6C2C0C2CDC296C295C2EB59
:10080000C2EAC293C292C291C2CBC2CAC2907FE86E
:100810007E03FDFC120A82120A787BFF7A03791CA0
:10082000120E1690030CE0640170F87FE87E03FD61
:10083000FC120A82D2ED120A7A1200B6120A7A1259
:100840000A787E007F0D7D007B017A02790C12060A
:0C085000CBE4900311F090030CF080C783
:10003E0041030D00410310004103110041030C0068
:100B02008035E4FFFEFDFC90033CE0F8A3E0F9A38E
:100B1200E0FAA3E0FBC312067D602490033CE0FCF4
:100B2200A3E0FDA3E0FEA3E024FFFFEE34FFFEED11
:100B320034FFFDEC34FFFC90033C12068E80C3228E
:10002600759850438E01438E0475D78F75D6FD4360
:030036008E102207
:080003008F993099FDC299228A
:100E1600900206EBF0A3EAF0A3E9F0900206E0FBED
:100E2600A3E0FAA3E0F91206216017900206A3E4F4
:100E360075F001120667A9F0FA120621FF120003E7
:030E460080D9222E
:030023000206F7DB
:0B06F700C0E0C083C082C0D075D008F6
:10070200309904C299C2002098030207A7C298AF89
:1007120099900311E0FE240CF582E43402F583EF94
:10072200F0EED3940D748094804005900311E4F0B0
:1007320090020CE064737065A3E06474705FA3E0E0
:1007420064617059A3E064727053900311E0D39412
:1007520004748094804046900310E0146016146084
:100762002014602924037037EF64657032900310FF
:1007720004F0802BEF646E70269003107402F080F8
:100782001EEFB4641A9003107403F08012EFB46F7A
:100792000E900310E4F090030C04F08002D28C90CF
:0507A2000311E004F06A
:0907A700D0D0D082D083D0E03222
:04001E00E4F5A22241
:100B42008035E4FFFEFDFC900340E0F8A3E0F9A34A
:100B5200E0FAA3E0FBC312067D6024900340E0FCB0
:100B6200A3E0FDA3E0FEA3E024FFFFEE34FFFEEDD1
:100B720034FFFDEC34FFFC90034012068E80C3224A
:100A2D0090035874FFF0A374FDF0A374F9F0E490F3
:100A3D00035FF090035FE0FFFD3395E0FCC3ED94A1
:100A4D0007EC648094805022900358E0FBA3E0FAF9
:100A5D00A3E0F9EF3395E08F82F58312063AFF128A
:0A0A6D00000390035FE004F080C96D
:010A7700225C
:100CC200900358E4F0A3F0A374F1F0E4900360F011
:100CD200900360E0FFC3940774809480501F9003D8
:100CE20058E0FBA3E0FAA3E0F98F827583001206B5
:0D0CF2003AFF120003900360E004F080D38D
:010CFF0022D2
:100B82008035E4FFFEFDFC900344E0F8A3E0F9A306
:100B9200E0FAA3E0FBC312067D6024900344E0FC6C
:100BA200A3E0FDA3E0FEA3E024FFFFEE34FFFEED91
:100BB20034FFFDEC34FFFC90034412068E80C32206
:100ECB00E4F594F5937592FFF591F5967595FF758D
:060EDB00B2FF75B1FF2219
:100BC2008035E4FFFEFDFC900348E0F8A3E0F9A3C2
:100BD200E0FAA3E0FBC312067D6024900348E0FC28
:100BE200A3E0FDA3E0FEA3E024FFFFEE34FFFEED51
:100BF20034FFFDEC34FFFC90034812068E80C322C2
:100F0D00538E7FE4F589758AA0758C15D2A9C28D93
:030F1D00C28C2261
:03000B00020EE101
:100EE100C0E0C083C082C28DC28C900311E4F0D0F7
:060EF10082D083D0E03244
:03001B000200667A
:10006600C0E0C083C082C0D090035CE004F070069C
:1000760090035BE004F0C390035CE094F490035BB0
:10008600E094014006E4F0A3F0B280D0D0D082D054
:0400960083D0E03201
:100F2000E4F589758B66758DFCD28ED2ABD2AF227B
:03006300020D3A51
:100D3A00C0E0C083C082C0D053EFFE90035CE004E1
:100D4A00F0700690035BE004F0C390035CE0942C1F
:100D5A0090035BE094014006E4F0A3F0B280D0D0A7
:070D6A00D082D083D0E032FB
:0F0F300075D76675D6FC758E1075AF04D2AF22DB
:03009B00020D71E2
:100D7100C0E0C083C082C0D053EFFD90035CE004AB
:100D8100F0700690035BE004F0C390035CE094BC58
:100D910090035BE094024006E4F0A3F0B280D0D06F
:070DA100D082D083D0E032C4
:0F0F3F0075D56675D4FC75D10875AF20D2AF2279
:0300A300020DA8A3
:100DA800C0E0C083C082C0D053EFFB90035CE00476
:100DB800F0700690035BE004F0C390035CE094E8F5
:100DC80090035BE094034006E4F0A3F0B280D0D037
:070DD800D082D083D0E0328D
:0F0F4E0075D36675D2FC75D18075AF40D2AF22D6
:100C02008035E4FFFEFDFC90034CE0F8A3E0F9A37D
:100C1200E0FAA3E0FBC312067D602490034CE0FCE3
:100C2200A3E0FDA3E0FEA3E024FFFFEE34FFFEED10
:100C320034FFFDEC34FFFC90034C12068E80C3227D
:0D000E00E4F59275910175DE2F75BC80221E
:100EF70043BC400000E5BC30E5FB53BCDFAFBDEFB2
:050F0700FEADBEEDFF90
:010F0C0022C2
:07004E00C18142035D0000C7
:100C42008035E4FFFEFDFC900350E0F8A3E0F9A339
:100C5200E0FAA3E0FBC312067D6024900350E0FC9F
:100C6200A3E0FDA3E0FEA3E024FFFFEE34FFFEEDD0
:100C720034FFFDEC34FFFC90035012068E80C32239
:100E7B0075BA8090FFF2E4F090FFF07410F0A3E4E9
:100E8B00F090FF00F0A3F0A3F0A304F0A37480F0A4
:090E9B00E4F5BA75FEC0D2AF22E5
:0300B300020968D7
:0B096800C0E0C083C082C0D075D00882
:10097300E5F130E75853F17F30011D90035EE00449
:10098300F0700690035DE004F0C390035DE06480C3
:1009930094904023C201801F90035EE024FFF090F7
:1009A300035DE034FFF0D3A3E0940190035DE064C2
:1009B3008094805002D201C0BA43BA8090035DE0B4
:0D09C300FFA3E090FF02CFF0A3EFF0D0BA49
:0909D000D0D0D082D083D0E032F7
:100C82008035E4FFFEFDFC900354E0F8A3E0F9A3F5
:100C9200E0FAA3E0FBC312067D6024900354E0FC5B
:100CA200A3E0FDA3E0FEA3E024FFFFEE34FFFEED90
:100CB20034FFFDEC34FFFC90035412068E80C322F5
:100DDF00E4900326F0A312069A0000000090032B64
:100DEF0012069A0000000090032212069A000000DB
:100DFF0000E4F5D875D909F5E9F5F975DA21F5EAC1
:070E0F00F5FAD2DED2AF229A
:03003B000208E8D0
:1008E800C0E0C0F0C083C082C0D075D00830DF0837
:1008F800C2DF900326E004F030D85AC2D890032B08
:10090800E0FCA3E0FDA3E0FEA3E0FF9003271206AE
:100918008E90032EE5EAF090032DE5FAF090032679
:10092800E090032CF090032BE4F0900327E0F8A369
:10093800E0F9A3E0FAA3E0FBA3E0FCA3E0FDA3E059
:10094800FEA3E0C39BFFEE9AFEED99FDEC98FC90A8
:10095800032212068ED0D0D082D083D0F0D0E032DD
:0300000002085C97
:0C085C00787FE4F6D8FD7581200208A327
:10052B00E709F608DFFA8046E709F208DFFA803EB2
:10053B0088828C83E709F0A3DFFA8032E309F6089F
:10054B00DFFA8078E309F208DFFA807088828C8307
:10055B00E309F0A3DFFA806489828A83E0A3F608BB
:10056B00DFFA805889828A83E0A3F208DFFA804C95
:10057B0080D280FA80C680D4806980F2803380106C
:10058B0080A680EA809A80A880DA80E280CA8033D5
:10059B0089828A83ECFAE493A3C8C582C8CCC5834D
:1005AB00CCF0A3C8C582C8CCC583CCDFE9DEE7801D
:1005BB000D89828A83E493A3F608DFF9ECFAA9F09C
:1005CB00EDFB2289828A83ECFAE0A3C8C582C8CCF2
:1005DB00C583CCF0A3C8C582C8CCC583CCDFEADE0B
:1005EB00E880DB89828A83E493A3F208DFF980CC6D
:1005FB0088F0EF60010E4E60C388F0ED2402B40466
:10060B000050B9F582EB2402B4040050AF2323450C
:06061B00822390057B73B1
:10062100BB010689828A83E0225002E722BBFE02D7
:09063100E32289828A83E493220A
:10063A00BB010CE58229F582E5833AF583E0225075
:10064A0006E92582F8E622BBFE06E92582F8E222BF
:0D065A00E58229F582E5833AF583E49322D9
:10066700A3F8E0C5F025F0F0E58215827002158346
:06067700E0C838F0E822A3
:10067D00EB9FF5F0EA9E42F0E99D42F0E89C45F0D3
:01068D00224A
:0C068E00ECF0A3EDF0A3EEF0A3EFF022DF
:10069A00A8828583F0D083D0821206B11206B112E5
:1006AA0006B11206B1E473E493A3C583C5F0C5830A
:1006BA00C8C582C8F0A3C583C5F0C583C8C582C8AA
:0106CA00220D
:1006CB00EF4E6012EF60010EEDBB010B89828A8346
:1006DB00F0A3DFFCDEFA2289F05007F709DFFCA953
:0C06EB00F022BBFEFCF309DFFCA9F022AA
:100868000207B0E493A3F8E493A34003F68001F2EF
:1008780008DFF48029E493A3F85407240CC8C33391
:10088800C4540F4420C8834004F456800146F6DF60
:10089800E4800B010204081020408090003EE47EB2
:1008A800019360BCA3FF543F30E509541FFEE49355
:1008B800A360010ECF54C025E060A840B8E493A31C
:1008C800FAE493A3F8E493A3C8C582C8CAC583CA47
:1008D800F0A3C8C582C8CAC583CADFE9DEE780BEFF
:0100550000AA
:00000001FF
