:10171A008035E4FFFEFDFC90035AE0F8A3E0F9A34C
:10172A00E0FAA3E0FBC312102D602490035AE0FCF8
:10173A00A3E0FDA3E0FEA3E024FFFFEE34FFFEEDED
:10174A0034FFFDEC34FFFC90035A12103E80C32292
:0D1BF400007F067E9D7D3BDDFEDEFCDFFAFE
:011C010022C0
:0600560000007F01DFFE47
:01005C002281
:041AFA00AD07AC0682
:101AFE00E4FBFAC3EB9DEA9C5018900000120056CE
:101B0E00A3E582B430F7E583B406F20BBB00010AFD
:021B1E0080E164
:011B200022A2
:1010A7007374617200656E64000000000000000048
:1010B7000000000000000000000000000000000029
:1010C7000000000000000000000000000000000019
:1010D7000000000000000000000000000000000009
:1010E70000000000000000000000000000000000F9
:1010F70000000000000000000000000000000000E9
:1011070000000000000000000000000000000000D8
:1011170000000000000000000000000000000000C8
:1011270000000000000000000000000000000000B8
:1011370000000000000000000000000000000000A8
:101147000000000000000000000000000000000098
:101157000000000000000000000000000000000088
:101167000000000000000000000000000000000078
:101177000000000000000000000000000000000068
:101187000000000000000000000000000000000058
:101197000000000000000000000000000000000048
:1011A7000000000000000000000000000000000038
:1011B7000000000000000000000000000000000028
:1011C7000000000000000000000000000000000018
:1011D7000000000000000000000000000000000008
:1011E70000000000000000000000000000000000F8
:1011F70000000000000000000000000000000000E8
:1012070000000000000000000000000000000000D7
:1012170000000000000000000000000000000000C7
:1012270000000000000000000000000000000000B7
:1012370000000000000000000000000000000000A7
:101247000000000000000000000000000000000097
:101257000000000000000000000000000000000087
:101267000000000000000000000000000000000077
:101277000000000000000000000000000000000067
:101287000000000000000000000000000000000057
:101297000000000000000000000000000000000047
:0912A7000000000000000000003E
:0A16D000C2ED7FE87E037D007C0080
:1016DA008035E4FFFEFDFC900007E0F8A3E0F9A3E3
:1016EA00E0FAA3E0FBC312102D6024900007E0FC8F
:1016FA00A3E0FDA3E0FEA3E024FFFFEE34FFFEED2E
:10170A0034FFFDEC34FFFC90000712103E80C32228
:101A6E0090022CEBF0A3EAF0A3E9F0A3EDF09002C4
:101A7E002FE0FF14F0EF601990022CE0FBA3E47549
:101A8E00F001120F49A9F0FA120F03FF12000380A2
:021A9E00DD2247
:1019580090035EEBF0A3EAF0A3E9F0A3EDF07FEECD
:10196800801E900361E0FF14F0EF601990035EE0C1
:10197800FBA3E475F001120F49A9F0FA120F03FF57
:0A19880012000380DD7FFF02000360
:101B4800900388EFF07FEE120003900388E0FF1205
:071B580000037FFF02000300
:101AA000C2B3C2B4C2C8C2C9C2C1C2F8C2EFC2FB8B
:101AB000C2A1C2A2C2A5C2A6C2C0C2CDC296C295D0
:101AC000C2EBC2EAC293C292C291C2CBC2CAC29056
:011AD00022F3
:100B4500D2B37FF47E01121AFA20B2077FC27E016A
:100B5500121AFAC2B37FF47E01121AFAD2B47FF4E4
:100B65007E01121AFA20B5077FC27E01121AFAC257
:100B7500B47FF47E01121AFAB280D2C87FF47E01E6
:100B8500121AFA20EE077FC27E01121AFAC2C87F36
:100B9500F47E01121AFAB280D2C97FF47E01121ACC
:100BA500FA20B6077FC27E01121AFAC2C97FF47E07
:100BB50001121AFAB280D2C17FF47E01121AFA200C
:100BC500B7077FC27E01121AFAC2C17FF47E0112F5
:100BD5001AFAB280D2F87FF47E01121AFA20F907C8
:100BE5007FC27E01121AFAC2F87FF47E01121AFA48
:100BF500B280D2EF7FF47E01121AFA20FA077FC283
:100C05007E01121AFAC2EF7FF47E01121AFAB2803F
:100C1500D2FB7FF47E01121AFA20A0077FC27E0163
:100C2500121AFAC2FB7FF47E01121AFAB280D2A11F
:100C35007FF47E01121AFA20C2077FC27E01121AC2
:100C4500FAC2A17FF47E01121AFAB280D2A27FF411
:100C55007E01121AFA20A3077FC27E01121AFAC278
:100C6500A27FF47E01121AFAB280D2A57FF47E012A
:100C7500121AFA20A4077FC27E01121AFAC2A57FB2
:100C8500F47E01121AFAB280D2A67FF47E01121AFE
:100C9500FA20A7077FC27E01121AFAC2A67FF47E48
:100CA50001121AFAB280D2C07FF47E01121AFA201C
:100CB500EC077FC27E01121AFAC2C07FF47E0112D0
:100CC5001AFAB280D2CD7FF47E01121AFA20CC072F
:100CD5007FC27E01121AFAC2CD7FF47E01121AFA82
:100CE500B280D2967FF47E01121AFA2097077FC24E
:100CF5007E01121AFAC2967FF47E01121AFAB280A8
:100D0500D2957FF47E01121AFA20C4077FC27E01B4
:100D1500121AFAC2957FF47E01121AFAB280D2EB4A
:100D25007FF47E01121AFA2094077FC27E01121AFF
:100D3500FAC2EB7FF47E01121AFAB280D2EA7FF48E
:100D45007E01121AFA20E9077FC27E01121AFAC241
:100D5500EA7FF47E01121AFAB280D2937FF47E0103
:100D6500121AFA20E8077FC27E01121AFAC2937F8F
:100D7500F47E01121AFAB280D2927FF47E01121A21
:100D8500FA2087077FC27E01121AFAC2927FF47E8B
:100D950001121AFAB280D2917FF47E01121AFA205A
:100DA50086077FC27E01121AFAC2917FF47E011274
:100DB5001AFAB280D2CB7FF47E01121AFA20850787
:100DC5007FC27E01121AFAC2CB7FF47E01121AFA93
:100DD500B280D2CA7FF47E01121AFA2084077FC23C
:100DE5007E01121AFAC2CA7FF47E01121AFAB28083
:100DF500D2907FF47E01121AFA2083077FC27E010A
:080E0500121AFAC290021AA0B1
:10159B00F0900356E090000DF0900109E090000EE2
:1015AB00F090010AE090000FF090010BE09000101A
:0B15BB00F07D057B017A00790C7C00BC
:1015C60090022CEBF0A3EAF0A3E9F0A3ECF0A3ED74
:0115D600F024
:1015D700E4A3F0FDFCD3900230E09D90022FE09C45
:1015E7004025900231E0FF90022CE0FBA3E0FAA334
:1015F700E0F98D828C83120F1CFEEF6E900231F0A2
:0C1607000DBD00010C80CE900231E0FF10
:0116130022B4
:1000B60078087C007D017BFF7A1079B07E017F0095
:1000C600120EDDE4900108F0780D7C017D017BFFC6
:1000D6007A1179B07E01FF120EDDE490020DF0A2D6
:1000E600B233900214F0A2B5E433A3F0A2EEE433E7
:1000F600A3F0A2B6E433A3F0A2B7E433A3F0A2F9C7
:10010600E433A3F0A2FAE433A3F0A2A0E433A3F00D
:10011600A2C2E433A3F0A2A3E433A3F0A2A4E4337F
:10012600A3F0A2A7E433A3F0A2ECE433A3F0A2CC9D
:10013600E433A3F0A297E433A3F0A2C4E433A3F01C
:10014600A294E433A3F0A2E9E433A3F0A2E8E433F3
:10015600A3F0A287E433A3F0A286E433A3F0A2853A
:10016600E433A3F0A284E433A3F0A283E433A3F040
:10017600900337E024F8FF90020DF07E00780D7CA6
:10018600017D017B017A027936120EDDA282B3E48B
:100196003390020EF0A2FCB3E433A3F0A2FDB3E465
:1001A60033A3F0A2FEB3E433A3F0A2FFB3E433A378
:1001B600F0A2C3B3E433A3F090020FE025E0FF9072
:1001C600020EE04FFF900210E025E025E04FFFA36E
:1001D600E033333354F84FFFA3E0C454F04FFFA38A
:1001E600E0C43354E04FFF90010CF090010EE0FEA6
:1001F6006F6003020B4490020DE064056003020782
:10020600D990010DE0900355F0A3EEF090010FE0B8
:10021600900357F0900110E0900358F0900111E020
:10022600900359F07B017A01790D7D047C0012154B
:10023600C6900007EFF0900359E06F6003020B448D
:10024600900355E0248070030205AD24F660030296
:100256000B44900358E0641160030205AAC2809023
:100266000357E014B4180040030205369002807567
:10027600F003A4C58325F0C583730202C80202E217
:100286000202FC02031602033002034A020364025E
:10029600037E0203980203B20203CC0203E60204C1
:1002A6000002041A02043402044E020468020482A4
:1002B60002049C0204B50204CE0204E70205000211
:1002C6000519D2B37FF47E01121AFA20B2077FC253
:1002D6007E01121AFAC2B3A2B2020530D2B47FF47A
:1002E6007E01121AFA20B5077FC27E01121AFAC2DF
:1002F600B4A2B5020530D2C87FF47E01121AFA20E4
:10030600EE077FC27E01121AFAC2C8A2EE020530BB
:10031600D2C97FF47E01121AFA20B6077FC27E0187
:10032600121AFAC2C9A2B6020530D2C17FF47E0102
:10033600121AFA20B7077FC27E01121AFAC2C1A2A8
:10034600B7020530D2F87FF47E01121AFA20F907B7
:100356007FC27E01121AFAC2F8A2F9020530D2EF64
:100366007FF47E01121AFA20FA077FC27E01121A62
:10037600FAC2EFA2FA020530D2FB7FF47E01121A0E
:10038600FA20A0077FC27E01121AFAC2FBA2A002BF
:100396000530D2A17FF47E01121AFA20C2077FC26D
:1003A6007E01121AFAC2A1A2C2020530D2A27FF4BD
:1003B6007E01121AFA20A3077FC27E01121AFAC220
:1003C600A2A2A3020530D2A57FF47E01121AFA205A
:1003D600A4077FC27E01121AFAC2A5A2A4020530A2
:1003E600D2A67FF47E01121AFA20A7077FC27E01E9
:1003F600121AFAC2A6A2A7020530D2C07FF47E0165
:10040600121AFA20EC077FC27E01121AFAC2C0A2A3
:10041600EC020530D2CD7FF47E01121AFA20CC0709
:100426007FC27E01121AFAC2CDA2CC020530D29644
:100436007FF47E01121AFA2097077FC27E01121AF4
:10044600FAC296A297020530D2957FF47E01121A5F
:10045600FA20C4077FC27E01121AFAC295A2C4020C
:100466000530D2EB7FF47E01121AFA2094077FC280
:100476007E01121AFAC2EBA294020530D2EA7FF488
:100486007E01121AFA20E9077FC27E01121AFAC209
:10049600EAA2E9020530D2937FF47E01121AFA200D
:1004A600E8077FC27E01121AFAC293A2E8807BD2C5
:1004B600927FF47E01121AFA2087077FC27E01120C
:1004C6001AFAC292A2878062D2917FF47E01121A32
:1004D600FA2086077FC27E01121AFAC291A286808E
:1004E60049D2CB7FF47E01121AFA2085077FC27E9D
:1004F60001121AFAC2CBA2858030D2CA7FF47E01DD
:10050600121AFA2084077FC27E01121AFAC2CAA200
:10051600848017D2907FF47E01121AFA2083077F17
:10052600C27E01121AFAC290A283E433900108F047
:10053600121AA078087C007D017BFF7A1079A77ECD
:10054600007F04120EDD900355E090000CF090033E
:1005560056E090000DF0900357E090000EF09001E9
:1005660008E06401700890000F7411F08005E490B3
:10057600000FF07D041215BE900007EFF0900010FA
:10058600F078117C007D017BFF7A1079AC7E007FCC
:1005960003120EDDE4900014F07B017A0079087DE9
:1005A6000C121A6ED28022900358E0643360030264
:1005B6000B44900357E060030206AD900215E02558
:1005C600E0FF900214E04FFF900216E025E025E0E0
:1005D6004FFFA3E033333354F84FFFA3E0C454F086
:1005E6004FFFA3E0C43354E04FFFA3E0C4333354BA
:1005F600C04FFFA3E0C433333354804F900109F05A
:1006060090021DE025E0FF90021CE04FFF90021EC5
:10061600E025E025E04FFFA3E033333354F84FFFE6
:10062600A3E0C454F04FFFA3E0C43354E04FFFA34C
:10063600E0C4333354C04FFFA3E0C4333333548094
:100646004F90010AF0900225E025E0FF900224E099
:100656004FFF900226E025E025E04FFFA3E033336D
:100666003354F84FFFA3E0C454F04FFFA3E0C43364
:1006760054E04FFFA3E0C4333354C04FFFA3E0C49C
:1006860033333354804F90010BF078087C007D01A2
:100696007BFF7A1079A77E007F04120EDD9003554A
:1006A600E090000C020921900357E014B4180040B2
:1006B6000302077C9006C875F003A4C58325F0C520
:1006C600837302071002071402071802071C0207A9
:1006D6002002072402072C020730020734020738DB
:1006E60002073C02074002074402074802074C0281
:1006F600075402075802075C0207600207640207F4
:100706006802076C020770020774A2B28062A2B583
:10071600805EA2EE805AA2B68056A2B78052A2F997
:10072600E433900108F0A2FA8046A2A08042A2C259
:10073600803EA2A3803AA2A48036A2A78032A2EC71
:10074600802EA2CC802AA297E433900108F0A2C49E
:10075600801EA294801AA2E98016A2E88012A287BF
:10076600800EA286800AA2858006A2848002A283C9
:10077600E433900108F078087C007D017BFF7A1055
:1007860079A77E007F04120EDD900355E090000CE1
:10079600F0900356E090000DF0900357E090000EA5
:1007A600F0900108E06401700890000F7411F08069
:1007B60005E490000FF07B017A00790C7D047C0043
:1007C6001215C6900007EFF0900010F078117C002B
:1007D600020A2E90020DE064036003020B449001AE
:1007E6000DE0900355F090010EE0900356F0900155
:1007F6000FE0900359F07B017A01790D7D027C00B0
:100806001215C6900007EFF0900359E06F600302DF
:100816000B44900355E0246F700302093424A07042
:1008260003020A4D147003020AC424626003020B19
:1008360044120B45900215E025E0FF900214E04FAC
:10084600FF900216E025E025E04FFFA3E0333333A7
:1008560054F84FFFA3E0C454F04FFFA3E0C4335451
:10086600E04FFFA3E0C4333354C04FFFA3E0C433CB
:10087600333354804F900109F090021DE025E0FFCC
:1008860090021CE04FFF90021EE025E025E04FFF9E
:10089600A3E033333354F84FFFA3E0C454F04FFFC3
:1008A600A3E0C43354E04FFFA3E0C4333354C04F36
:1008B600FFA3E0C433333354804F90010AF0900213
:1008C60025E025E0FF900224E04FFF900226E02578
:1008D600E025E04FFFA3E033333354F84FFFA3E0A6
:1008E600C454F04FFFA3E0C43354E04FFFA3E0C469
:1008F600333354C04FFFA3E0C433333354804F9097
:10090600010BF078087C007D017BFF7A1079A77EC9
:10091600007F04120EDD90000C748012159B90006F
:1009260007EFF0900011F078127C00020A2E120BED
:1009360045900215E025E0FF900214E04FFF90027B
:1009460016E025E025E04FFFA3E033333354F84F9C
:10095600FFA3E0C454F04FFFA3E0C43354E04FFFBD
:10096600A3E0C4333354C04FFFA3E0C4333333543E
:10097600804F900109F090021DE025E0FF90021CD7
:10098600E04FFF90021EE025E025E04FFFA3E03395
:10099600333354F84FFFA3E0C454F04FFFA3E0C431
:1009A6003354E04FFFA3E0C4333354C04FFFA3E0FA
:1009B600C433333354804F90010AF0900225E0256A
:1009C600E0FF900224E04FFF900226E025E025E0BC
:1009D6004FFFA3E033333354F84FFFA3E0C454F082
:1009E6004FFFA3E0C43354E04FFFA3E0C4333354B6
:1009F600C04FFFA3E0C433333354804F90010BF054
:100A060078087C007D017BFF7A1079A77E007F0441
:100A1600120EDD90000C748012159B900007EFF00B
:100A2600900011F078127C007D017BFF7A1079AC82
:100A36007E007F03120EDDE4900014F07B017A0045
:100A460079087D0C020B417E017F007D007B017AD7
:100A560000790812107B78087C007D017BFF7A10F4
:100A660079A77E007F04120EDD900355E090000CFE
:100A7600F090010CE090000DF0E4A3F0A3F0A304C5
:100A8600F0FB7A00790C7D057C001215C6900007F4
:100A9600EFF0900011F078127C007D017BFF7A1058
:100AA60079AC7E007F03120EDDE4900015F07F32F4
:100AB600FE121AFA7B017A0079087D0D807D7E018F
:100AC6007F007D007B017A00790812107B78087C14
:100AD600007D017BFF7A1079A77E007F04120EDD70
:100AE600900355E090000CF090010CE090000DF0A2
:100AF600A37453F0A304F0A37443F0A37402F07B31
:100B0600017A00790C7D067C001215C6900007EF6D
:100B1600F0900012F078137C007D017BFF7A10794B
:100B2600AC7E007F03120EDDE4900016F07F32FEED
:0E0B3600121AFA7B017A0079087D0E121A6EEF
:010B4400228E
:101B210075926FE4F591759666F59575B218F5B1F4
:101B310075B403F5B375CA2FF5C975CC8CF5CB75A2
:071B4100E209F5E1021AA020
:1012B00090000012104A00000000E4900004F0A327
:1012C000F0A3F0120026121BA1D2ACD2AF121B2148
:1012D000E4900004F0A3F0C2807F327E00121AFA7C
:1012E000D2807F327E00121AFA900005E004F0707E
:1012F00006900004E004F0C3900005E0940590001F
:1013000004E06480948040CF1216D21216D090036D
:1013100032E06401702F7FE87E03FDFC1216DAD202
:10132000ED1216D21200B61216D21216D07E007F1F
:101330000D7D007B017A02793212107BE490033735
:10134000F0900332F0900000E0FCA3E0FDA3E0FE8B
:10135000A3E02401FFE43EFEE43DFDE43CFC9000FC
:101360000012103E900006E070327BC8FAF9F89047
:101370000000E0FCA3E0FDA3E0FEA3E0FF120F9B52
:10138000AC00AD01AE02AF03E4FBFAF9F8C31210F2
:101390002D703990000604F0C2808030E47B14FA8E
:1013A000F9F8900000E0FCA3E0FDA3E0FEA3E0FF5D
:1013B000120F9BAC00AD01AE02AF03E4FBFAF9F8EB
:1013C000C312102D7006900006F0D2807F057E00BB
:0613D000121AFA02130ECE
:10003E0041033300410336004103370041033200D0
:10175A008035E4FFFEFDFC900362E0F8A3E0F9A304
:10176A00E0FAA3E0FBC312102D6024900362E0FCB0
:10177A00A3E0FDA3E0FEA3E024FFFFEE34FFFEEDAD
:10178A0034FFFDEC34FFFC90036212103E80C3224A
:10002600759850438E01438E0475D78F75D6FD4360
:030036008E102207
:080003008F993099FDC299228A
:1000660090037EEBF0A3EAF0A3E9F090037EE0FBB9
:10007600A3E0FAA3E0F9120F03601790037EA3E44E
:1000860075F001120F49A9F0FA120F03FF120003CF
:0300960080D922EC
:030023000213D6EF
:0B13D600C0E0C083C082C0D075D0080A
:1013E100309904C299C200209803021486C298AFB2
:1013F10099900337E0FE2432F582E43402F583EF5D
:10140100F0EED3940D748094804005900337E4F09E
:10141100900232E064737065A3E06474705FA3E0CE
:1014210064617059A3E064727053900337E0D39400
:1014310004748094804046900336E0146016146072
:101441002014602924037037EF64657032900336ED
:1014510004F0802BEF646E70269003367402F080E6
:101461001EEFB4641A9003367403F08012EFB46F68
:101471000E900336E4F090033204F08002D28C9097
:051481000337E004F058
:09148600D0D0D082D083D0E03236
:04005D00E4F5A22202
:10179A008035E4FFFEFDFC900366E0F8A3E0F9A3C0
:1017AA00E0FAA3E0FBC312102D6024900366E0FC6C
:1017BA00A3E0FDA3E0FEA3E024FFFFEE34FFFEED6D
:1017CA0034FFFDEC34FFFC90036612103E80C32206
:1016850090038174FFF0A374FDF0A374F9F0E49066
:101695000389F0900389E0FFFD3395E0FCC3ED94E9
:1016A50007EC648094805022900381E0FBA3E0FA6C
:1016B500A3E0F9EF3395E08F82F583120F1CFF123B
:0A16C5000003900389E004F080C9DF
:0116CF0022F8
:10191A00900381E4F0A3F0A374F1F0E490038AF059
:10192A0090038AE0FFC3940774809480501F900349
:10193A0081E0FBA3E0FAA3E0F98F82758300120F1E
:0D194A001CFF12000390038AE004F080D31C
:01195700226D
:1017DA008035E4FFFEFDFC90036AE0F8A3E0F9A37C
:1017EA00E0FAA3E0FBC312102D602490036AE0FC28
:1017FA00A3E0FDA3E0FEA3E024FFFFEE34FFFEED2D
:10180A0034FFFDEC34FFFC90036A12103E80C322C1
:101B5F00E4F594F5937592FFF591F5967595FF75EC
:061B6F00B2FF75B1FF2278
:10181A008035E4FFFEFDFC90036EE0F8A3E0F9A337
:10182A00E0FAA3E0FBC312102D602490036EE0FCE3
:10183A00A3E0FDA3E0FEA3E024FFFFEE34FFFEEDEC
:10184A0034FFFDEC34FFFC90036E12103E80C3227D
:101BA100538E7FE4F589758AA0758C15D2A9C28DF3
:031BB100C28C22C1
:03000B00021B7560
:101B7500C0E0C083C082C28DC28C900337E4F0D030
:061B850082D083D0E032A3
:03001B0002001EC2
:05001E00C28FC28E320A
:101BB400538EBFE4F589758BE5758DBED2ABC28FAC
:031BC400C28E22AC
:03006300021992ED
:10199200C0E0C083C082C0D053EFFE900385E00454
:1019A200F07006900384E004F0C3900385E0942C69
:1019B200900384E094014006E4F0A3F0B280D0D01A
:0719C200D082D083D0E03297
:0F1BC70075D76675D6FC758E1075AF04D2AF2238
:03009B000219C97E
:1019C900C0E0C083C082C0D053EFFD900385E0041E
:1019D900F07006900384E004F0C3900385E094BCA2
:1019E900900384E094024006E4F0A3F0B280D0D0E2
:0719F900D082D083D0E03260
:0F1BD60075D56675D4FC75D10875AF20D2AF22D6
:0300A300021A003E
:101A0000C0E0C083C082C0D053EFFB900385E004E8
:101A1000F07006900384E004F0C3900385E094E83E
:101A2000900384E094034006E4F0A3F0B280D0D0A9
:071A3000D082D083D0E03228
:0F1BE50075D36675D2FC75D18075AF40D2AF2233
:10185A008035E4FFFEFDFC900372E0F8A3E0F9A3F3
:10186A00E0FAA3E0FBC312102D6024900372E0FC9F
:10187A00A3E0FDA3E0FEA3E024FFFFEE34FFFEEDAC
:10188A0034FFFDEC34FFFC90037212103E80C32239
:0D000E00E4F59275910175DE2F75BC80221E
:101B8B0043BC400000E5BC30E5FB53BCDFAFBDEF11
:051B9B00FEADBEEDFFF0
:011BA0002222
:07004E00C18142038600009E
:10189A008035E4FFFEFDFC900376E0F8A3E0F9A3AF
:1018AA00E0FAA3E0FBC312102D6024900376E0FC5B
:1018BA00A3E0FDA3E0FEA3E024FFFFEE34FFFEED6C
:1018CA0034FFFDEC34FFFC90037612103E80C322F5
:101AD10075BA8090FFF2E4F090FFF07410F0A3E487
:101AE100F090FF00F0A3F0A3F0A304F0A37480F042
:091AF100E4F5BA75FEC0D2AF2283
:0300B3000216141E
:0B161400C0E0C083C082C0D075D008C9
:10161F00E5F130E75853F17F30011D900387E00467
:10162F00F07006900386E004F0C3900386E06480B8
:10163F0094904023C201801F900387E024FFF09015
:10164F000386E034FFF0D3A3E09401900386E064B7
:10165F008094805002D201C0BA43BA80900386E0D2
:0D166F00FFA3E090FF02CFF0A3EFF0D0BA90
:09167C00D0D0D082D083D0E0323E
:1018DA008035E4FFFEFDFC90037AE0F8A3E0F9A36B
:1018EA00E0FAA3E0FBC312102D602490037AE0FC17
:1018FA00A3E0FDA3E0FEA3E024FFFFEE34FFFEED2C
:10190A0034FFFDEC34FFFC90037A12103E80C322B0
:101A3700E490034CF0A312104A00000000900351F9
:101A470012104A0000000090034812104A000000DC
:101A570000E4F5D875D909F5E9F5F975DA21F5EA5C
:071A6700F5FAD2DED2AF2236
:03003B0002151B90
:10151B00C0E0C0F0C083C082C0D075D00830DF08F7
:10152B00C2DF90034CE004F030D85AC2D89003517C
:10153B00E0FCA3E0FDA3E0FEA3E0FF90034D12103F
:10154B003E900354E5EAF0900353E5FAF090034C18
:10155B00E0900352F0900351E4F090034DE0F8A3B8
:10156B00E0F9A3E0FAA3E0FBA3E0FCA3E0FDA3E01A
:10157B00FEA3E0C39BFFEE9AFEED99FDEC98FC9069
:10158B00034812103ED0D0D082D083D0F0D0E032BE
:0300000002148F58
:0C148F00787FE4F6D8FD7581200214D6A9
:100E0D00E709F608DFFA8046E709F208DFFA803EC7
:100E1D0088828C83E709F0A3DFFA8032E309F608B4
:100E2D00DFFA8078E309F208DFFA807088828C831C
:100E3D00E309F0A3DFFA806489828A83E0A3F608D0
:100E4D00DFFA805889828A83E0A3F208DFFA804CAA
:100E5D0080D280FA80C680D4806980F28033801081
:100E6D0080A680EA809A80A880DA80E280CA8033EA
:100E7D0089828A83ECFAE493A3C8C582C8CCC58362
:100E8D00CCF0A3C8C582C8CCC583CCDFE9DEE78032
:100E9D000D89828A83E493A3F608DFF9ECFAA9F0B1
:100EAD00EDFB2289828A83ECFAE0A3C8C582C8CC07
:100EBD00C583CCF0A3C8C582C8CCC583CCDFEADE20
:100ECD00E880DB89828A83E493A3F208DFF980CC82
:100EDD0088F0EF60010E4E60C388F0ED2402B4047B
:100EED000050B9F582EB2402B4040050AF23234522
:060EFD008223900E5D73DC
:100F0300BB010689828A83E0225002E722BBFE02EC
:090F1300E32289828A83E493221F
:100F1C00BB010CE58229F582E5833AF583E022508A
:100F2C0006E92582F8E622BBFE06E92582F8E222D4
:0D0F3C00E58229F582E5833AF583E49322EE
:100F4900A3F8E0C5F025F0F0E5821582700215835B
:060F5900E0C838F0E822B8
:100F5F0075F008758200EF2FFFEE33FECD33CDCC49
:100F6F0033CCC58233C5829BED9AEC99E5829840CC
:100F7F000CF582EE9BFEED9AFDEC99FC0FD5F0D6A9
:100F8F00E4CEFBE4CDFAE4CCF9A88222B800C1B9D3
:100F9F000059BA002DEC8BF084CFCECDFCE5F0CB11
:100FAF00F97818EF2FFFEE33FEED33FDEC33FCEB4A
:100FBF0033FB10D703994004EB99FB0FD8E5E4F905
:100FCF00FA227818EF2FFFEE33FEED33FDEC33FCF2
:100FDF00C933C910D7059BE99A4007EC9BFCE99AE6
:100FEF00F90FD8E0E4C9FAE4CCFB2275F010EF2F2B
:100FFF00FFEE33FEED33FDCC33CCC833C810D7072B
:10100F009BEC9AE899400AED9BFDEC9AFCE899F865
:0E101F000FD5F0DAE4CDFBE4CCFAE4C8F922F8
:10102D00EB9FF5F0EA9E42F0E99D42F0E89C45F019
:01103D002290
:0C103E00ECF0A3EDF0A3EEF0A3EFF02225
:10104A00A8828583F0D083D08212106112106112B7
:10105A001061121061E473E493A3C583C5F0C583DC
:10106A00C8C582C8F0A3C583C5F0C583C8C582C8F0
:01107A002253
:10107B00EF4E6012EF60010EEDBB010B89828A838C
:10108B00F0A3DFFCDEFA2289F05007F709DFFCA999
:0C109B00F022BBFEFCF309DFFCA9F022F0
:10149B000212B0E493A3F8E493A34003F68001F2A5
:1014AB0008DFF48029E493A3F85407240CC8C33352
:1014BB00C4540F4420C8834004F456800146F6DF21
:1014CB00E4800B010204081020408090003EE47E73
:1014DB00019360BCA3FF543F30E509541FFEE49316
:1014EB00A360010ECF54C025E060A840B8E493A3DD
:1014FB00FAE493A3F8E493A3C8C582C8CAC583CA08
:10150B00F0A3C8C582C8CAC583CADFE9DEE780BEBF
:0100550000AA
:00000001FF
