:101567008035E4FFFEFDFC900357E0F8A3E0F9A304
:10157700E0FAA3E0FBC3120EEE6024900357E0FCF1
:10158700A3E0FDA3E0FEA3E024FFFFEE34FFFEEDA2
:1015970034FFFDEC34FFFC900357120EFF80C3228B
:0D1A4100007F067E9D7D3BDDFEDEFCDFFAB2
:011A4E002275
:0600560000007F01DFFE47
:01005C002281
:04194700AD07AC0636
:10194B00E4FBFAC3EB9DEA9C501890000012005682
:10195B00A3E582B4DAF7E583B402F20BBB00010A0C
:02196B0080E119
:01196D002257
:100F68007374617200656E64000000000000000088
:100F78000000000000000000000000000000000069
:100F88000000000000000000000000000000000059
:100F98000000000000000000000000000000000049
:100FA8000000000000000000000000000000000039
:100FB8000000000000000000000000000000000029
:100FC8000000000000000000000000000000000019
:100FD8000000000000000000000000000000000009
:100FE80000000000000000000000000000000000F9
:100FF80000000000000000000000000000000000E9
:1010080000000000000000000000000000000000D8
:1010180000000000000000000000000000000000C8
:1010280000000000000000000000000000000000B8
:1010380000000000000000000000000000000000A8
:101048000000000000000000000000000000000098
:101058000000000000000000000000000000000088
:101068000000000000000000000000000000000078
:101078000000000000000000000000000000000068
:101088000000000000000000000000000000000058
:101098000000000000000000000000000000000048
:1010A8000000000000000000000000000000000038
:1010B8000000000000000000000000000000000028
:1010C8000000000000000000000000000000000018
:1010D8000000000000000000000000000000000008
:1010E80000000000000000000000000000000000F8
:1010F80000000000000000000000000000000000E8
:1011080000000000000000000000000000000000D7
:1011180000000000000000000000000000000000C7
:1011280000000000000000000000000000000000B7
:1011380000000000000000000000000000000000A7
:101148000000000000000000000000000000000097
:101158000000000000000000000000000000000087
:091168000000000000000000007E
:0A151D00C2ED7FE87E037D007C0034
:101527008035E4FFFEFDFC900004E0F8A3E0F9A39A
:10153700E0FAA3E0FBC3120EEE6024900004E0FC87
:10154700A3E0FDA3E0FEA3E024FFFFEE34FFFEEDE2
:1015570034FFFDEC34FFFC900004120EFF80C32221
:1018BB00900229EBF0A3EAF0A3E9F0A3EDF090027C
:1018CB002CE0FF14F0EF6019900229E0FBA3E47504
:1018DB00F001120E0AA9F0FA120DC4FF12000380D8
:0218EB00DD22FC
:1017A50090035BEBF0A3EAF0A3E9F0A3EDF07FEE85
:1017B500801E90035EE0FF14F0EF601990035BE07C
:1017C500FBA3E475F001120E0AA9F0FA120DC4FF8D
:0A17D50012000380DD7FFF02000315
:10199500900385EFF07FEE120003900385E0FF12C0
:0719A50000037FFF020003B5
:1018ED00C2B3C2B4C2C8C2C9C2C1C2F8C2EFC2FB40
:1018FD00C2A1C2A2C2A5C2A6C2C0C2CDC296C29585
:10190D00C2EBC2EAC293C292C291C2CBC2CAC2900A
:01191D0022A7
:100A0600D2B37FF47E0112194720B2077FC27E015E
:100A1600121947C2B37FF47E01121947D2B47FF48C
:100A26007E0112194720B5077FC27E01121947C2FF
:100A3600B47FF47E01121947B280D2C87FF47E01DA
:100A460012194720EE077FC27E01121947C2C87FDE
:100A5600F47E01121947B280D2C97FF47E011219C1
:100A66004720B6077FC27E01121947C2C97FF47EAE
:100A760001121947B280D2C17FF47E0112194720B4
:100A8600B7077FC27E01121947C2C17FF47E0112E9
:100A96001947B280D2F87FF47E0112194720F90770
:100AA6007FC27E01121947C2F87FF47E01121947F0
:100AB600B280D2EF7FF47E0112194720FA077FC277
:100AC6007E01121947C2EF7FF47E01121947B280E8
:100AD600D2FB7FF47E0112194720A0077FC27E0158
:100AE600121947C2FB7FF47E01121947B280D2A1C8
:100AF6007FF47E0112194720C2077FC27E011219B8
:100B060047C2A17FF47E01121947B280D2A27FF4B8
:100B16007E0112194720A3077FC27E01121947C220
:100B2600A27FF47E01121947B280D2A57FF47E011E
:100B360012194720A4077FC27E01121947C2A57F5A
:100B4600F47E01121947B280D2A67FF47E011219F3
:100B56004720A7077FC27E01121947C2A67FF47EEF
:100B660001121947B280D2C07FF47E0112194720C4
:100B7600EC077FC27E01121947C2C07FF47E0112C4
:100B86001947B280D2CD7FF47E0112194720CC07D7
:100B96007FC27E01121947C2CD7FF47E011219472A
:100BA600B280D2967FF47E011219472097077FC242
:100BB6007E01121947C2967FF47E01121947B28050
:100BC600D2957FF47E0112194720C4077FC27E01A9
:100BD600121947C2957FF47E01121947B280D2EBF3
:100BE6007FF47E011219472094077FC27E011219F5
:100BF60047C2EB7FF47E01121947B280D2EA7FF436
:100C06007E0112194720E9077FC27E01121947C2E9
:100C1600EA7FF47E01121947B280D2937FF47E01F7
:100C260012194720E8077FC27E01121947C2937F37
:100C3600F47E01121947B280D2927FF47E01121916
:100C4600472087077FC27E01121947C2927FF47E32
:100C560001121947B280D2917FF47E011219472002
:100C660086077FC27E01121947C2917FF47E011268
:100C76001947B280D2CB7FF47E011219472085072F
:100C86007FC27E01121947C2CB7FF47E011219473B
:100C9600B280D2CA7FF47E011219472084077FC230
:100CA6007E01121947C2CA7FF47E01121947B2802B
:100CB600D2907FF47E011219472083077FC27E01FE
:080CC600121947C2900218ED5B
:1013E800F0900353E090000AF0900106E090000BA3
:1013F800F0900107E090000CF0900108E090000DDB
:0B140800F07D057B017A0079097C0073
:10141300900229EBF0A3EAF0A3E9F0A3ECF0A3ED2B
:01142300F0D8
:10142400E4A3F0FDFCD390022DE09D90022CE09CFF
:10143400402590022EE0FF900229E0FBA3E0FAA3EE
:10144400E0F98D828C83120DDDFEEF6E90022EF09A
:0C1454000DBD00010C80CE90022EE0FFC8
:011460002269
:1000B60078057C007D017BFF7A0F79717E017F00D8
:1000C600120D9EE4900105F0780A7C017D017BFF0C
:1000D6007A1079717E01FF120D9EE490020AF0A259
:1000E600B233900211F0A2B5E433A3F0A2EEE433EA
:1000F600A3F0A2B6E433A3F0A2B7E433A3F0A2F9C7
:10010600E433A3F0A2FAE433A3F0A2A0E433A3F00D
:10011600A2C2E433A3F0A2A3E433A3F0A2A4E4337F
:10012600A3F0A2A7E433A3F0A2ECE433A3F0A2CC9D
:10013600E433A3F0A297E433A3F0A2C4E433A3F01C
:10014600A294E433A3F0A2E9E433A3F0A2E8E433F3
:10015600A3F0A287E433A3F0A286E433A3F0A2853A
:10016600E433A3F0A284E433A3F0A283E433A3F040
:10017600900334E024F8FF90020AF07E00780A7CAF
:10018600017D017B017A027933120D9EA282B3E4CE
:100196003390020BF0A2FCB3E433A3F0A2FDB3E468
:1001A60033A3F0A2FEB3E433A3F0A2FFB3E433A378
:1001B600F0A2C3B3E433A3F090020CE025E0FF9075
:1001C600020BE04FFF90020DE025E025E04FFFA374
:1001D600E033333354F84FFFA3E0C454F04FFFA38A
:1001E600E0C43354E04FFF900109F090010BE0FEAC
:1001F6006F6003020A0590020AE0640560030207C5
:100206009F90010AE0900352F0A3EEF090010CE0FB
:10021600900354F090010DE0900355F090010EE02C
:10022600900356F07B017A01790A7D047C00121452
:1002360013900004EFF0900356E06F6003020A0586
:10024600900352E02480700302057B24F6600302CB
:100256000A05900355E064116003020A05900354F1
:10026600E014B41800400302053490027E75F003D2
:10027600A4C58325F0C583730202C60202E002020A
:10028600FA02031402032E02034802036202037CED
:100296000203960203B00203CA0203E40203FE024B
:1002A600041802043202044C0204660204800204AA
:1002B6009A0204B30204CC0204E50204FE02051706
:1002C600D2B37FF47E0112194720B2077FC27E01A6
:1002D600121947C2B3A2B202052ED2B47FF47E0130
:1002E60012194720B5077FC27E01121947C2B4A270
:1002F600B502052ED2C87FF47E0112194720EE07FB
:100306007FC27E01121947C2C8A2EE02052ED2C9CB
:100316007FF47E0112194720B6077FC27E011219AB
:1003260047C2C9A2B602052ED2C17FF47E011219B8
:100336004720B7077FC27E01121947C2C1A2B70282
:10034600052ED2F87FF47E0112194720F9077FC2E5
:100356007E01121947C2F8A2F902052ED2EF7FF4E8
:100366007E0112194720FA077FC27E01121947C281
:10037600EFA2FA02052ED2FB7FF47E011219472066
:10038600A0077FC27E01121947C2FBA2A002052E5A
:10039600D2A17FF47E0112194720C2077FC27E01D7
:1003A600121947C2A1A2C202052ED2A27FF47E0173
:1003B60012194720A3077FC27E01121947C2A2A2C3
:1003C600A302052ED2A57FF47E0112194720A407A9
:1003D6007FC27E01121947C2A5A2A402052ED2A68B
:1003E6007FF47E0112194720A7077FC27E011219EA
:1003F60047C2A6A2A702052ED2C07FF47E0112191B
:100406004720EC077FC27E01121947C2C0A2EC0248
:10041600052ED2CD7FF47E0112194720CC077FC26C
:100426007E01121947C2CDA2CC02052ED2967FF4C8
:100436007E011219472097077FC27E01121947C213
:1004460096A29702052ED2957FF47E0112194720B7
:10045600C4077FC27E01121947C295A2C402052EA7
:10046600D2EB7FF47E011219472094077FC27E01EA
:10047600121947C2EBA29402052ED2EA7FF47E013E
:1004860012194720E9077FC27E01121947C2EAA264
:10049600E902052ED2937FF47E0112194720E80760
:1004A6007FC27E01121947C293A2E8807BD2927F57
:1004B600F47E011219472087077FC27E0112194771
:1004C600C292A2878062D2917FF47E0112194720E0
:1004D60086077FC27E01121947C291A2868049D241
:1004E600CB7FF47E011219472085077FC27E011259
:1004F6001947C2CBA2858030D2CA7FF47E01121979
:10050600472084077FC27E01121947C2CAA284808F
:1005160017D2907FF47E011219472083077FC27E8F
:1005260001121947C290A283E433900105F0121814
:10053600ED78057C007D017BFF7A0F79687E007F70
:1005460004120D9E900352E0900009F0900353E0D0
:1005560090000AF0900354E090000BF0900105E043
:100566006401700990000C7411F002078AE490008F
:100576000CF002078A900355E064336003020A0513
:10058600900354E0600302067B900212E025E0FF30
:10059600900211E04FFF900213E025E025E04FFFA7
:1005A600A3E033333354F84FFFA3E0C454F04FFFB6
:1005B600A3E0C43354E04FFFA3E0C4333354C04F29
:1005C600FFA3E0C433333354804F900106F090020A
:1005D6001AE025E0FF900219E04FFF90021BE0258C
:1005E600E025E04FFFA3E033333354F84FFFA3E099
:1005F600C454F04FFFA3E0C43354E04FFFA3E0C45C
:10060600333354C04FFFA3E0C433333354804F9089
:100616000107F0900222E025E0FF900221E04FFF63
:10062600900223E025E025E04FFFA3E03333335467
:10063600F84FFFA3E0C454F04FFFA3E0C43354E0E7
:100646004FFFA3E0C4333354C04FFFA3E0C433339A
:100656003354804F900108F078057C007D017BFFC4
:100666007A0F79687E007F04120D9E900352E09007
:1006760000090208D9900354E014B418004003029C
:10068600074A90069675F003A4C58325F0C58373C3
:100696000206DE0206E20206E60206EA0206EE02AC
:1006A60006F20206FA0206FE020702020706020721
:1006B6000A02070E02071202071602071A0207228B
:1006C60002072602072A02072E020732020736020F
:1006D600073A02073E020742A2B28062A2B5805ED6
:1006E600A2EE805AA2B68056A2B78052A2F9E4338F
:1006F600900105F0A2FA8046A2A08042A2C2803EE6
:10070600A2A3803AA2A48036A2A78032A2EC802EB1
:10071600A2CC802AA297E433900105F0A2C4801EE1
:10072600A294801AA2E98016A2E88012A287800EFF
:10073600A286800AA2858006A2848002A283E43370
:10074600900105F078057C007D017BFF7A0F7968C2
:100756007E007F04120D9E900352E0900009F090F7
:100766000353E090000AF0900354E090000BF090E1
:100776000105E06401700890000C7411F08005E436
:1007860090000CF07D0412140B900004EFF0900022
:100796000DF0780E7C000209E690020AE064036020
:1007A60003020A0590010AE0900352F090010BE063
:1007B600900353F090010CE0900356F07B017A0110
:1007C600790A7D027C00121413900004EFF0900366
:1007D60056E06F6003020A05900352E0246F70032F
:1007E6000208EC046003020A05120A06900212E0EF
:1007F60025E0FF900211E04FFF900213E025E0256F
:10080600E04FFFA3E033333354F84FFFA3E0C45463
:10081600F04FFFA3E0C43354E04FFFA3E0C43333EB
:1008260054C04FFFA3E0C433333354804F900106C6
:10083600F090021AE025E0FF900219E04FFF9002C7
:100846001BE025E025E04FFFA3E033333354F84F98
:10085600FFA3E0C454F04FFFA3E0C43354E04FFFBE
:10086600A3E0C4333354C04FFFA3E0C4333333543F
:10087600804F900107F0900222E025E0FF900221D0
:10088600E04FFF900223E025E025E04FFFA3E03391
:10089600333354F84FFFA3E0C454F04FFFA3E0C432
:1008A6003354E04FFFA3E0C4333354C04FFFA3E0FB
:1008B600C433333354804F900108F078057C007DB3
:1008C600017BFF7A0F79687E007F04120D9E9000EF
:1008D6000974801213E8900004EFF090000EF0788F
:1008E6000F7C000209E6120A06900212E025E0FFDC
:1008F600900211E04FFF900213E025E025E04FFF44
:10090600A3E033333354F84FFFA3E0C454F04FFF52
:10091600A3E0C43354E04FFFA3E0C4333354C04FC5
:10092600FFA3E0C433333354804F900106F09002A6
:100936001AE025E0FF900219E04FFF90021BE02528
:10094600E025E04FFFA3E033333354F84FFFA3E035
:10095600C454F04FFFA3E0C43354E04FFFA3E0C4F8
:10096600333354C04FFFA3E0C433333354804F9026
:100976000107F0900222E025E0FF900221E04FFF00
:10098600900223E025E025E04FFFA3E03333335404
:10099600F84FFFA3E0C454F04FFFA3E0C43354E084
:1009A6004FFFA3E0C4333354C04FFFA3E0C4333337
:1009B6003354804F900108F078057C007D017BFF61
:1009C6007A0F79687E007F04120D9E90000974806C
:1009D6001213E8900004EFF090000EF0780F7C0000
:1009E6007D017BFF7A0F796D7E007F03120D9EE4F9
:0F09F600900011F07B017A0079057D0C1218BB7F
:010A050022CE
:10196E0075926FE4F591759666F59575B218F5B1A9
:10197E0075B403F5B375CA2FF5C975CC8CF5CB7557
:07198E00E209F5E10218ED8A
:10122A00900000120F0B000000001200261219EEA7
:10123A00D2ACD2AF12196E12151F12151D90032FC0
:10124A00E06401702F7FE87E03FDFC121527D2EDC2
:10125A0012151F1200B612151F12151D7E007F0DE2
:10126A007D007B017A02792F120F3CE4900334F05F
:10127A0090032FF0900000E0FCA3E0FDA3E0FEA3A2
:10128A00E02401FFE43EFEE43DFDE43CFC90000066
:10129A00120EFFE47BE87A03F9F8900000E0FCA361
:1012AA00E0FDA3E0FEA3E0FF120E5CAC00AD01AED0
:1012BA0002AF03E4FBFAF9F8C3120EEE700AC28019
:1012CA007F32FE121947D2807F057E00121947022B
:0212DA001247B9
:10003E0041033000410333004103340041032F00DC
:1015A7008035E4FFFEFDFC90035FE0F8A3E0F9A3BC
:1015B700E0FAA3E0FBC3120EEE602490035FE0FCA9
:1015C700A3E0FDA3E0FEA3E024FFFFEE34FFFEED62
:1015D70034FFFDEC34FFFC90035F120EFF80C32243
:10002600759850438E01438E0475D78F75D6FD4360
:030036008E102207
:080003008F993099FDC299228A
:1000660090037BEBF0A3EAF0A3E9F090037BE0FBBF
:10007600A3E0FAA3E0F9120DC4601790037BA3E492
:1000860075F001120E0AA9F0FA120DC4FF12000350
:0300960080D922EC
:0300230002117156
:0B117100C0E0C083C082C0D075D00871
:10117C00309904C299C200209803021221C298AF80
:10118C0099900334E0FE242FF582E43402F583EFCA
:10119C00F0EED3940D748094804005900334E4F009
:1011AC0090022FE064737065A3E06474705FA3E039
:1011BC0064617059A3E064727053900334E0D3946B
:1011CC0004748094804046900333E01460161460DD
:1011DC002014602924037037EF6465703290033358
:1011EC0004F0802BEF646E70269003337402F08051
:1011FC001EEFB4641A9003337403F08012EFB46FD3
:10120C000E900333E4F090032F04F08002D28C9004
:05121C000334E004F0C2
:09122100D0D0D082D083D0E0329D
:04005D00E4F5A22202
:1015E7008035E4FFFEFDFC900363E0F8A3E0F9A378
:1015F700E0FAA3E0FBC3120EEE6024900363E0FC65
:10160700A3E0FDA3E0FEA3E024FFFFEE34FFFEED21
:1016170034FFFDEC34FFFC900363120EFF80C322FE
:1014D20090037E74FFF0A374FDF0A374F9F0E4901E
:1014E2000386F0900386E0FFFD3395E0FCC3ED94A4
:1014F20007EC64809480502290037EE0FBA3E0FA24
:10150200A3E0F9EF3395E08F82F583120DDDFF1230
:0A1512000003900386E004F080C996
:01151C0022AC
:1017670090037EE4F0A3F0A374F1F0E4900387F014
:10177700900387E0FFC3940774809480501F900301
:101787007EE0FBA3E0FAA3E0F98F82758300120DD8
:0D179700DDFF120003900387E004F080D313
:0117A4002222
:101627008035E4FFFEFDFC900367E0F8A3E0F9A333
:10163700E0FAA3E0FBC3120EEE6024900367E0FC20
:10164700A3E0FDA3E0FEA3E024FFFFEE34FFFEEDE1
:1016570034FFFDEC34FFFC900367120EFF80C322BA
:1019AC00E4F594F5937592FFF591F5967595FF75A1
:0619BC00B2FF75B1FF222D
:101667008035E4FFFEFDFC90036BE0F8A3E0F9A3EF
:10167700E0FAA3E0FBC3120EEE602490036BE0FCDC
:10168700A3E0FDA3E0FEA3E024FFFFEE34FFFEEDA1
:1016970034FFFDEC34FFFC90036B120EFF80C32276
:1019EE00538E7FE4F589758AA0758C15D2A9C28DA8
:0319FE00C28C2276
:03000B000219C215
:1019C200C0E0C083C082C28DC28C900334E4F0D0E8
:0619D20082D083D0E03258
:03001B0002001EC2
:05001E00C28FC28E320A
:101A0100538EBFE4F589758BE5758DBED2ABC28F60
:031A1100C28E2260
:030063000217DFA2
:1017DF00C0E0C083C082C0D053EFFE900382E0040C
:1017EF00F07006900381E004F0C3900382E0942C24
:1017FF00900381E094014006E4F0A3F0B280D0D0D2
:07180F00D082D083D0E0324B
:0F1A140075D76675D6FC758E1075AF04D2AF22EC
:03009B0002181632
:10181600C0E0C083C082C0D053EFFD900382E004D5
:10182600F07006900381E004F0C3900382E094BC5C
:10183600900381E094024006E4F0A3F0B280D0D099
:07184600D082D083D0E03214
:0F1A230075D56675D4FC75D10875AF20D2AF228A
:0300A30002184DF3
:10184D00C0E0C083C082C0D053EFFB900382E004A0
:10185D00F07006900381E004F0C3900382E094E8F9
:10186D00900381E094034006E4F0A3F0B280D0D061
:07187D00D082D083D0E032DD
:0F1A320075D36675D2FC75D18075AF40D2AF22E7
:1016A7008035E4FFFEFDFC90036FE0F8A3E0F9A3AB
:1016B700E0FAA3E0FBC3120EEE602490036FE0FC98
:1016C700A3E0FDA3E0FEA3E024FFFFEE34FFFEED61
:1016D70034FFFDEC34FFFC90036F120EFF80C32232
:0D000E00E4F59275910175DE2F75BC80221E
:1019D80043BC400000E5BC30E5FB53BCDFAFBDEFC6
:0519E800FEADBEEDFFA5
:0119ED0022D7
:07004E00C1814203830000A1
:1016E7008035E4FFFEFDFC900373E0F8A3E0F9A367
:1016F700E0FAA3E0FBC3120EEE6024900373E0FC54
:10170700A3E0FDA3E0FEA3E024FFFFEE34FFFEED20
:1017170034FFFDEC34FFFC900373120EFF80C322ED
:10191E0075BA8090FFF2E4F090FFF07410F0A3E43B
:10192E00F090FF00F0A3F0A3F0A304F0A37480F0F6
:09193E00E4F5BA75FEC0D2AF2237
:0300B300021461D3
:0B146100C0E0C083C082C0D075D0087E
:10146C00E5F130E75853F17F30011D900384E0041F
:10147C00F07006900383E004F0C3900383E0648073
:10148C0094904023C201801F900384E024FFF090CD
:10149C000383E034FFF0D3A3E09401900383E06472
:1014AC008094805002D201C0BA43BA80900383E08A
:0D14BC00FFA3E090FF02CFF0A3EFF0D0BA45
:0914C900D0D0D082D083D0E032F3
:101727008035E4FFFEFDFC900377E0F8A3E0F9A322
:10173700E0FAA3E0FBC3120EEE6024900377E0FC0F
:10174700A3E0FDA3E0FEA3E024FFFFEE34FFFEEDE0
:1017570034FFFDEC34FFFC900377120EFF80C322A9
:10188400E4900349F0A3120F0B0000000090034EF4
:10189400120F0B00000000900345120F0B00000014
:1018A40000E4F5D875D909F5E9F5F975DA21F5EA11
:0718B400F5FAD2DED2AF22EB
:03003B0002136845
:10136800C0E0C0F0C083C082C0D075D00830DF08AC
:10137800C2DF900349E004F030D85AC2D890034E37
:10138800E0FCA3E0FDA3E0FEA3E0FF90034A120EF9
:10139800FF900351E5EAF0900350E5FAF090034915
:1013A800E090034FF090034EE4F090034AE0F8A376
:1013B800E0F9A3E0FAA3E0FBA3E0FCA3E0FDA3E0CF
:1013C800FEA3E0C39BFFEE9AFEED99FDEC98FC901E
:1013D8000345120EFFD0D0D082D083D0F0D0E032B7
:030000000212DC0D
:0C12DC00787FE4F6D8FD75812002132312
:100CCE00E709F608DFFA8046E709F208DFFA803E08
:100CDE0088828C83E709F0A3DFFA8032E309F608F5
:100CEE00DFFA8078E309F208DFFA807088828C835D
:100CFE00E309F0A3DFFA806489828A83E0A3F60811
:100D0E00DFFA805889828A83E0A3F208DFFA804CEA
:100D1E0080D280FA80C680D4806980F280338010C1
:100D2E0080A680EA809A80A880DA80E280CA80332A
:100D3E0089828A83ECFAE493A3C8C582C8CCC583A2
:100D4E00CCF0A3C8C582C8CCC583CCDFE9DEE78072
:100D5E000D89828A83E493A3F608DFF9ECFAA9F0F1
:100D6E00EDFB2289828A83ECFAE0A3C8C582C8CC47
:100D7E00C583CCF0A3C8C582C8CCC583CCDFEADE60
:100D8E00E880DB89828A83E493A3F208DFF980CCC2
:100D9E0088F0EF60010E4E60C388F0ED2402B404BB
:100DAE000050B9F582EB2402B4040050AF23234562
:060DBE008223900D1E735C
:100DC400BB010689828A83E0225002E722BBFE022D
:090DD400E32289828A83E4932260
:100DDD00BB010CE58229F582E5833AF583E02250CB
:100DED0006E92582F8E622BBFE06E92582F8E22215
:0D0DFD00E58229F582E5833AF583E493222F
:100E0A00A3F8E0C5F025F0F0E5821582700215839B
:060E1A00E0C838F0E822F8
:100E200075F008758200EF2FFFEE33FECD33CDCC89
:100E300033CCC58233C5829BED9AEC99E58298400C
:100E40000CF582EE9BFEED9AFDEC99FC0FD5F0D6E9
:100E5000E4CEFBE4CDFAE4CCF9A88222B800C1B913
:100E60000059BA002DEC8BF084CFCECDFCE5F0CB51
:100E7000F97818EF2FFFEE33FEED33FDEC33FCEB8A
:100E800033FB10D703994004EB99FB0FD8E5E4F945
:100E9000FA227818EF2FFFEE33FEED33FDEC33FC32
:100EA000C933C910D7059BE99A4007EC9BFCE99A26
:100EB000F90FD8E0E4C9FAE4CCFB2275F010EF2F6B
:100EC000FFEE33FEED33FDCC33CCC833C810D7076B
:100ED0009BEC9AE899400AED9BFDEC9AFCE899F8A6
:0E0EE0000FD5F0DAE4CDFBE4CCFAE4C8F92239
:100EEE00EB9FF5F0EA9E42F0E99D42F0E89C45F05A
:010EFE0022D1
:0C0EFF00ECF0A3EDF0A3EEF0A3EFF02266
:100F0B00A8828583F0D083D082120F22120F221277
:100F1B000F22120F22E473E493A3C583C5F0C5839C
:100F2B00C8C582C8F0A3C583C5F0C583C8C582C830
:010F3B002293
:100F3C00EF4E6012EF60010EEDBB010B89828A83CC
:100F4C00F0A3DFFCDEFA2289F05007F709DFFCA9D9
:0C0F5C00F022BBFEFCF309DFFCA9F02230
:1012E80002122AE493A3F8E493A34003F68001F2E0
:1012F80008DFF48029E493A3F85407240CC8C33307
:10130800C4540F4420C8834004F456800146F6DFD5
:10131800E4800B010204081020408090003EE47E27
:10132800019360BCA3FF543F30E509541FFEE493CA
:10133800A360010ECF54C025E060A840B8E493A391
:10134800FAE493A3F8E493A3C8C582C8CAC583CABC
:10135800F0A3C8C582C8CAC583CADFE9DEE780BE74
:0100550000AA
:00000001FF
