:100F57008035E4FFFEFDFC900353E0F8A3E0F9A31E
:100F6700E0FAA3E0FBC3120B1B6024900353E0FCE1
:100F7700A3E0FDA3E0FEA3E024FFFFEE34FFFEEDB8
:100F870034FFFDEC34FFFC900353120B2C80C3227B
:0D140900007F067E9D7D3BDDFEDEFCDFFAF0
:0114160022B3
:0600560000007F01DFFE47
:01005C002281
:04133900AD07AC064A
:10133D00E4FBFAC3EB9DEA9C501890000012005696
:10134D00A3E582B4E8F7E583B403F20BBB00010A11
:02135D0080E12D
:01135F00226B
:1007C0007374617200656E64000000000000000038
:1007D0000000000000000000000000000000000019
:1007E0000000000000000000000000000000000009
:1007F00000000000000000000000000000000000F9
:1008000000000000000000000000000000000000E8
:1008100000000000000000000000000000000000D8
:1008200000000000000000000000000000000000C8
:1008300000000000000000000000000000000000B8
:1008400000000000000000000000000000000000A8
:100850000000000000000000000000000000000098
:100860000000000000000000000000000000000088
:100870000000000000000000000000000000000078
:100880000000000000000000000000000000000068
:100890000000000000000000000000000000000058
:1008A0000000000000000000000000000000000048
:1008B0000000000000000000000000000000000038
:1008C0000000000000000000000000000000000028
:1008D0000000000000000000000000000000000018
:1008E0000000000000000000000000000000000008
:1008F00000000000000000000000000000000000F8
:1009000000000000000000000000000000000000E7
:1009100000000000000000000000000000000000D7
:1009200000000000000000000000000000000000C7
:1009300000000000000000000000000000000000B7
:1009400000000000000000000000000000000000A7
:100950000000000000000000000000000000000097
:100960000000000000000000000000000000000087
:100970000000000000000000000000000000000077
:100980000000000000000000000000000000000067
:100990000000000000000000000000000000000057
:1009A0000000000000000000000000000000000047
:1009B0000000000000000000000000000000000037
:0909C0000000000000000000002E
:0A0F0D00C2ED7FE87E037D007C004A
:100F17008035E4FFFEFDFC900000E0F8A3E0F9A3B4
:100F2700E0FAA3E0FBC3120B1B6024900000E0FC77
:100F3700A3E0FDA3E0FEA3E024FFFFEE34FFFEEDF8
:100F470034FFFDEC34FFFC900000120B2C80C32211
:1012DE00900225EBF0A3EAF0A3E9F0A3EDF0900263
:1012EE0028E0FF14F0EF6019900225E0FBA3E475EF
:1012FE00F001120B05A9F0FA120ABFFF12000380CB
:02130E00DD22DE
:10119500900357EBF0A3EAF0A3E9F0A3EDF07FEE9F
:1011A500801E90035AE0FF14F0EF6019900357E09A
:1011B500FBA3E475F001120B05A9F0FA120ABFFFB3
:0A11C50012000380DD7FFF0200032B
:10136000900381EFF07FEE120003900381E0FF1203
:0713700000037FFF020003F0
:080DCB007B017A0079057C0030
:100DD300900225EBF0A3EAF0A3E9F0A3ECF0A3ED76
:010DE300F01F
:100DE400E4A3F0FDFCD3900229E09D900228E09C4E
:100DF400402590022AE0FF900225E0FBA3E0FAA33D
:100E0400E0F98D828C83120AD8FEEF6E90022AF0EC
:0C0E14000DBD00010C80CE90022AE0FF12
:010E200022AF
:1000B60078017C007D017BFF7A0779C97E017F008C
:1000C600120A99E4900101F078067C017D017BFF1C
:1000D6007A0879C97E01FF120A99E4900206F0A215
:1000E600B23390020DF0A2B5E433A3F0A2EEE433EE
:1000F600A3F0A2B6E433A3F0A2B7E433A3F0A2F9C7
:10010600E433A3F0A2FAE433A3F0A2A0E433A3F00D
:10011600A2C2E433A3F0A2A3E433A3F0A2A4E4337F
:10012600A3F0A2A7E433A3F0A2ECE433A3F0A2CC9D
:10013600E433A3F0A297E433A3F0A2C4E433A3F01C
:10014600A294E433A3F0A2E9E433A3F0A2E8E433F3
:10015600A3F0A287E433A3F0A286E433A3F0A2853A
:10016600E433A3F0A284E433A3F0A283E433A3F040
:10017600900330E024F8FF900206F07E0078067CBB
:10018600017D017B017A02792F120A99A282B3E4DA
:1001960033900207F0A2FCB3E433A3F0A2FDB3E46C
:1001A60033A3F0A2FEB3E433A3F0A2FFB3E433A378
:1001B600F0A2C3B3E433A3F0900208E025E0FF9079
:1001C6000207E04FFF900209E025E025E04FFFA37C
:1001D600E033333354F84FFFA3E0C454F04FFFA38A
:1001E600E0C43354E04FFF900105F0900107E0FEB4
:1001F6006F60030207BF900206E064056003020712
:10020600BF900106E090034EF0A3EEF0900108E0E7
:10021600900350F0900109E0900351F090010AE03C
:10022600900352F07B017A0179067D047C00120D61
:10023600D3900000EFF0900352E06F60030207BF17
:1002460090034EE02480700302053024F66003021A
:1002560007BF900351E0641160030207BF9003508B
:10026600E014B4180040030204EC90027E75F0031B
:10027600A4C58325F0C583730202C60202DD02020D
:10028600F402030B0203220203390203500203673E
:1002960002037E0203950203AC0203C30203DA02E1
:1002A60003F102040802041F02043602044D02048C
:1002B6006402047A0204900204A60204BC0204D278
:1002C600D2B37F287E00121339C2B37F287E001274
:1002D6001339A2B20204E6D2B47F287E0012133983
:1002E600C2B47F287E00121339A2B50204E6D2C832
:1002F6007F287E00121339C2C87F287E0012133968
:10030600A2EE0204E6D2C97F287E00121339C2C9C2
:100316007F287E00121339A2B60204E6D2C17F28D6
:100326007E00121339C2C17F287E00121339A2B78C
:100336000204E6D2F87F287E00121339C2F87F281D
:100346007E00121339A2F90204E6D2EF7F287E005E
:10035600121339C2EF7F287E00121339A2FA020463
:10036600E6D2FB7F287E00121339C2FB7F287E006F
:10037600121339A2B50204E6D2A17F287E00121319
:1003860039C2A17F287E00121339A2C20204E6D226
:10039600A27F287E00121339C2A27F287E00121384
:1003A60039A2A30204E6D2A57F287E00121339C221
:1003B600A57F287E00121339A2A40204E6D2A67FE6
:1003C600287E00121339C2A67F287E00121339A296
:1003D600A70204E6D2C07F287E00121339C2C07F6E
:1003E600287E00121339A2EC0204E6D2CD7F287EC5
:1003F60000121339C2CD7F287E00121339A2CC0217
:1004060004E6D2967F287E00121339C2967F287E94
:1004160000121339A2970204E6D2957F287E0012B5
:100426001339C2957F287E00121339A2C40204E64E
:10043600D2EB7F287E00121339C2EB7F287E001292
:100446001339A2940204E6D2EA7F287E00121339F9
:10045600C2EA7F287E00121339A2E90204E6D2938B
:100466007F287E00121339C2937F287E001213392B
:10047600A2E8806CD2927F287E00121339C2927F46
:10048600287E00121339A2878056D2917F287E00DB
:10049600121339C2917F287E00121339A28680403A
:1004A600D2CB7F287E00121339C2CB7F287E001262
:1004B6001339A285802AD2CA7F287E00121339C238
:1004C600CA7F287E00121339A2848014D2907F2816
:1004D6007E00121339C2907F287E00121339A28340
:1004E600E433900101F078017C007D017BFF7A07FF
:1004F60079C07E007F04120A9990034EE0900005B1
:10050600F090034FE0900006F0900350E090000753
:10051600F0900101E0640170099000087411F00286
:10052600078EE4900008F002078E900351E06433D2
:1005360060030207BF900350E0600302067F90024B
:100546000EE025E0FF90020DE04FFF90020FE02540
:10055600E025E04FFFA3E033333354F84FFFA3E029
:10056600C454F04FFFA3E0C43354E04FFFA3E0C4EC
:10057600333354C04FFFA3E0C433333354804F901A
:100586000102F0900216E025E0FF900215E04FFF11
:10059600900217E025E025E04FFFA3E03333335404
:1005A600F84FFFA3E0C454F04FFFA3E0C43354E078
:1005B6004FFFA3E0C4333354C04FFFA3E0C433332B
:1005C6003354804F900103F090021EE025E0FF9027
:1005D600021DE04FFF90021FE025E025E04FFFA33C
:1005E600E033333354F84FFFA3E0C454F04FFFA376
:1005F600E0C43354E04FFFA3E0C4333354C04FFF8D
:10060600A3E0C433333354804F900104F078017C67
:10061600007D017BFF7A0779C07E007F04120A996C
:1006260090034EE0900005F090034FE0900006F036
:10063600900102E0900007F0900103E0900008F0BE
:10064600900104E0900009F07D05120DCB900000AA
:10065600EFF090000AF0780B7C007D017BFF7A07B3
:1006660079C57E007F03120A99E490000EF07B01A3
:100676007A0079017D0D0207BC900350E014B4188E
:1006860000400302074E90069A75F003A4C5832521
:10069600F0C583730206E20206E60206EA0206EEE9
:1006A6000206F20206F60206FE020702020706022A
:1006B600070A02070E02071202071602071A0207A6
:1006C6001E02072602072A02072E020732020736F3
:1006D60002073A02073E020742020746A2B28062BA
:1006E600A2B5805EA2EE805AA2B68056A2B780520C
:1006F600A2F9E433900101F0A2FA8046A2A080425A
:10070600A2C2803EA2A3803AA2A48036A2A78032CB
:10071600A2EC802EA2CC802AA297E433900101F0AD
:10072600A2C4801EA294801AA2E98016A2E88012B2
:10073600A287800EA286800AA2858006A2848002F5
:10074600A283E433900101F078017C007D017BFFF8
:100756007A0779C07E007F04120A9990034EE090D2
:100766000005F090034FE0900006F0900350E090F3
:100776000007F0900101E064017008900008741110
:10078600F08005E4900008F07D04120DCB90000087
:10079600EFF0900009F0780A7C007D017BFF7A0774
:1007A60079C57E007F03120A99E490000DF07B0163
:0907B6007A0079017D0C1212DEBB
:0107BF002217
:100E210075926FE4F591759666F59575B218F5B101
:100E310075B403F5B375CA2FF5C975CC8CF5CB75AF
:100E4100E209F5E1C2B3C2B4C2C8C2C9C2C1C2F8A3
:100E5100C2EFC2FBC2A1C2A2C2A5C2A6C2C0C2CD7C
:100E6100C296C295C2EBC2EAC293C292C291C2CBF0
:050E7100C2CAC290227C
:100E76001200261213B9D2ACD2AF120E21120F0FE6
:100E8600120F0D90032BE0640170F87FE87E03FDDE
:100E9600FC120F17D2ED120F0F1200B6120F0F121F
:100EA6000F0D7E007F0D7D007B017A02792B120BE0
:0C0EB60069E4900330F090032BF080C73B
:10003E0041032C0041032F004103300041032B00EC
:100F97008035E4FFFEFDFC90035BE0F8A3E0F9A3D6
:100FA700E0FAA3E0FBC3120B1B602490035BE0FC99
:100FB700A3E0FDA3E0FEA3E024FFFFEE34FFFEED78
:100FC70034FFFDEC34FFFC90035B120B2C80C32233
:10002600759850438E01438E0475D78F75D6FD4360
:030036008E102207
:080003008F993099FDC299228A
:1012AB00900377EBF0A3EAF0A3E9F0900377E0FB70
:1012BB00A3E0FAA3E0F9120ABF6017900377A3E447
:1012CB0075F001120B05A9F0FA120ABFFF12000309
:0312DB0080D92295
:03002300020B9538
:0B0B9500C0E0C083C082C0D075D00853
:100BA000309904C299C200209803020C45C298AF44
:100BB00099900330E0FE242BF582E43402F583EFB4
:100BC000F0EED3940D748094804005900330E4F0EF
:100BD00090022BE064737065A3E06474705FA3E01F
:100BE00064617059A3E064727053900330E0D39451
:100BF0000474809480404690032FE01460161460C3
:100C00002014602924037037EF6465703290032F3D
:100C100004F0802BEF646E702690032F7402F08036
:100C20001EEFB4641A90032F7403F08012EFB46FB8
:100C30000E90032FE4F090032B04F08002D28C90EE
:050C40000330E004F0A8
:090C4500D0D0D082D083D0E0327F
:04001E00E4F5A22241
:100FD7008035E4FFFEFDFC90035FE0F8A3E0F9A392
:100FE700E0FAA3E0FBC3120B1B602490035FE0FC55
:100FF700A3E0FDA3E0FEA3E024FFFFEE34FFFEED38
:1010070034FFFDEC34FFFC90035F120B2C80C322EE
:100EC20090037A74FFF0A374FDF0A374F9F0E49038
:100ED2000382F0900382E0FFFD3395E0FCC3ED94C2
:100EE20007EC64809480502290037AE0FBA3E0FA3E
:100EF200A3E0F9EF3395E08F82F583120AD8FF124F
:0A0F02000003900382E004F080C9B0
:010F0C0022C2
:1011570090037AE4F0A3F0A374F1F0E4900383F032
:10116700900383E0FFC3940774809480501F90031B
:101177007AE0FBA3E0FAA3E0F98F82758300120AF5
:0D118700D8FF120003900383E004F080D332
:011194002238
:101017008035E4FFFEFDFC900363E0F8A3E0F9A34D
:10102700E0FAA3E0FBC3120B1B6024900363E0FC10
:10103700A3E0FDA3E0FEA3E024FFFFEE34FFFEEDF7
:1010470034FFFDEC34FFFC900363120B2C80C322AA
:10137700E4F594F5937592FFF591F5967595FF75DC
:06138700B2FF75B1FF2268
:101057008035E4FFFEFDFC900367E0F8A3E0F9A309
:10106700E0FAA3E0FBC3120B1B6024900367E0FCCC
:10107700A3E0FDA3E0FEA3E024FFFFEE34FFFEEDB7
:1010870034FFFDEC34FFFC900367120B2C80C32266
:1013B900538E7FE4F589758AA0758C15D2A9C28DE3
:0313C900C28C22B1
:03000B0002138D50
:10138D00C0E0C083C082C28DC28C900330E4F0D027
:06139D0082D083D0E03293
:03001B000200667A
:10006600C0E0C083C082C0D090037EE004F070067A
:1000760090037DE004F0C390037EE094F490037D4A
:10008600E094014006E4F0A3F0B280D0D0D082D054
:0400960083D0E03201
:1013CC00E4F589758B66758DFCD28ED2ABD2AF22CB
:030063000211CFB8
:1011CF00C0E0C083C082C0D053EFFE90037EE00426
:1011DF00F0700690037DE004F0C390037EE0942C42
:1011EF0090037DE094014006E4F0A3F0B280D0D0EC
:0711FF00D082D083D0E03262
:0F13DC0075D76675D6FC758E1075AF04D2AF222B
:03009B0002120648
:10120600C0E0C083C082C0D053EFFD90037EE004EF
:10121600F0700690037DE004F0C390037EE094BC7A
:1012260090037DE094024006E4F0A3F0B280D0D0B3
:07123600D082D083D0E0322A
:0F13EB0075D56675D4FC75D10875AF20D2AF22C9
:0300A30002123D09
:10123D00C0E0C083C082C0D053EFFB90037EE004BA
:10124D00F0700690037DE004F0C390037EE094E817
:10125D0090037DE094034006E4F0A3F0B280D0D07B
:07126D00D082D083D0E032F3
:0F13FA0075D36675D2FC75D18075AF40D2AF2226
:101097008035E4FFFEFDFC90036BE0F8A3E0F9A3C5
:1010A700E0FAA3E0FBC3120B1B602490036BE0FC88
:1010B700A3E0FDA3E0FEA3E024FFFFEE34FFFEED77
:1010C70034FFFDEC34FFFC90036B120B2C80C32222
:0D000E00E4F59275910175DE2F75BC80221E
:1013A30043BC400000E5BC30E5FB53BCDFAFBDEF01
:0513B300FEADBEEDFFE0
:0113B8002212
:07004E00C18142037F0000A5
:1010D7008035E4FFFEFDFC90036FE0F8A3E0F9A381
:1010E700E0FAA3E0FBC3120B1B602490036FE0FC44
:1010F700A3E0FDA3E0FEA3E024FFFFEE34FFFEED37
:1011070034FFFDEC34FFFC90036F120B2C80C322DD
:1013100075BA8090FFF2E4F090FFF07410F0A3E44F
:10132000F090FF00F0A3F0A3F0A304F0A37480F00A
:09133000E4F5BA75FEC0D2AF224B
:0300B300020D5AE1
:0B0D5A00C0E0C083C082C0D075D0088C
:100D6500E5F130E75853F17F30011D900380E00431
:100D7500F0700690037FE004F0C390037FE0648089
:100D850094904023C201801F900380E024FFF090DF
:100D9500037FE034FFF0D3A3E0940190037FE06488
:100DA5008094805002D201C0BA43BA8090037FE09C
:0D0DB500FFA3E090FF02CFF0A3EFF0D0BA53
:090DC200D0D0D082D083D0E03201
:101117008035E4FFFEFDFC900373E0F8A3E0F9A33C
:10112700E0FAA3E0FBC3120B1B6024900373E0FCFF
:10113700A3E0FDA3E0FEA3E024FFFFEE34FFFEEDF6
:1011470034FFFDEC34FFFC900373120B2C80C32299
:10127400E4900345F0A3120B380000000090034AE9
:10128400120B3800000000900341120B38000000DC
:1012940000E4F5D875D909F5E9F5F975DA21F5EA27
:0712A400F5FAD2DED2AF2201
:03003B00020CDADA
:100CDA00C0E0C0F0C083C082C0D075D00830DF0841
:100CEA00C2DF900345E004F030D85AC2D890034AD4
:100CFA00E0FCA3E0FDA3E0FEA3E0FF900346120B95
:100D0A002C90034DE5EAF090034CE5FAF090034588
:100D1A00E090034BF090034AE4F0900346E0F8A316
:100D2A00E0F9A3E0FAA3E0FBA3E0FCA3E0FDA3E063
:100D3A00FEA3E0C39BFFEE9AFEED99FDEC98FC90B2
:100D4A000341120B2CD0D0D082D083D0F0D0E03225
:03000000020C4EA1
:0C0C4E00787FE4F6D8FD758120020C953B
:1009C900E709F608DFFA8046E709F208DFFA803E10
:1009D90088828C83E709F0A3DFFA8032E309F608FD
:1009E900DFFA8078E309F208DFFA807088828C8365
:1009F900E309F0A3DFFA806489828A83E0A3F60819
:100A0900DFFA805889828A83E0A3F208DFFA804CF2
:100A190080D280FA80C680D4806980F280338010C9
:100A290080A680EA809A80A880DA80E280CA803332
:100A390089828A83ECFAE493A3C8C582C8CCC583AA
:100A4900CCF0A3C8C582C8CCC583CCDFE9DEE7807A
:100A59000D89828A83E493A3F608DFF9ECFAA9F0F9
:100A6900EDFB2289828A83ECFAE0A3C8C582C8CC4F
:100A7900C583CCF0A3C8C582C8CCC583CCDFEADE68
:100A8900E880DB89828A83E493A3F208DFF980CCCA
:100A990088F0EF60010E4E60C388F0ED2402B404C3
:100AA9000050B9F582EB2402B4040050AF2323456A
:060AB9008223900A19736C
:100ABF00BB010689828A83E0225002E722BBFE0235
:090ACF00E32289828A83E4932268
:100AD800BB010CE58229F582E5833AF583E02250D3
:100AE80006E92582F8E622BBFE06E92582F8E2221D
:0D0AF800E58229F582E5833AF583E4932237
:100B0500A3F8E0C5F025F0F0E582158270021583A3
:060B1500E0C838F0E82200
:100B1B00EB9FF5F0EA9E42F0E99D42F0E89C45F030
:010B2B0022A7
:0C0B2C00ECF0A3EDF0A3EEF0A3EFF0223C
:100B3800A8828583F0D083D082120B4F120B4F12FC
:100B48000B4F120B4FE473E493A3C583C5F0C58321
:100B5800C8C582C8F0A3C583C5F0C583C8C582C807
:010B6800226A
:100B6900EF4E6012EF60010EEDBB010B89828A83A3
:100B7900F0A3DFFCDEFA2289F05007F709DFFCA9B0
:0C0B8900F022BBFEFCF309DFFCA9F02207
:100C5A00020E76E493A3F8E493A34003F68001F22C
:100C6A0008DFF48029E493A3F85407240CC8C3339B
:100C7A00C4540F4420C8834004F456800146F6DF6A
:100C8A00E4800B010204081020408090003EE47EBC
:100C9A00019360BCA3FF543F30E509541FFEE4935F
:100CAA00A360010ECF54C025E060A840B8E493A326
:100CBA00FAE493A3F8E493A3C8C582C8CAC583CA51
:100CCA00F0A3C8C582C8CAC583CADFE9DEE780BE09
:0100550000AA
:00000001FF
