:100A22008035E4FFFEFDFC900334E0F8A3E0F9A377
:100A3200E0FAA3E0FBC31206376024900334E0FC23
:100A4200A3E0FDA3E0FEA3E024FFFFEE34FFFEEDF2
:100A520034FFFDEC34FFFC90033412064880C322BD
:0D0EBD00007F067E9D7D3BDDFEDEFCDFFA42
:010ECA002205
:0600560000007F01DFFE47
:01005C002281
:040E0400AD07AC0684
:100E0800E4FBFAC3EB9DEA9C5018900000120056D0
:100E1800A3E582B4E8F7E583B403F20BBB00010A4B
:020E280080E167
:010E2A0022A5
:1000B6000D0A2D2D312D2D0D0A000D0A2D2D322D57
:1000C6002D0D0A000D0A2D2D332D2D0D0A007374EA
:1000D600617200656E6400556172742054657374B4
:1000E6002031210D0A000000000000000000000081
:1000F60000000000000000000000000000000000FA
:1001060000000000000000000000000000000000E9
:1001160000000000000000000000000000000000D9
:1001260000000000000000000000000000000000C9
:1001360000000000000000000000000000000000B9
:1001460000000000000000000000000000000000A9
:100156000000000000000000000000000000000099
:100166000000000000000000000000000000000089
:100176000000000000000000000000000000000079
:100186000000000000000000000000000000000069
:100196000000000000000000000000000000000059
:1001A6000000000000000000000000000000000049
:1001B6000000000000000000000000000000000039
:1001C6000000000000000000000000000000000029
:1001D6000000000000000000000000000000000019
:1001E6000000000000000000000000000000000009
:1001F60000000000000000000000000000000000F9
:1002060000000000000000000000000000000000E8
:1002160000000000000000000000000000000000D8
:1002260000000000000000000000000000000000C8
:1002360000000000000000000000000000000000B8
:1002460000000000000000000000000000000000A8
:100256000000000000000000000000000000000098
:100266000000000000000000000000000000000088
:100276000000000000000000000000000000000078
:100286000000000000000000000000000000000068
:100296000000000000000000000000000000000058
:1002A6000000000000000000000000000000000048
:1002B6000000000000000000000000000000000038
:1002C6000000000000000000000000000000000028
:1002D6000000000000000000000000000000000018
:0602E60000000000000012
:0A09D800C2ED7FE87E037D007C0085
:1009E2008035E4FFFEFDFC900000E0F8A3E0F9A3EF
:1009F200E0FAA3E0FBC31206376024900000E0FC9B
:100A0200A3E0FDA3E0FEA3E024FFFFEE34FFFEED32
:100A120034FFFDEC34FFFC90000012064880C32234
:100DA900900206EBF0A3EAF0A3E9F0A3EDF09002BC
:100DB90009E0FF14F0EF6019900206E0FBA3E47567
:100DC900F001120621A9F0FA1205DBFF12000380D7
:020DD900DD2219
:100C6000900338EBF0A3EAF0A3E9F0A3EDF07FEEF8
:100C7000801E90033BE0FF14F0EF6019900338E012
:100C8000FBA3E475F001120621A9F0FA1205DBFFBF
:0A0C900012000380DD7FFF02000365
:0608E7007B017D047C0092
:1008ED00900206EBF0A3EAF0A3E9F0A3ECF0A3ED80
:0108FD00F00A
:1008FE00E4A3F0FDFCD390020AE09D900209E09C77
:10090E00402590020BE0FF900206E0FBA3E0FAA365
:10091E00E0F98D828C831205F4FEEF6E90020BF0DF
:0C092E000DBD00010C80CE90020BE0FF1C
:01093A00229A
:1002EC0078017C007D017BFF7A0079EC7E017F0038
:1002FC001205B5E4900101F078057C017D017BFFCE
:10030C007A0179EC7E01FF1205B5E4900205F090BC
:10031C000311E024F8FF900205F07E0078057C01C3
:10032C007D017B017A0279101205B5A282B3E43308
:10033C00F9A2FCB3E433FFA2FDB3E433FEA2FEB397
:10034C00E433FDA2FFB3E433FCA2C3B3E433FBEF0D
:10035C0025E0AA0149FFEE25E025E04FFFAE05EEB2
:10036C0033333354F84FFFAE04EEC454F04FFFAEAA
:10037C0003EEC43354E04FFF900106E0FE6F6003C0
:10038C000204E4900205E0640560030204E49001B9
:10039C0005E090032FF0A3EEF0900107E0900331FD
:1003AC00F0900108E0900332F0900109E0900333E3
:1003BC00F07A0179051208E7900000EFF090033312
:1003CC00E06F60030204E490032FE02476600302E4
:1003DC0004E4900332E0641160030204E4900331FE
:1003EC00E024FE603314605C24027079D2967F1492
:1003FC007E00120E04C2967F147E00120E04D2965A
:10040C00D297D295D2C4D2EBD2949001017401F060
:10041C007BFF7A0079B6804AD2957F147E00120E4B
:10042C0004C2957F147E00120E04C296C297C29528
:10043C00C2C4C2EBC2949001017401F07BFF7A003C
:10044C0079C0801EC2EB7F147E00120E04D2EB7FAB
:10045C00147E00120E049001017401F07BFF7A00EF
:10046C0079CA120D7678017C007D017BFF7A0079C8
:10047C00D47E007F041205B590032FE0900005F0A8
:10048C00900330E0900006F0900331E0900007F00C
:10049C00900101E0640170089000087411F080056F
:1004AC00E4900008F07A0079051208E7900000EF5C
:1004BC00F0900009F0780A7C007D017BFF7A0079CE
:1004CC00D97E007F031205B5E490000DF07B017A14
:0804DC000079017D0C120DA94D
:0104E40022F5
:10093B00120026120E6DD2ACD2AF1209DA1209D800
:10094B007BFF7A0079DD120D7690030CE064017069
:10095B00F87FE87E03FDFC1209E2D2ED1209DA12F0
:10096B0002EC1209DA1209D87E007F0D7D007B01A3
:10097B007A02790C120685E4900311F090030CF0C7
:02098B0080C723
:10003E0041030D00410310004103110041030C0068
:100A62008035E4FFFEFDFC90033CE0F8A3E0F9A32F
:100A7200E0FAA3E0FBC3120637602490033CE0FCDB
:100A8200A3E0FDA3E0FEA3E024FFFFEE34FFFEEDB2
:100A920034FFFDEC34FFFC90033C12064880C32275
:10002600759850438E01438E0475D78F75D6FD4360
:030036008E102207
:080003008F993099FDC299228A
:100D7600900206EBF0A3EAF0A3E9F0900206E0FB8E
:100D8600A3E0FAA3E0F91205DB6017900206A3E4DC
:100D960075F001120621A9F0FA1205DBFF12000315
:030DA60080D922CF
:030023000206B121
:0B06B100C0E0C083C082C0D075D0083C
:1006BC00309904C299C200209803020761C298AF16
:1006CC0099900311E0FE240CF582E43402F583EFDB
:1006DC00F0EED3940D748094804005900311E4F0F7
:1006EC0090020CE064737065A3E06474705FA3E027
:1006FC0064617059A3E064727053900311E0D39459
:10070C0004748094804046900310E01460161460CA
:10071C002014602924037037EF6465703290031045
:10072C0004F0802BEF646E70269003107402F0803E
:10073C001EEFB4641A9003107403F08012EFB46FC0
:10074C000E900310E4F090030C04F08002D28C9015
:05075C000311E004F0B0
:09076100D0D0D082D083D0E03268
:04001E00E4F5A22241
:100AA2008035E4FFFEFDFC900340E0F8A3E0F9A3EB
:100AB200E0FAA3E0FBC31206376024900340E0FC97
:100AC200A3E0FDA3E0FEA3E024FFFFEE34FFFEED72
:100AD20034FFFDEC34FFFC90034012064880C32231
:10098D0090035874FFF0A374FDF0A374F9F0E49094
:10099D00035FF090035FE0FFFD3395E0FCC3ED9442
:1009AD0007EC648094805022900358E0FBA3E0FA9A
:1009BD00A3E0F9EF3395E08F82F5831205F4FF1272
:0A09CD00000390035FE004F080C90E
:0109D70022FD
:100C2200900358E4F0A3F0A374F1F0E4900360F0B1
:100C3200900360E0FFC3940774809480501F900378
:100C420058E0FBA3E0FAA3E0F98F82758300120556
:0D0C5200F4FF120003900360E004F080D373
:010C5F002272
:100AE2008035E4FFFEFDFC900344E0F8A3E0F9A3A7
:100AF200E0FAA3E0FBC31206376024900344E0FC53
:100B0200A3E0FDA3E0FEA3E024FFFFEE34FFFEED31
:100B120034FFFDEC34FFFC90034412064880C322EC
:100E2B00E4F594F5937592FFF591F5967595FF752D
:060E3B00B2FF75B1FF22B9
:100B22008035E4FFFEFDFC900348E0F8A3E0F9A362
:100B3200E0FAA3E0FBC31206376024900348E0FC0E
:100B4200A3E0FDA3E0FEA3E024FFFFEE34FFFEEDF1
:100B520034FFFDEC34FFFC90034812064880C322A8
:100E6D00538E7FE4F589758AA0758C15D2A9C28D34
:030E7D00C28C2202
:03000B00020E41A1
:100E4100C0E0C083C082C28DC28C900311E4F0D097
:060E510082D083D0E032E4
:03001B000200667A
:10006600C0E0C083C082C0D090035CE004F070069C
:1000760090035BE004F0C390035CE094F490035BB0
:10008600E094014006E4F0A3F0B280D0D0D082D054
:0400960083D0E03201
:100E8000E4F589758B66758DFCD28ED2ABD2AF221C
:03006300020C9AF2
:100C9A00C0E0C083C082C0D053EFFE90035CE00482
:100CAA00F0700690035BE004F0C390035CE0942CC0
:100CBA0090035BE094014006E4F0A3F0B280D0D048
:070CCA00D082D083D0E0329C
:0F0E900075D76675D6FC758E1075AF04D2AF227C
:03009B00020CD183
:100CD100C0E0C083C082C0D053EFFD90035CE0044C
:100CE100F0700690035BE004F0C390035CE094BCF9
:100CF10090035BE094024006E4F0A3F0B280D0D010
:070D0100D082D083D0E03264
:0F0E9F0075D56675D4FC75D10875AF20D2AF221A
:0300A300020D0843
:100D0800C0E0C083C082C0D053EFFB90035CE00416
:100D1800F0700690035BE004F0C390035CE094E895
:100D280090035BE094034006E4F0A3F0B280D0D0D7
:070D3800D082D083D0E0322D
:0F0EAE0075D36675D2FC75D18075AF40D2AF2277
:100B62008035E4FFFEFDFC90034CE0F8A3E0F9A31E
:100B7200E0FAA3E0FBC3120637602490034CE0FCCA
:100B8200A3E0FDA3E0FEA3E024FFFFEE34FFFEEDB1
:100B920034FFFDEC34FFFC90034C12064880C32264
:0D000E00E4F59275910175DE2F75BC80221E
:100E570043BC400000E5BC30E5FB53BCDFAFBDEF52
:050E6700FEADBEEDFF31
:010E6C002263
:07004E00C18142035D0000C7
:100BA2008035E4FFFEFDFC900350E0F8A3E0F9A3DA
:100BB200E0FAA3E0FBC31206376024900350E0FC86
:100BC200A3E0FDA3E0FEA3E024FFFFEE34FFFEED71
:100BD20034FFFDEC34FFFC90035012064880C32220
:100DDB0075BA8090FFF2E4F090FFF07410F0A3E48A
:100DEB00F090FF00F0A3F0A3F0A304F0A37480F045
:090DFB00E4F5BA75FEC0D2AF2286
:0300B300020876CA
:0B087600C0E0C083C082C0D075D00875
:10088100E5F130E75853F17F30011D90035EE0043C
:10089100F0700690035DE004F0C390035DE06480B6
:1008A10094904023C201801F90035EE024FFF090EA
:1008B100035DE034FFF0D3A3E0940190035DE064B5
:1008C1008094805002D201C0BA43BA8090035DE0A7
:0D08D100FFA3E090FF02CFF0A3EFF0D0BA3C
:0908DE00D0D0D082D083D0E032EA
:100BE2008035E4FFFEFDFC900354E0F8A3E0F9A396
:100BF200E0FAA3E0FBC31206376024900354E0FC42
:100C0200A3E0FDA3E0FEA3E024FFFFEE34FFFEED30
:100C120034FFFDEC34FFFC90035412064880C322DB
:100D3F00E4900326F0A31206540000000090032B4A
:100D4F001206540000000090032212065400000007
:100D5F0000E4F5D875D909F5E9F5F975DA21F5EA61
:070D6F00F5FAD2DED2AF223B
:03003B000207F6C3
:1007F600C0E0C0F0C083C082C0D075D00830DF082A
:10080600C2DF900326E004F030D85AC2D890032BFA
:10081600E0FCA3E0FDA3E0FEA3E0FF9003271206A1
:100826004890032EE5EAF090032DE5FAF0900326B2
:10083600E090032CF090032BE4F0900327E0F8A35C
:10084600E0F9A3E0FAA3E0FBA3E0FCA3E0FDA3E04C
:10085600FEA3E0C39BFFEE9AFEED99FDEC98FC909B
:100866000322120648D0D0D082D083D0F0D0E03216
:0300000002076A8A
:0C076A00787FE4F6D8FD7581200207B10D
:1004E500E709F608DFFA8046E709F208DFFA803EF9
:1004F50088828C83E709F0A3DFFA8032E309F608E6
:10050500DFFA8078E309F208DFFA807088828C834D
:10051500E309F0A3DFFA806489828A83E0A3F60801
:10052500DFFA805889828A83E0A3F208DFFA804CDB
:1005350080D280FA80C680D4806980F280338010B2
:1005450080A680EA809A80A880DA80E280CA80331B
:1005550089828A83ECFAE493A3C8C582C8CCC58393
:10056500CCF0A3C8C582C8CCC583CCDFE9DEE78063
:100575000D89828A83E493A3F608DFF9ECFAA9F0E2
:10058500EDFB2289828A83ECFAE0A3C8C582C8CC38
:10059500C583CCF0A3C8C582C8CCC583CCDFEADE51
:1005A500E880DB89828A83E493A3F208DFF980CCB3
:1005B50088F0EF60010E4E60C388F0ED2402B404AC
:1005C5000050B9F582EB2402B4040050AF23234553
:0605D5008223900535733E
:1005DB00BB010689828A83E0225002E722BBFE021E
:0905EB00E32289828A83E4932251
:1005F400BB010CE58229F582E5833AF583E02250BC
:1006040006E92582F8E622BBFE06E92582F8E22205
:0D061400E58229F582E5833AF583E493221F
:10062100A3F8E0C5F025F0F0E5821582700215838C
:06063100E0C838F0E822E9
:10063700EB9FF5F0EA9E42F0E99D42F0E89C45F019
:010647002290
:0C064800ECF0A3EDF0A3EEF0A3EFF02225
:10065400A8828583F0D083D08212066B12066B12B7
:10066400066B12066BE473E493A3C583C5F0C583DC
:10067400C8C582C8F0A3C583C5F0C583C8C582C8F0
:010684002253
:10068500EF4E6012EF60010EEDBB010B89828A838C
:10069500F0A3DFFCDEFA2289F05007F709DFFCA999
:0C06A500F022BBFEFCF309DFFCA9F022F0
:1007760002093BE493A3F8E493A34003F68001F255
:1007860008DFF48029E493A3F85407240CC8C33384
:10079600C4540F4420C8834004F456800146F6DF53
:1007A600E4800B010204081020408090003EE47EA5
:1007B600019360BCA3FF543F30E509541FFEE49348
:1007C600A360010ECF54C025E060A840B8E493A30F
:1007D600FAE493A3F8E493A3C8C582C8CAC583CA3A
:1007E600F0A3C8C582C8CAC583CADFE9DEE780BEF2
:0100550000AA
:00000001FF
