:100C47008035E4FFFEFDFC900334E0F8A3E0F9A350
:100C5700E0FAA3E0FBC312080B6024900334E0FC26
:100C6700A3E0FDA3E0FEA3E024FFFFEE34FFFEEDCB
:100C770034FFFDEC34FFFC90033412081C80C322C0
:0D10E200007F067E9D7D3BDDFEDEFCDFFA1B
:0110EF0022DE
:0600560000007F01DFFE47
:01005C002281
:04102900AD07AC065D
:10102D00E4FBFAC3EB9DEA9C5018900000120056A9
:10103D00A3E582B4E8F7E583B403F20BBB00010A24
:02104D0080E140
:01104F00227E
:1004B0007374617200656E6400000000000000004B
:1004C000000000000000000000000000000000002C
:1004D000000000000000000000000000000000001C
:1004E000000000000000000000000000000000000C
:1004F00000000000000000000000000000000000FC
:1005000000000000000000000000000000000000EB
:1005100000000000000000000000000000000000DB
:1005200000000000000000000000000000000000CB
:1005300000000000000000000000000000000000BB
:1005400000000000000000000000000000000000AB
:10055000000000000000000000000000000000009B
:10056000000000000000000000000000000000008B
:10057000000000000000000000000000000000007B
:10058000000000000000000000000000000000006B
:10059000000000000000000000000000000000005B
:1005A000000000000000000000000000000000004B
:1005B000000000000000000000000000000000003B
:1005C000000000000000000000000000000000002B
:1005D000000000000000000000000000000000001B
:1005E000000000000000000000000000000000000B
:1005F00000000000000000000000000000000000FB
:1006000000000000000000000000000000000000EA
:1006100000000000000000000000000000000000DA
:1006200000000000000000000000000000000000CA
:1006300000000000000000000000000000000000BA
:1006400000000000000000000000000000000000AA
:10065000000000000000000000000000000000009A
:10066000000000000000000000000000000000008A
:10067000000000000000000000000000000000007A
:10068000000000000000000000000000000000006A
:10069000000000000000000000000000000000005A
:1006A000000000000000000000000000000000004A
:0906B00000000000000000000041
:0A0BFD00C2ED7FE87E037D007C005E
:100C07008035E4FFFEFDFC900000E0F8A3E0F9A3C7
:100C1700E0FAA3E0FBC312080B6024900000E0FC9D
:100C2700A3E0FDA3E0FEA3E024FFFFEE34FFFEED0B
:100C370034FFFDEC34FFFC90000012081C80C32237
:100FCE00900206EBF0A3EAF0A3E9F0A3EDF0900295
:100FDE0009E0FF14F0EF6019900206E0FBA3E47540
:100FEE00F0011207F5A9F0FA1207AFFF1200038005
:020FFE00DD22F2
:100E8500900338EBF0A3EAF0A3E9F0A3EDF07FEED1
:100E9500801E90033BE0FF14F0EF6019900338E0EB
:100EA500FBA3E475F0011207F5A9F0FA1207AFFFED
:0A0EB50012000380DD7FFF0200033E
:060B5E007B017D047C0018
:100B6400900206EBF0A3EAF0A3E9F0A3ECF0A3ED06
:010B7400F090
:100B7500E4A3F0FDFCD390020AE09D900209E09CFD
:100B8500402590020BE0FF900206E0FBA3E0FAA3EC
:100B9500E0F98D828C831207C8FEEF6E90020BF090
:0C0BA5000DBD00010C80CE90020BE0FFA3
:010BB1002221
:1000B60078017C007D017BFF7A0479B97E017F009F
:1000C600120789E4900101F078057C017D017BFF30
:1000D6007A0579B97E01FF120789E4900205F0904E
:1000E6000311E024F8FF900205F07E0078057C01FC
:1000F6007D017B017A027910120789A282B3E4336B
:10010600F9A2FCB3E433FFA2FDB3E433FEA2FEB3CF
:10011600E433FDA2FFB3E433FCA2C3B3E433FBEF45
:1001260025E0AA0149FFEE25E025E04FFFAE05EEEA
:1001360033333354F84FFFAE04EEC454F04FFFAEE2
:1001460003EEC43354E04FFF900106E0FE6F6003F8
:100156000204AF900205E0640560030204AF90015B
:1001660005E090032FF0A3EEF0900107E090033135
:10017600F0900108E0900332F0900109E09003331B
:10018600F07A017905120B5E900000EFF0900333D0
:10019600E06F60030204AF90032FE0247660030251
:1001A60004AF900332E0641160030204AF900331A0
:1001B600E014B41800400302043C9001CE75F0032D
:1001C600A4C58325F0C5837302021602022D02021E
:1001D6004402025B0202720202890202A00202B714
:1001E6000202CE0202E50202FC02031302032A0205
:1001F600034102035802036F02038602039D0203B2
:10020600B40203CA0203E00203F602040C0204224B
:10021600D2B37F287E00121029C2B37F287E001237
:100226001029A2B2020436D2B47F287E0012102909
:10023600C2B47F287E00121029A2B5020436D2C8A5
:100246007F287E00121029C2C87F287E001210293E
:10025600A2EE020436D2C97F287E00121029C2C936
:100266007F287E00121029A2B6020436D2C17F284A
:100276007E00121029C2C17F287E00121029A2B763
:10028600020436D2F87F287E00121029C2F87F2891
:100296007E00121029A2F9020436D2EF7F287E00D2
:1002A600121029C2EF7F287E00121029A2FA02043A
:1002B60036D2FB7F287E00121029C2FB7F287E00E3
:1002C600121029A2B5020436D2A17F287E00121090
:1002D60029C2A17F287E00121029A2C2020436D2AA
:1002E600A27F287E00121029C2A27F287E0012104B
:1002F60029A2A3020436D2A57F287E00121029C2A5
:10030600A57F287E00121029A2A4020436D2A67F59
:10031600287E00121029C2A67F287E00121029A26C
:10032600A7020436D2C07F287E00121029C2C07FE1
:10033600287E00121029A2EC020436D2CD7F287E38
:1003460000121029C2CD7F287E00121029A2CC02ED
:100356000436D2967F287E00121029C2967F287E08
:1003660000121029A297020436D2957F287E001229
:100376001029C2957F287E00121029A2C4020436D5
:10038600D2EB7F287E00121029C2EB7F287E001256
:100396001029A294020436D2EA7F287E0012102980
:1003A600C2EA7F287E00121029A2E9020436D293FF
:1003B6007F287E00121029C2937F287E0012102902
:1003C600A2E8806CD2927F287E00121029C2927F0A
:1003D600287E00121029A2878056D2917F287E009F
:1003E600121029C2917F287E00121029A286804011
:1003F600D2CB7F287E00121029C2CB7F287E001226
:100406001029A285802AD2CA7F287E00121029C20E
:10041600CA7F287E00121029A2848014D2907F28D9
:100426007E00121029C2907F287E00121029A28316
:10043600E433900101F078017C007D017BFF7A04B2
:1004460079B07E007F0412078990032FE0900005A3
:10045600F0900330E0900006F0900331E090000742
:10046600F0900101E0640170089000087411F080BA
:1004760005E4900008F07A007905120B5E90000002
:10048600EFF0900009F0780A7C007D017BFF7A048A
:1004960079B57E007F03120789E490000DF07B0199
:0904A6007A0079017D0C120FCEE1
:0104AF00222A
:10093E00120026121092D2ACD2AF75926FE4F591DE
:10094E00759666F59575B218F5B175B403F5B37570
:10095E00CA2FF5C975CC8CF5CB75E209F5E1C2B39A
:10096E00C2B4C2C8C2C9C2C1C2F8C2EFC2FBC2A1E0
:10097E00C2A2C2A5C2A6C2C0C2CDC296C295C2EBC9
:10098E00C2EAC293C292C291C2CBC2CAC2907FE8DF
:10099E007E03FDFC120C07120BFD90030CE06401AC
:1009AE0070F87FE87E03FDFC120C07D2ED120BFFF0
:1009BE001200B6120BFF120BFD7E007F0D7D007B29
:1009CE00017A02790C120859E4900311F090030C8D
:0309DE00F080C7DF
:10003E0041030D00410310004103110041030C0068
:100C87008035E4FFFEFDFC90033CE0F8A3E0F9A308
:100C9700E0FAA3E0FBC312080B602490033CE0FCDE
:100CA700A3E0FDA3E0FEA3E024FFFFEE34FFFEED8B
:100CB70034FFFDEC34FFFC90033C12081C80C32278
:10002600759850438E01438E0475D78F75D6FD4360
:030036008E102207
:080003008F993099FDC299228A
:100F9B00900358EBF0A3EAF0A3E9F0900358E0FBC1
:100FAB00A3E0FAA3E0F91207AF6017900358A3E48C
:100FBB0075F0011207F5A9F0FA1207AFFF12000343
:030FCB0080D922A8
:030023000208854B
:0B088500C0E0C083C082C0D075D00866
:10089000309904C299C200209803020935C298AF6A
:1008A00099900311E0FE240CF582E43402F583EF05
:1008B000F0EED3940D748094804005900311E4F021
:1008C00090020CE064737065A3E06474705FA3E051
:1008D00064617059A3E064727053900311E0D39483
:1008E00004748094804046900310E01460161460F5
:1008F0002014602924037037EF6465703290031070
:1009000004F0802BEF646E70269003107402F08068
:100910001EEFB4641A9003107403F08012EFB46FEA
:100920000E900310E4F090030C04F08002D28C903F
:050930000311E004F0DA
:09093500D0D0D082D083D0E03292
:04001E00E4F5A22241
:100CC7008035E4FFFEFDFC900340E0F8A3E0F9A3C4
:100CD700E0FAA3E0FBC312080B6024900340E0FC9A
:100CE700A3E0FDA3E0FEA3E024FFFFEE34FFFEED4B
:100CF70034FFFDEC34FFFC90034012081C80C32234
:100BB20090035B74FFF0A374FDF0A374F9F0E4906A
:100BC2000362F0900362E0FFFD3395E0FCC3ED9415
:100BD20007EC64809480502290035BE0FBA3E0FA70
:100BE200A3E0F9EF3395E08F82F5831207C8FF1275
:0A0BF2000003900362E004F080C9E4
:010BFC0022D6
:100E470090035BE4F0A3F0A374F1F0E4900363F084
:100E5700900363E0FFC3940774809480501F90034E
:100E67005BE0FBA3E0FAA3E0F98F8275830012072A
:0D0E7700C8FF120003900363E004F080D375
:010E8400224B
:100D07008035E4FFFEFDFC900344E0F8A3E0F9A37F
:100D1700E0FAA3E0FBC312080B6024900344E0FC55
:100D2700A3E0FDA3E0FEA3E024FFFFEE34FFFEED0A
:100D370034FFFDEC34FFFC90034412081C80C322EF
:10105000E4F594F5937592FFF591F5967595FF7506
:06106000B2FF75B1FF2292
:100D47008035E4FFFEFDFC900348E0F8A3E0F9A33B
:100D5700E0FAA3E0FBC312080B6024900348E0FC11
:100D6700A3E0FDA3E0FEA3E024FFFFEE34FFFEEDCA
:100D770034FFFDEC34FFFC90034812081C80C322AB
:10109200538E7FE4F589758AA0758C15D2A9C28D0D
:0310A200C28C22DB
:03000B000210667A
:10106600C0E0C083C082C28DC28C900311E4F0D070
:0610760082D083D0E032BD
:03001B000200667A
:10006600C0E0C083C082C0D090035FE004F0700699
:1000760090035EE004F0C390035FE094F490035EA7
:10008600E094014006E4F0A3F0B280D0D0D082D054
:0400960083D0E03201
:1010A500E4F589758B66758DFCD28ED2ABD2AF22F5
:03006300020EBFCB
:100EBF00C0E0C083C082C0D053EFFE90035FE00458
:100ECF00F0700690035EE004F0C390035FE0942C93
:100EDF0090035EE094014006E4F0A3F0B280D0D01E
:070EEF00D082D083D0E03275
:0F10B50075D76675D6FC758E1075AF04D2AF2255
:03009B00020EF65C
:100EF600C0E0C083C082C0D053EFFD90035FE00422
:100F0600F0700690035EE004F0C390035FE094BCCB
:100F160090035EE094024006E4F0A3F0B280D0D0E5
:070F2600D082D083D0E0323D
:0F10C40075D56675D4FC75D10875AF20D2AF22F3
:0300A300020F2D1C
:100F2D00C0E0C083C082C0D053EFFB90035FE004EC
:100F3D00F0700690035EE004F0C390035FE094E868
:100F4D0090035EE094034006E4F0A3F0B280D0D0AD
:070F5D00D082D083D0E03206
:0F10D30075D36675D2FC75D18075AF40D2AF2250
:100D87008035E4FFFEFDFC90034CE0F8A3E0F9A3F7
:100D9700E0FAA3E0FBC312080B602490034CE0FCCD
:100DA700A3E0FDA3E0FEA3E024FFFFEE34FFFEED8A
:100DB70034FFFDEC34FFFC90034C12081C80C32267
:0D000E00E4F59275910175DE2F75BC80221E
:10107C0043BC400000E5BC30E5FB53BCDFAFBDEF2B
:05108C00FEADBEEDFF0A
:01109100223C
:07004E00C1814203600000C4
:100DC7008035E4FFFEFDFC900350E0F8A3E0F9A3B3
:100DD700E0FAA3E0FBC312080B6024900350E0FC89
:100DE700A3E0FDA3E0FEA3E024FFFFEE34FFFEED4A
:100DF70034FFFDEC34FFFC90035012081C80C32223
:1010000075BA8090FFF2E4F090FFF07410F0A3E462
:10101000F090FF00F0A3F0A3F0A304F0A37480F01D
:09102000E4F5BA75FEC0D2AF225E
:0300B300020AED51
:0B0AED00C0E0C083C082C0D075D008FC
:100AF800E5F130E75853F17F30011D900361E004C0
:100B0800F07006900360E004F0C3900360E0648036
:100B180094904023C201801F900361E024FFF0906D
:100B28000360E034FFF0D3A3E09401900360E06435
:100B38008094805002D201C0BA43BA80900360E02A
:0D0B4800FFA3E090FF02CFF0A3EFF0D0BAC2
:090B5500D0D0D082D083D0E03270
:100E07008035E4FFFEFDFC900354E0F8A3E0F9A36E
:100E1700E0FAA3E0FBC312080B6024900354E0FC44
:100E2700A3E0FDA3E0FEA3E024FFFFEE34FFFEED09
:100E370034FFFDEC34FFFC90035412081C80C322DE
:100F6400E4900326F0A31208280000000090032B4D
:100F74001208280000000090032212082800000034
:100F840000E4F5D875D909F5E9F5F975DA21F5EA3A
:070F9400F5FAD2DED2AF2214
:03003B00020A6D49
:100A6D00C0E0C0F0C083C082C0D075D00830DF08B0
:100A7D00C2DF900326E004F030D85AC2D890032B81
:100A8D00E0FCA3E0FDA3E0FEA3E0FF900327120826
:100A9D001C90032EE5EAF090032DE5FAF090032665
:100AAD00E090032CF090032BE4F0900327E0F8A3E3
:100ABD00E0F9A3E0FAA3E0FBA3E0FCA3E0FDA3E0D3
:100ACD00FEA3E0C39BFFEE9AFEED99FDEC98FC9022
:100ADD00032212081CD0D0D082D083D0F0D0E032C7
:030000000209E111
:0C09E100787FE4F6D8FD758120020A281A
:1006B900E709F608DFFA8046E709F208DFFA803E23
:1006C90088828C83E709F0A3DFFA8032E309F60810
:1006D900DFFA8078E309F208DFFA807088828C8378
:1006E900E309F0A3DFFA806489828A83E0A3F6082C
:1006F900DFFA805889828A83E0A3F208DFFA804C06
:1007090080D280FA80C680D4806980F280338010DC
:1007190080A680EA809A80A880DA80E280CA803345
:1007290089828A83ECFAE493A3C8C582C8CCC583BD
:10073900CCF0A3C8C582C8CCC583CCDFE9DEE7808D
:100749000D89828A83E493A3F608DFF9ECFAA9F00C
:10075900EDFB2289828A83ECFAE0A3C8C582C8CC62
:10076900C583CCF0A3C8C582C8CCC583CCDFEADE7B
:10077900E880DB89828A83E493A3F208DFF980CCDD
:1007890088F0EF60010E4E60C388F0ED2402B404D6
:100799000050B9F582EB2402B4040050AF2323457D
:0607A90082239007097392
:1007AF00BB010689828A83E0225002E722BBFE0248
:0907BF00E32289828A83E493227B
:1007C800BB010CE58229F582E5833AF583E02250E6
:1007D80006E92582F8E622BBFE06E92582F8E22230
:0D07E800E58229F582E5833AF583E493224A
:1007F500A3F8E0C5F025F0F0E582158270021583B7
:06080500E0C838F0E82213
:10080B00EB9FF5F0EA9E42F0E99D42F0E89C45F043
:01081B0022BA
:0C081C00ECF0A3EDF0A3EEF0A3EFF0224F
:10082800A8828583F0D083D08212083F12083F1235
:10083800083F12083FE473E493A3C583C5F0C5835A
:10084800C8C582C8F0A3C583C5F0C583C8C582C81A
:01085800227D
:10085900EF4E6012EF60010EEDBB010B89828A83B6
:10086900F0A3DFFCDEFA2289F05007F709DFFCA9C3
:0C087900F022BBFEFCF309DFFCA9F0221A
:1009ED0002093EE493A3F8E493A34003F68001F2D9
:1009FD0008DFF48029E493A3F85407240CC8C3330B
:100A0D00C4540F4420C8834004F456800146F6DFD9
:100A1D00E4800B010204081020408090003EE47E2B
:100A2D00019360BCA3FF543F30E509541FFEE493CE
:100A3D00A360010ECF54C025E060A840B8E493A395
:100A4D00FAE493A3F8E493A3C8C582C8CAC583CAC0
:100A5D00F0A3C8C582C8CAC583CADFE9DEE780BE78
:0100550000AA
:00000001FF
